:020000040001F9
:10F0000080F40020E9F40100F1F40100B5F40100FE
:10F01000F5F40100F7F40100F9F40100000000002C
:10F0200000000000000000000000000015F40100D6
:10F03000FDF401000000000059F4010001F5010099
:10F040004D18040003F5010011B004002D5D04000B
:10F050005D5D040003F50100F1750300E55B04004C
:10F06000B59E0400C99E0400DD9E040003F5010066
:10F0700003F5010003F5010003F5010003F50100AC
:10F0800009F504009D48040003F5010003F50100A3
:10F0900003F5010003F501007D5D040003F50100A7
:10F0A00003F5010003F5010003F5010003F501007C
:10F0B00003F5010003F5010000000000000000005E
:10F0C00003F5010003F5010003F501006D5D040087
:10F0D000D948040003F50100196203000000000094
:10F0E0000000000000000000000000000000000020
:10F0F0000000000000000000000000000000000010
:10F1000000000000000000000000000000000000FF
:10F1100000000000000000000000000000000000EF
:10F40000DFF80CD000F05CFC00480047B15E05005E
:10F4100080F40020264B19680868B0E8F04F80F3AC
:10F420000988BFF36F8F4FF0000080F31188704799
:10F43000000000000748006880F3088862B661B6E3
:10F44000BFF34F8FBFF36F8F4FF4F07080F31188CD
:10F4500000DF000000F00100EFF30980BFF36F8FC1
:10F46000134B1A681EF0100F08BF20ED108A20E918
:10F47000F04F106008B44FF0200080F31188BFF304
:10F480004F8FBFF36F8F3CF0C1FD4FF0000080F352
:10F49000118808BC19680868B0E8F04F1EF0100F1A
:10F4A00008BFB0EC108A80F30988BFF36F8F7047F4
:10F4B000842A0020094B1EF0040F1CBFEFF30980C3
:10F4C0001847EFF308800649064A884201D890425F
:10F4D00002D88D464FF000001847000099E2030063
:10F4E00080F4002080E80020064880470648004756
:10F4F000FEE7FEE7FEE7FEE7FEE7FEE7FEE7FEE7E4
:10F50000FEE7FEE77D9A040001F401000649074A80
:10F510000868504343F239021044086040087047BD
:10F520000149086070470000E02E00206D4EC64182
:10F5300040EA01039B0703D009E008C9121F08C075
:10F54000042AFAD203E011F8013B00F8013B521EF5
:10F55000F9D27047D2B201E000F8012B491EFBD26C
:10F5600070470022F6E710B513460A4604461946CE
:10F57000FFF7F0FF204610BD421E12F8013F002B9E
:10F58000FBD111F8013B02F8013B002BF9D1704788
:10F59000421C10F8011B0029FBD1801A704710B5DE
:10F5A000002200E0521C835C8C5CA34201D1002B42
:10F5B000F8D1D8B2E1B2401A10BD30B504460020EF
:10F5C000034600E05B1C934203D2E05CCD5C401B31
:10F5D000F8D030BD034611F8012B00F8012B002AAA
:10F5E000F9D1184670472DE9FE4F804681EA0300A5
:10F5F000C00F0C46009021F0004123F00045B8EB0D
:10F600000200A94105D24046214690461C460B46C1
:10F61000024623F00040104347D0270DC7F30A00ED
:10F62000C3F30A510290401A019040286BDAC3F3E9
:10F63000130040F4801B0098924620B10023D2EBC7
:10F64000030A63EB0B0B01985946C0F14002504688
:10F6500000F0EEF906460D4650465946019A00F074
:10F6600006FA10EB08006141002487EA115284EA8F
:10F67000E7731A4340D0009A62B3019A012A4FEA15
:10F68000075215DC001B61EB02014FF0004202EA59
:10F690000752CDE90042001C41F5801132462B464D
:10F6A00000F03DFA03B0BDE8F08F40462146F9E78F
:10F6B000001B61EB0201001C41F5801300185B4147
:10F6C0002018A2F5001747EB030140EAD570B619E0
:10F6D0006D4111E06D084FEA360645EAC0754FEA04
:10F6E0000752001B61EB0201001C41F58011490823
:10F6F0004FEA30000019514132462B4603B0BDE8B5
:10F70000F04F00F0FDB90098012240000023D0EB3B
:10F71000020263EBE073009821464FEAE074B8EB15
:10F72000000061EB0401E9E783F000435BE781F04F
:10F73000004158E72DE9FE4F81EA030404F000443C
:10F7400021F0004100944FF0000B23F0004350EAF9
:10F7500001045ED052EA03045BD0C3F30A54C1F340
:10F760000A552C44A4F2F3340194A0FB0254C1F3D3
:10F77000130141F48011C3F3130343F4801301FB1D
:10F78000024400FB034E840A970A44EA815447EA84
:10F790008357A4FB076802958D0A05FB07854FEA8E
:10F7A000932C04FB0C542705029D4FEA065847EAA8
:10F7B0001637B5EB08056EEB070C870E920E47EA7D
:10F7C000811742EA8312A7FB0201B6EB0B0164EB3F
:10F7D00000042B0D43EA0C335E1844EB1C50DA4650
:10F7E0005146E7FB0201C5F313044FEA0B3343EA2A
:10F7F00014534FEA0432019C43EA0603A4F10C04BB
:10F800000294009CCDE900B400F089F903B0BDE892
:10F81000F08F00200146F9E72DE9F04D81EA03045D
:10F8200004F0004B21F0004514464FF0000A23F08D
:10F83000004150EA050220D054EA01021DD0C5F370
:10F840000A570246C5F31303C1F31300C1F30A5666
:10F8500040F4801543F48013A7EB0608101BD6462E
:10F8600008F2FD3873EB050002D308F1010801E04E
:10F8700092185B41B8F1000F03DA00200146BDE8A1
:10F88000F08D00204FF48011064684460EE0171BD1
:10F8900073EB050705D3121B63EB050306434CEA24
:10F8A000010C49084FEA300092185B4150EA010709
:10F8B000EDD152EA030012D082EA040083EA050186
:10F8C000084305D0101BAB4106D20122002306E0FD
:10F8D00000224FF0004302E06FF0010253101AEBD8
:10F8E00006004CEB085110EB0A0041EB0B01BDE8A0
:10F8F000F04D00F005B90EB5C10F80EAE070084484
:10F90000CA07002140F233438DE80E000A460B4639
:10F9100000F005F903B000BD0EB540F2334102918D
:10F920000021CDE900110A460B4600F0F8F803B0BB
:10F9300000BD70B5C1F30A5201F000450024C1F3C7
:10F94000130140F2FF3341F480119A4201DA0020A2
:10F9500070BD40F233439A42A2F2334203DC52427A
:10F9600000F075F800E090402C43F1D0404270BDAB
:10F97000C1F30A5210B5C1F3130140F2FF3341F451
:10F9800080119A4201DA002010BD40F233439A42BE
:10F99000A2F2334203DC524200F059F810BD90400D
:10F9A00010BD00F0004230F000400AD0C10D01F55A
:10F9B0006071C0F3160042EA0151C20840071143CA
:10F9C000704700200146704730B5041E71F10004F5
:10F9D00004DB4FF00044404264EB0101141E73F15C
:10F9E000000405DB1C464FF00043524263EB040366
:10F9F000994208BF904230BD01F0004330B421F07D
:10FA0000004150EA010206D00A0DA2F56072C1F36E
:10FA10001301002A02DC30BC00207047440F44EA86
:10FA2000C104C100E01830BC00EBC25000F031B896
:10FA3000202A04DB203A00FA02F1002070479140AE
:10FA4000C2F1200320FA03F3194390407047202AA3
:10FA500004DB203A21FA02F00021704721FA02F378
:10FA6000D040C2F120029140084319467047202A35
:10FA700006DBCB17203A41FA02F043EAE07306E0D6
:10FA800041FA02F3D040C2F12002914008431946E6
:10FA900070470029A8BF7047401C490008BF20F0EC
:10FAA0000100704710B4B0FA80FC00FA0CF050EA84
:10FAB000010404BF10BC704749B1CCF1200421FA05
:10FAC00004F411FA0CF118BF012121430843A3EB00
:10FAD0000C01CB1D4FEA00614FEA102042BF00200D
:10FAE00010BC704700EBC35010440029A4BF10BCE9
:10FAF0007047401C490008BF20F0010010BC70474F
:10FB000010B5141E73F1000408DA401C41F1000125
:10FB100092185B411A4301D120F0010010BD2DE97C
:10FB2000F04D92469B4611B1B1FA81F202E0B0FA73
:10FB300080F220329046FFF77BFF04460F4640EAF2
:10FB40000A0041EA0B0153465A46084313D01146B6
:10FB500053EA010019D0C8F140025046FFF777FF81
:10FB600005460E46504659464246FFF761FF084398
:10FB700005D0012004E020463946BDE8F08D002084
:10FB8000054346EAE0762C4337430A986305E40AC6
:10FB9000A0EB08000022FD0A44EA47540A3002D5CF
:10FBA00000200146E9E7010510196941DDE9084532
:10FBB00000196941BDE8F04DA2E770B521F000439E
:10FBC00003430CD0C1F30A550024D5EB040564EBC4
:10FBD0000403D617AD1AB34102DB0020014670BD05
:10FBE000201841EB025170BD2DE9F04D00231A465B
:10FBF0001B1A8A4103DB00200146BDE8F08DC1F3EA
:10FC00000A52C1F3130141F480154FF0000BD107E4
:10FC100002D100186D41521E0027044640F2FF1128
:10FC2000384601EB620A3E468046024600204FF409
:10FC30008011FFF70CFFC2197141BB1846EB0100A0
:10FC4000B4EB030C75EB000C04D3E41A65EB000570
:10FC500017460E46241908F101006D4180463428EC
:10FC6000E3DDF91946EB0600091BA84103D24FF06A
:10FC7000FF32134601E0002213461BEB070046EB60
:10FC80000A51BDE8F04DFFF73BBF000030B5041E40
:10FC900071F1000404DB4FF00044404264EB0101C9
:10FCA000141E73F1000405DB1C464FF00043524262
:10FCB00063EB04038B4208BF824230BD00207047D3
:10FCC000064C074D06E0E06840F0010394E80700A9
:10FCD00098471034AC42F6D3FFF796FB58EF050077
:10FCE00078EF050070B58C1810F8015B15F007036C
:10FCF00001D110F8013B2A1106D110F8012B03E0C5
:10FD000010F8016B01F8016B5B1EF9D12B0705D4CC
:10FD10000023521E0DD401F8013BFAE710F8013B15
:10FD2000CB1A921C03E013F8015B01F8015B521E31
:10FD3000F9D5A142D8D3002070BD70B504460D4658
:10FD40001646202C71D37E2C6FD80D2D6ED2DFE895
:10FD500005F0A207111C293847525F6E7B8A950077
:10FD6000A4F12001002202EBC100324608213AF042
:10FD7000DFF891E0A4F120014FF4407202EBC100E2
:10FD8000324608213AF0D4F886E0A4F1200101EBD4
:10FD900041014FF4C06202EB810032460C213AF07F
:10FDA000C7F879E0A4F1200101EB810202EBC10167
:10FDB0004FF4286202EB410032461A213AF0B8F8BB
:10FDC0006AE0A4F1200101EB810202EBC1014FF4D2
:10FDD000A25202EB410032461A213AF0A9F85BE048
:10FDE000A4F120014FF4F05202EB01103246102131
:10FDF0003AF09EF850E0A4F1200101EB01114FF41C
:10FE0000105202EB4100324622213AF091F843E0D1
:10FE1000A4F1200101EB01114FF4435202EB410028
:10FE2000324622213AF084F836E038E033E0A4F19B
:10FE3000200101EB41014FF4765202EB01103246F2
:10FE400030213AF075F827E0A4F1200101EB81029E
:10FE500002EB41114FF4CF4202EB410032464A21FE
:10FE60003AF066F818E0A4F1200148F2403202EBC3
:10FE70008110324640213AF05BF80DE0A4F12001F8
:10FE800001EB811149F6403202EB410032468221FA
:10FE90003AF04EF800E000BF00BF012070BD002026
:10FEA000FCE7000070B50024E8B1E1B102880B88DE
:10FEB0004D88D31A428880888988521B401A13FBC8
:10FEC00003F112FB021110FB0010FFF714FD41ECCF
:10FED000100B31F097FC51EC100BFFF749FD034973
:10FEE000C864204670BD4FF0FF3070BD682C002004
:10FEF00070B514460D46060073D0002D71D0002C4D
:10FF00006FD0202B6ED006DC022B64D0042B10D0D7
:10FF1000082B17D104E0402B7BD0802B12D162E05C
:10FF2000208880002080608880006080A088800019
:10FF300007E0208840002080608840006080A08822
:10FF40004000A080208810FB00F000EE100A6088BE
:10FF5000F8EEC00A10FB00F000EE100AB8EEC00A7E
:10FF600030EE800A10EE100AFFF71BFD41EC100B7B
:10FF700031F048FC51EC100BFFF7DBFC308020889F
:10FF800010FB00F000EE100A6088F8EEC00A10FBCB
:10FF900000F000EE100AA088B8EEC00A70EE800AE9
:10FFA00010FB00F000EE100AB8EEC00A30EE800A36
:10FFB00010EE100AFFF7F5FC41EC100B31F022FCBB
:10FFC00051EC100BFFF7B5FC28602146BDE87040EE
:10FFD0002548FFF767BF2088208060886080A08860
:10FFE000AFE740E02AE0B4F90000C11700EB9170E0
:10FFF00080102080B4F90200C11700EB91708010CE
:020000040002F8
:100000006080B4F90400C11700EB9170801098E78C
:10001000FFE7B4F90000C11700EB5170C010208059
:10002000B4F90200C11700EB5170C0106080B4F940
:100030000400C11700EB5170C01082E7B4F9000052
:10004000C11700EB117000112080B4F90200C11734
:1000500000EB117000116080B4F90400C11700EBCF
:10006000117000116DE770BDC02C002030B5044642
:10007000002053B900BF06E00D5C012D01D104251D
:100080002554451CA8B29042F6DB012B0AD1002072
:1000900006E00D5C012D01D105252554451CA8B2B3
:1000A0009042F6DB022B23D100201FE0255C032DBC
:1000B00002D10025255417E0255C022D02D101252F
:1000C000255411E0255C012D01D0255C15B90225D0
:1000D000255409E0255C042D01D1255404E0255C5C
:1000E000052D01D103252554451CA8B29042DDDB26
:1000F00030BD00002DE9FC5F82468B4615461E464A
:1001000000200190002700248046009081462E2187
:100110004048FFF726FA2E213F48FFF722FA2E210A
:100120003E48FFF71EFA00BF5AE0601C4000C0F1D5
:10013000310035F81000FF280AD1601C4000C0F1E2
:10014000300035F81000FF2802D10C98009006E02E
:10015000601C4000C0F1300035F810000090601CB9
:100160004000C0F1320035F8108013E0294830F823
:100170001400401C274921F814001BF8080003282C
:1001800002D10120019009E00020019008F1010056
:100190001FFA80F80098001F4045E7DC00BF019877
:1001A00030B900201B4921F81400781CC7B215E0B3
:1001B0006000C0F1300035F810106000C0F131006F
:1001C00035F81000081A144921F814006000C0F135
:1001D000300035F81000114921F81400601C84B279
:1001E000B442A2DB002407E00A4830F81400484477
:1001F0001FFA80F9601C84B2B442F5DBF01B04D016
:10020000F01B99FBF0F01FFA80F9AAF81F90BDE8E7
:10021000FC9F0000D2C0002000C100202EC10020A1
:10022000F0B503460D461646002000BF30E000241E
:100230000021002200BF0EE00719EF5D022F02D15E
:100240004F1CB9B205E00719EF5D032F01D1571C10
:10025000BAB2671CFCB20C2CEEDB8F180A2F05DB40
:10026000052A03DB4718A3F81B7015E08F180A2F27
:1002700005DB022A03DB4718A3F81B700CE00A29F0
:1002800004DB1AB94718A3F81B7005E0411C88B2BB
:10029000A6F10B018142CADC00BFF0BD2DE9F04799
:1002A00007460D46904600240026A146A2464FF47C
:1002B000B4613846FFF755F900BF17E06000401CF5
:1002C000C0F1320035F810906000801CC0F132009F
:1002D00035F810A04E4603E00120B855701C86B2D8
:1002E0000AF101008642F7DB601CC4B24445E5DB3D
:1002F000BDE8F0872DE9F04F04461646099D002021
:100300000022002784468046814600BF0CE011F899
:1003100000A0BAF1000F03D14FF0010A01F800A0CC
:1003200000F1010A1FFA8AF0A842F0DB002031E058
:100330004FEA400ACAF1310ABAF1320F06DA4FEA3F
:10034000400ACAF1300ABAF1000F00D51EE04FEAA8
:10035000400ACAF1310A36F81A200EE0B2F5B46F3D
:1003600001DA002A00DA04E04FF0040A01F802A0E2
:1003700000BF02F1010A1FFA8AF24FEA400ACAF1ED
:10038000300A36F81AA09245E8DC00BF00F1010AF5
:100390001FFA8AF09842CBDB322D09DB4FF0020ABC
:1003A00081F800A081F801A081F802A081F803A0E3
:1003B000002069E011F800A0BAF1040F10D100F19B
:1003C000010A11F80AA0BAF1030F09D14FF0020A8D
:1003D00000F1010B01F80BA000F1020B01F80BA0DA
:1003E00011F800A0BAF1050F10D100F1010A11F8BF
:1003F0000AA0BAF1030F09D14FF0020A00F1010B74
:1004000001F80BA000F1020B01F80BA011F800A0FD
:10041000BAF1040F17D100F1010A11F80AA0BAF1DC
:10042000010F06D000F1010A11F80AA0BAF1000F7D
:1004300009D14FF0020A00F1010B01F80BA000F105
:10044000020B01F80BA011F800A0BAF1050F17D1AB
:1004500000F1010A11F80AA0BAF1010F06D000F16B
:10046000010A11F80AA0BAF1000F09D14FF0020AEF
:1004700000F1010B01F80BA000F1020B01F80BA039
:1004800000F1010A1FFA8AF0A5F1020A824591DC07
:1004900000202CE011F800A0BAF1030F03D107F1FE
:1004A000010A1FFA8AF711F800A0BAF1020F03D16E
:1004B0000CF1010A1FFA8AFC11F800A0BAF1010F31
:1004C00004D011F800A0BAF1000F03D108F1010A1D
:1004D0001FFA8AF811F800A0BAF1040F03D109F14C
:1004E000010A1FFA8AF900F1010A1FFA8AF0A842EC
:1004F000D0DBA4F81950A4F81D90A4F81370A4F848
:1005000015C0A4F81780BDE8F08F2DE9F04104462E
:10051000069D0020082A26DD00BF21E01646D717D9
:1005200002EB5777FF10A2EBC7077F1E1F44C7F1EE
:10053000080C0F5C07FA0CF74FEA400C0CF1010CA9
:1005400004F1520818F80CC047EA0C0707F0FF083E
:1005500047007F1C04F1520C0CF80780461CB0B217
:10056000A842DBDB32E0082A20DA00201BE0164636
:10057000D71702EB5777FF10A2EBC7077F1E1F4468
:10058000C7F1080C0F5C07FA0CF704F1520C1CF8C9
:1005900010C047EA0C0707F0FF0C04F1520707F8F8
:1005A00010C0461CB0B2A842E1DB0FE000200BE017
:1005B00004F1520616F810600F5C3E4304F1520736
:1005C00007F81060461CB0B2A842F1DBBDE8F0812C
:1005D0002DE9F04FADF6AC2D4FF0000806468F48E0
:1005E0000D464FF4A969CDF8A40A47468DF8988ABC
:1005F0008DF89C8A44464946CDF8A08A02A8FEF7A9
:10060000B0FF49460DF5AA60FEF7ABFF844887713D
:10061000844840F8787F47608760C7604FF47A77F6
:1006200056F8240000F5001046F8240055F8240080
:1006300000F5001045F82400641CA4B2BC42EFD3BE
:1006400003222946304623F071FF0DF6A4223B46D3
:10065000111F284604F011FB714C0DF52A60313C46
:1006600003C8A269824200DAA061E069884200DD25
:10067000E1614FF0640BCDE900B847460023032247
:1006800002A9284610F09CFC4FF47A71284612F01B
:1006900029FA9DF80800DFF88CA14FF001080AF153
:1006A000780A022802D884F803806AE0012302AAAB
:1006B0002946304627F004FE4FF4A96102A8FEF750
:1006C00050FF4FF4FA61CDE900180023052202A97A
:1006D000304610F075FC00204FF47A7955F8201060
:1006E00056F82020891A45F82010401C80B2484551
:1006F000F4D378214B48FEF734FF40F6B831CDE90A
:100700000019002304224749284612F099FACDE93E
:1007100000B7002303220DF5AA61284610F050FC13
:1007200000230DF5AA622946304627F0C9FD0020B6
:1007300055F8201056F82020891A45F82010401C42
:1007400080B24845F4D34FF4A9610DF5AA60FEF7D5
:1007500008FF0221CDE900B100230A220DF5AA61AC
:10076000284610F02DFC4A460DF5AA61284612F0E5
:10077000FBF9E07828B99AF80110504609B90078D9
:10078000D0B18AF802808DF8987A8DF89C8A244A34
:1007900020789DF89C1A521F042801F0010123794A
:1007A00001FA00F153FA81F121D221719DF8981AD2
:1007B0001154401C20702CE00DF688220DF5AA6122
:1007C000284604F0FDF9164A0DF5AA60153A111FE6
:1007D00004F068FA0DF5AA6016F0B4FD0DF69C233E
:1007E0001A1F0DF5AA6102A821F0CAFBCFE7C9B212
:1007F00021719DF8983A1354401C20700848401FFE
:1008000020F0CEFD0649277188712770A068401C32
:10081000A0600DF6AC2D0120BDE8F08F002D310158
:100820007D2E00206CC2002010B51148002440F835
:10083000784F44608460C4600E487821046004717D
:100840000B48FEF78EFE0B489FED0B0A2C380B4928
:10085000047084608470C470447080ED080A80ED78
:10086000090AC0E9064180ED0A0A446110BD000092
:100870006CC20020782E002000000000002D310105
:100880002DE9F05F2DED028B04460F4691460025C1
:10089000AA460026AB46A8469FEDDA0AB0EE408A8B
:1008A0004FF4B4614846FEF75CFE2774B4F81900B3
:1008B000772805DAA078142802DCA0780C2818DA4A
:1008C000B4F81D00282802DB0020607213E0032F1B
:1008D00002DB002060720EE0022F02DB0220607259
:1008E00009E0012F02DB0420607204E00620607240
:1008F00001E002206072B4F8190078B1B4F8130076
:1009000000EE100AF8EE400AB4F8190000EE100AE2
:10091000B8EE400A80EE801AB0EE418AB4F81900B1
:10092000772805DAA078142802DCA0780C2816DADB
:10093000B6EE000AB4EEC08AF1EE10FA02DD042031
:10094000A0720EE09FEDB00AB4EEC08AF1EE10FA8C
:1009500002DD0320A07204E00020A07201E0032069
:10096000A072B4F81900772805DAA078142802DC00
:10097000A0780C282ADAB4F81900B0F5B47F02DCAC
:10098000002060732BE0B4F81900B0F5D27F02DCD0
:100990000220607323E0B4F81900B0F5F07F02DCA8
:1009A000042060731BE0B4F81900B0F5077F02DC87
:1009B0000320607313E0B4F81900B0F5167F02DC71
:1009C000022060730BE00120607308E0B4F81900A6
:1009D0003C2802DB0120607301E004206073B4F85E
:1009E0001F000A2802DA0420E07222E0B4F81F0097
:1009F0000A2806DBB4F81F00142802DA0320E0728C
:100A000017E0B4F81F00142806DBB4F81F001E28F6
:100A100002DA0220E0720CE0B4F81F001E2806DBA8
:100A2000B4F81F00282802DA0120E07201E000205B
:100A3000E072B4F81900772805DAA078142802DCEF
:100A4000A0780C281EDAB4F81B000A2802DA042069
:100A500020731CE0B4F81B001E2802DA0320207368
:100A600015E0B4F81B00282802DA022020730EE0FB
:100A7000B4F81B003C2802DA0120207307E00020B4
:100A8000207304E00020A4F81B0002202073607A89
:100A900000EE100AF8EE400AB0EE001A80EE810A6D
:100AA000F6EE000A30EE200ADFED580A20EE200AAA
:100AB000A07A00EE900AF8EE600A9FED551A00EE5B
:100AC000810AE07A00EE900AF8EE600A9FED511A72
:100AD00000EE810A207B00EE900AF8EE600A9FED9E
:100AE0004D1A00EE810A607B00EE900AF8EE600A73
:100AF0009FED481A00EE810AF6EE000A30EE200A59
:100B0000BCEEC00A10EE100AE073607A012801DA28
:100B1000701C86B2207B012801DA701C86B2E07A54
:100B2000012801DA701C86B2012E13DB012084F843
:100B30002300012E02D184F824000AE0022E03D102
:100B4000022084F8240004E0032E02D1032084F85C
:100B50002400002694F82300F0B3002548E02E4836
:100B600030F815001E2841DD2C4830F815000F28FC
:100B70003CDD2B4830F81500401C1FFA80FA0AE0D3
:100B8000012009F80A000BF101001FFA80FB0AF1AD
:100B900001001FFA80FA224830F81500401C1E4957
:100BA00031F8151008445045EADCB8F10A0F19DA9B
:100BB0001B4830F81500401C81B204F1260000EB00
:100BC00048000180164830F81500401C124931F8E1
:100BD0001510084481B200E00CE004F13A0000EB8B
:100BE0004800018008F101001FFA80F8681CC5B2B6
:100BF000182DB4DBA4F84EB084F82580BDEC028B30
:100C0000BDE8F09F00000000ABAAAA3ECDCC0C3F8F
:100C10009A99993ECDCC4C3DD2C0002000C1002015
:100C20002EC100202DE9F04F93B00E469046DDE92D
:100C30001C95002400270020129010900F900E9019
:100C40000D900C900B90834682461E981190B9F13E
:100C50003C0F02DA13B0BDE8F08F1F98012805D1D0
:100C60002098A9EB000080B20B9001E00A200B90C5
:100C70000B9C80E0305D40091090305DC0F3400077
:100C80000F90305DC0F380000E90305D00F0010BDE
:100C9000BBF1000F6DD001271BE0E019305C40096B
:100CA0001090E019305CC0F340000F90E019305C08
:100CB000C0F380000E90E019305C00F0010BBBF136
:100CC000000F03D0E0191FFA80FA00E003E0781C5F
:100CD00087B21E2FE1DB00BFBAF1000F49D02878A0
:100CE00000282BDD3248007821182878401E022287
:100CF00002EB4000C0F1320038F81000081A022858
:100D000000DA3DE02A480078204481B228780122A8
:100D100002EB4000C0F1320028F81010244800789F
:100D2000504481B22878022202EB4000C0F1320028
:100D300028F810102878401C28701AE01C48007809
:100D4000204481B22878012202EB4000C0F1320039
:100D500028F8101016480078504481B228780222F2
:100D600002EB4000C0F1320028F810102878401C37
:100D70002870601C84B2A9F12300A0423FF77AAF2B
:100D800000BF0C480068C0780A4909688978C1EB3F
:100D9000011100EB81000A90002009900890079053
:100DA0000690142101A8FEF7DCFB00BF52E700000B
:100DB000FE2D00201C2E00202DE9F0410E000746DC
:100DC0004CD0587801280ED00D21254C0025B94271
:100DD000E0790DDC6179491CC9B26171A571052901
:100DE00027D310B125E00F21EFE70120E07120E0CB
:100DF000A179491CC9B2A1716571052919D3C0B186
:100E0000E571A0786178411A00D54942C9B20D2830
:100E10000CD3142909D8E0781149401CE0702571E1
:100E2000C91C304620F0EAFE00E0E570A078607052
:100E3000A570A078401CC0B2A0704B280ED3A5703E
:100E40006570E5712079401CC0B22071022805D37D
:100E50002571E570BDE8F04100F01CB8BDE8F081F7
:100E6000682C002010B50346002000BF0FE0A2F15F
:100E70000F04844200DD08E01C5C012C02D00C5CF5
:100E8000032C01D101240C5400BF441CA0B2904299
:100E9000EDDB10BD05480021816241708170C17099
:100EA000017141718171C17101707047682C00201E
:100EB0002DE9F84304460D46164640F69931184888
:100EC0000068FEF74EFB174800781549096808725C
:100ED00015484078124909684870134880781049CD
:100EE000096888701048C0780D490968C8700E48B4
:100EF00000780B49096808700C4806700027B8464E
:100F000000200090A8468DF80000ADF80140414651
:100F1000009800F075F807463846BDE8F8830000F1
:100F20001C2E0020202E0020212E0020012E00202B
:100F300070B504460D46B5B140F699310A480068CF
:100F4000FEF70FFB09480078074909680872064850
:100F50000068007A012804D1611E88B200F00AFA04
:100F600001E02EF097FA70BD1C2E0020202E0020EC
:100F700071B58DB000250024002634216846FEF7A7
:100F8000F0FA002269460D982AF030FD0446052C3F
:100F900001D0032C02D120460EB070BD9DF8040094
:100FA000032800D103269DF80400042800D104265C
:100FB0009DF80400062800D106269DF804000728A5
:100FC00000D107269DF80400022816D1012511E062
:100FD0002A4669460D982AF009FD04460CB12046C0
:100FE000DAE79DF804001E2802DD00263046D3E72C
:100FF000681CC5B2062DEBDB02263046CCE70000AC
:101000002DE9F34F8FB00F4600250024A24600269D
:10101000A346A046A146342102A8FEF7A2FA00206A
:101020000190002202A90F982AF0E0FC0446052C4A
:1010300001D0032C03D1204611B0BDE8F08F0F98EA
:10104000FFF796FF06469F480068007A01284FD1B7
:10105000012F1AD19DF808009A49096808719DF876
:1010600009109848006841719DF80A109548006879
:1010700081719DF80B1093480068C1710F982CF096
:101080002DFD03208F490968087231460F982EF014
:10109000F3F804468C480078002828D19DF80A000F
:1010A0001028FAD19DF80B000028F6D18548006879
:1010B000007A03281BD003208249096808729DF832
:1010C00008008049096808719DF809107D4800688A
:1010D00041719DF80A107B48006881719DF80B10E2
:1010E00078480068C1710F982CF0F8FC3524E6E0D0
:1010F000022E6EDA7448007830B1042449460F9805
:101100002AF002FB0446DAE09DF80A00032806D123
:101110009DF80B0018B90F9800F06AF9CFE09DF820
:101120000A0003280BDA4FF0000949460F982AF00D
:10113000EBFA0446252CDADA2EF0ACF9BFE09DF884
:101140000A0007280BDA4FF0010949460F982AF0E8
:10115000DBFA0446252CCADA2EF09CF9AFE09DF8A4
:101160000A000A2816DA4FF0020949460F982AF0B9
:10117000CBFA0446252C01DA2EF08CF99DF80A00F2
:101180000928B4D19DF80B001E28B0DD2EF082F99D
:10119000204651E79DF80A001428A8DB9DF80A00B4
:1011A00016285FDB0F982AF05BFB48480078002880
:1011B00028DD46490978491E48B220E0444901EB40
:1011C00080018978434A9278914203DD4FF001080B
:1011D00017E053E03E4901EB800189783D4A92785F
:1011E00091420AD13A4901EB8001C978394AD27853
:1011F000914202DD4FF0010803E0411E48B2002891
:10120000DCDA00BFB8F1010F1FD1272401202D49DE
:10121000096808722E4810F825002A4909680870E4
:101220002B4800EB8500407826490968487028481B
:1012300000EB85008078234909688870244800EB1A
:101240008500C0781F490968C87060212048FEF7F2
:1012500088F900201D4908701A480068007A08B112
:101260002046E9E64FF0000949460F982AF04CFA6B
:101270000446252C23DA2EF00DF920E0022E1EDB89
:10128000042E0ED19DF80800124908709DF809003F
:1012900048709DF80A0088709DF80B00C870012402
:1012A0000DE09DF808000B4908709DF80900487092
:1012B0009DF80A0088709DF80B00C8700124204634
:1012C000BAE600001C2E0020012E0020FC2D00207C
:1012D000BCC100200C2E002010B5044640F6993108
:1012E00016480068FEF73DF91548002101601548D1
:1012F0000160154801601E211448FEF732F91448B8
:10130000002101601348046000201349087013494C
:1013100008701349087013490880012012490870A9
:1013200000201249087028211148FEF71AF91048C8
:10133000006810B901200E49486010BD1C2E002025
:101340000C2E0020102E0020142E00209CC0002007
:10135000212E0020082E0020FE2D0020FF2D002031
:10136000002E0020022E0020012E0020202E002022
:1013700074C0002030B58FB00446002500200190D5
:10138000ADF80540342102A8FEF7EBF8002202A9CF
:1013900001982AF02BFB0546052D01D0032D02D123
:1013A00005200FB030BD34253420104909688873FA
:1013B00003200E49096808729DF808000B49096866
:1013C00008719DF809100948006841719DF80A10DC
:1013D0000648006881719DF80B1004480068C171CF
:1013E00001982CF07BFB0020DBE700001C2E002086
:1013F0002DE9F14FA0B00025002400201F90002609
:101400001E9000278046814682461D9083461C9090
:10141000182108A8FEF7A5F8182102A8FEF7A1F8E0
:10142000002001900C25F7E0002413E028198149E1
:1014300031F8100008A921F8140028197E4931F864
:10144000100002A921F8140028197C49085C0855ED
:10145000601C44B20C2CE9DB0B2472E07748005D81
:10146000022803DB7548005D052807DB7348005D33
:10147000062803D07148005D072802D14FF0010B08
:101480005DE008A830F814001E2805DC02A830F83A
:101490001400B0F58C7F01DD01201F9002A830F808
:1014A00014005A2808DB02A830F81400B0F58C7F2D
:1014B00002DC701CC6B204E0022E01DB01201E908B
:1014C000002602A830F81400962807DD02A830F89C
:1014D0001400B0F58C7F01DC781CC7B202A830F88C
:1014E0001400502808DD02A830F81400962803DC08
:1014F00008F1010000F0FF0802A830F8140050289D
:1015000003DA09F1010000F0FF0902A830F8140025
:10151000322803DA0AF1010000F0FF0A012C0EDB89
:1015200002A830F81410601E02AA32F81000084415
:1015300080B201900198FA2801DB01201D90601E05
:1015400044B2002C8ADABBF1010F01D12DF0A2FFC9
:101550001F98012856D01E98012853D01D980128A5
:1015600050D0022F4EDAB8F1030F4BDAB9F10A0F5F
:1015700048DBBAF1060F45DB34210FA8FDF7F1FF78
:1015800005F10C0082B20FA920982AF02FFA9DF8DD
:101590003C008DF838009DF83D008DF839009DF82D
:1015A0003E008DF83A009DF83F008DF83B0024493D
:1015B0000EA82DF079FF1C901C9818B3012021492A
:1015C000096808729DF83C001E49096808709DF87A
:1015D0003D001C49096848709DF83E00194909689A
:1015E00088709DF83F0017490968C870302111487C
:1015F000FDF7B7FF30211048FDF7B3FF584621B083
:10160000BDE8F08F00201F901E901D90002780469F
:1016100081468246681E45B2002DBFF605AF3021D7
:101620000448FDF79EFF30210348FDF79AFF584616
:10163000E5E700005CC100208CC10020BAC000209A
:101640000C2E00201C2E002030B5C17849063ED15A
:101650002049B0F8053009680A88934235D306D18D
:10166000B0F803408D78C4F3C314AC422DD3934239
:101670000BD1B0F803408D78C4F3C314AC4204D14D
:10168000CC780579B4EBD50F1FD893421FD1B0F8B1
:1016900003208B78C2F3C3129A4218D1CA78037917
:1016A000B2EBD30F13D1B0F801208078C2F344120B
:1016B000C2EB0212920002EB90004A790979C1EB69
:1016C000011102EB8101884201D8012030BD0020C8
:1016D00030BD00001429002070B5334D42F28861FE
:1016E000324C28680958E1B390F82A08012811D132
:1016F00000231A461946E0693AF06EFF00231A46A5
:101700001946A06B3AF068FF286800F50050D0F841
:10171000880630B3286890F82A08022811D10023DF
:101720001A461946A0693AF057FF00231A4619468F
:10173000A06B3AF051FF286800F50050D0F88806F9
:1017400078B1286890F82A08032819D100231A468E
:101750001946E06B3AF040FF00231A461946A06B89
:1017600000E00DE03AF038FF00231A461946E06920
:101770003AF032FF00231A461946A06B3AF02CFFCC
:1017800000231A461946A06B3AF05AFE01280AD1E6
:1017900000231A461946A06B3AF01EFFE06CBDE824
:1017A00070403AF06BBB70BD9C2800205C3000207C
:1017B0003EB50020244D0090019002902868234CF3
:1017C00090F8BA00052812D300231A461946E06A99
:1017D0003AF002FF00231A461946A06B3AF0FCFECD
:1017E000E06C32F0BFFC10B1E06C3AF047FB2868C7
:1017F00090F8BE00192812D300231A461946A06A91
:101800003AF0EAFE00231A461946A06B3AF0E4FECD
:10181000E06C32F0A7FC10B1E06C3AF02FFB29F03D
:1018200089FD044668461EF06DFFA41E022C0AD8EE
:101830009DF80000032806D3286890F8E21A41F0CA
:10184000010180F8E21A3EBD9C2800205C30002097
:101850001FB50322002101203AF0D4FD584CE0606E
:1018600010B9042030F0B6FB0322002101203AF029
:10187000C9FDA06110B9042030F0ACFB03220021A7
:1018800001203AF0BFFDE06110B9042030F0A2FB66
:101890000322002101203AF0B5FD606210B9042056
:1018A00030F098FB0322002101203AF0ABFD2062CA
:1018B00010B9042030F08EFB0322002101203AF001
:1018C000A1FDA06210B9042030F084FB03220021A6
:1018D00001203AF097FDE06210B9042030F07AFB65
:1018E0000322002101203AF08DFD206310B904206D
:1018F00030F070FB0322002101203AF083FD606389
:1019000010B9042030F066FB0322002101203AF0D8
:1019100079FDE06310B9042030F05CFB0322002164
:1019200001203AF06FFD206410B9042030F052FB22
:101930000322002101203AF065FD606410B9042003
:1019400030F048FB0322002101203AF05BFDA06447
:1019500010B9042030F03EFB00210D203AF048FD84
:10196000A06310B9042030F035FB26F0B9F80EF072
:10197000F1FC00F087FA00F087FE114902220020F6
:1019800000924C31CDE90110034603904FF4B06250
:101990000CA10F483AF01AFF012802D0042030F0C1
:1019A00019FB00231A461946606B3AF015FEA06B2E
:1019B00004B00023BDE810401A4619463AF00CBEA8
:1019C0005C300020416C676F726974686D000000C4
:1019D0008D1B020010B50C4C00231A461946206CD2
:1019E0003AF0FAFD00231A461946A06B3AF0F4FDCE
:1019F000E06C32F0B7FB002804D0E06CBDE810408A
:101A00003AF03CBA10BD00005C3000202DE9F047F0
:101A1000594B06461446187059709A7058790D46FD
:101A20004FF0000A0A2802D2401C587103E0D8780F
:101A300040B183F805A0DFF84481514F4FF005090C
:101A40006CB132E0BFF34F8F4E4801684E4A01F44B
:101A5000E06111430160BFF34F8F00BFFDE73868BD
:101A600090F8B200C00720D000231A461946D8F8D3
:101A70000C003AF0B1FD00231A461946D8F8380098
:101A80003AF0AAFDB5FBF9F109FB115068B9002342
:101A90001A461946D8F830003AF09EFD00231A463F
:101AA0001946D8F838003AF097FD04F0E9F858BB29
:101AB000B5FBF9F109FB115008BB142C1FD1386894
:101AC00090F8B200C00721D000231A461946D8F872
:101AD00024003AF081FD00231A461946D8F8380050
:101AE0003AF07AFD0A20B5FBF0F100FB1150052811
:101AF00001D0082E03D23968012081F8E30A386842
:101B000090F8B200C00701D020F07EF900231A46F9
:101B10001946D8F844003AF05FFD00231A461946EA
:101B2000D8F838003AF058FDD8F84C003AF0A6F949
:101B300017F0CEFA0620B4FBF0F100FB114060B9BB
:101B4000386880F8246880F8255880F8264880F89E
:101B500027A880F828A880F829A8386890F8B2103B
:101B6000890706D500F50050D0F8D417491CC0F8F5
:101B7000D417BDE8F0870000382800205C30002032
:101B80009C2800200CED00E00400FA0526F04AF93C
:101B900026F04AF926F047F99D489E4D0126006837
:101BA0004FF0070A4FF008080179297041796970F0
:101BB0008079A8704FF009094FF00A0B0027964C66
:101BC00000231A461946A06C3AF03AFC012807D1C6
:101BD00000231A461946A06B3AF032FC25F08AFF22
:101BE00000231A461946606C3AF02AFC012817D1E6
:101BF00000231A461946A06B3AF022FC00F0ACFC18
:101C0000A87848B98548006890F8B200C00703D0AA
:101C100000F006F900F038FD1EF0F8FF00F056F96C
:101C200000232E711A461946E06A3AF009FC012891
:101C300007D100231A461946A06B3AF001FC00F0C8
:101C40001BFC002385F804A01A461946206A3AF0C6
:101C5000F7FB012807D100231A461946A06B3AF07A
:101C6000EFFB01F0A5F8002385F804801A46194619
:101C7000606A3AF0E5FB012807D100231A461946AD
:101C8000A06B3AF0DDFB00F099FC002385F804908E
:101C90001A461946E0693AF0D3FB012807D1002320
:101CA0001A461946A06B3AF0CBFB00F0C1FD0023A9
:101CB00085F804B01A461946A0693AF0C1FB01281C
:101CC00007D100231A461946A06B3AF0B9FB00F081
:101CD0007BFA0B20002328711A461946A06A3AF0B5
:101CE000AFFB012807D100231A461946A06B3AF032
:101CF000A7FB00F059FD0C20002328711A46194655
:101D0000206B3AF09DFB01280AD100231A461946A0
:101D1000A06B3AF095FB03F0B3FF60B129F082FCB1
:101D20000D20002328711A461946606B3AF088FB93
:101D3000012809D012E003F09DFF10B125F030FF1B
:101D4000EEE725F0D7FEEBE700231A461946A06B15
:101D50003AF076FBEE7026F0B5F8EF700E20002317
:101D600028711A461946E0683AF06AFB012807D143
:101D700000231A461946A06B3AF062FB00F060FFA0
:101D80000F20002328711A461946E06B3AF058FBE1
:101D9000012807D100231A461946A06B3AF050FBE0
:101DA00000F0A2F91020002328711A461946206C71
:101DB0003AF046FB012807D100231A461946A06BCA
:101DC0003AF03EFB00F092FC1120287104F0D6F8A6
:101DD000808AA0F57F41FF3908D01048006890F84C
:101DE000B200C00702D009F035F908B102F0D0FE08
:101DF0001220002328711A461946A06B3AF020FBE6
:101E000018B92F71E06C3AF0A9F86F71D7E60000AD
:101E100014290020382800205C3000209C28002055
:101E20001648174900684A78097890F8403093427C
:101E300007D190F83F308B4203D190F84130012B0D
:101E400017D090F84330934207D190F842308B423C
:101E500003D190F84430012B0BD090F846309342D8
:101E60000AD190F845208A4206D190F8470001280F
:101E700002D1052016F0F4BD704700003C29002077
:101E80003828002070B5104D002400BF2868C4EB2E
:101E9000C406304490F83F108A0710D5C9070ED009
:101EA00090F8421049060AD13F30FFF7CDFB30B120
:101EB0002868304410F83F1F21F001010170641CB4
:101EC000E4B2142CE2D370BD3C2900202DE9F84384
:101ED0000025ADF800506946284635F0C3F9BDF835
:101EE000001040F61A4278207D4C914204D22179AC
:101EF000491C2171607107E040F62C42914207D2E3
:101F000025716179491C6171A571E57125721EE029
:101F100040F67942914205D225716571A179491C3B
:101F2000A171F2E7B1F54B6F06D225716571A5710C
:101F3000E179491CE171E9E72571657140F62952A3
:101F4000A5719142E57104D2217A491C2172657212
:101F500003E02572617A491C6172618811B9A17A26
:101F600001B9A5712179782901D320716580617942
:101F7000782901D360716580A1790126782901D380
:101F8000A0716680E1794FF00209782902D3E071EF
:101F9000A4F80290217A782902D32072032161806B
:101FA000617A782902D36072042060800E2035F0B7
:101FB0002FFCDFF82C814B4FA8F1040818B90D2035
:101FC00035F026FC20B10E2035F022FCE0B120E0F7
:101FD00098F8020040B9386890F8B200C00703D101
:101FE00003F0D0FF88F8026098F80100022805D0BD
:101FF00016F040FEA67288F8016001E016F0E4FDDC
:1020000003201EF089FB22E00D2035F001FC0128A1
:1020100008D088F801504646A57229F08BF90628A9
:102020001FD020E088F8019098F8020040B9386885
:1020300090F8B200C00703D103F0A4FF88F8026053
:1020400016F0C2FD03201EF067FB84F80A900620FC
:1020500029F064FA3868456000F5005080F8D867C8
:102060000CE029F047FAB078012806D1386890F8DA
:10207000B200C00701D103F067FFB570386890F86F
:10208000B30000070DD403F007FE28B1386810F83C
:10209000B31F41F008010170386890F8B3000007E1
:1020A0001BD5A07A48B103F003FE386890F8B3005E
:1020B000000712D5A07A00280FD1386890F8B20036
:1020C000C0070AD016F06CFE0D2806D016F068FE88
:1020D000132802D00D2016F0C3FCBDE8F8830000E1
:1020E000A42800209C280020F0B58DB0242168464B
:1020F000FDF737FA0020324E09900A900B90314DCF
:10210000306800F67800286116F08EFB044609A8B6
:102110001EF0F8FA28690178CA0709D021F00101F8
:1021200000F8011B40F23711FDF71BFA05F026FA03
:1021300028690078C0F3C0008DF801001FF05EFE32
:102140008DF802009DF824008DF800000EF08CF848
:1021500007460EF0FBF86A46394605F045F994F853
:102160006F0001280BD1306890F87808000706D47A
:102170002869017841F0110101700DB0F0BD2869A6
:1021800094F8261080F83311218DA0F83411618D58
:10219000A0F83611684624F06DF82178A1F13300DB
:1021A0003028EAD828694170B0F82E11B1F5967F31
:1021B000E3D2831C24784A1CA0F82E21CC54DCE7FF
:1021C0009C280020382800202DE9F04391B00025FC
:1021D00000950195182103A80295FDF7C2F9202169
:1021E00009A8FDF7BEF9A24FA24EA9463C6894F893
:1021F000440804F64404C10710D020F00100207008
:102200003868332100F64500FDF7ABF911F0E0FA2C
:10221000F571317A491C31727572B5726078C107F7
:1022200003D020F001006070F571F0794FF00108E3
:10223000401CF07168461EF065FA2846F17968F393
:10224000070061F30F20B17A61F3174065F31F6057
:102250008046484665F3070081460DF09BFF4B46DC
:102260004246694611F012FA03A811F047FE307A8F
:10227000A0739DF80C00A0F11E01DC2901D8A0700C
:1022800000E0A5709DF80D00A0F11E01DC2900D82A
:10229000E0709DF80E00D22800D9FF2020719DF833
:1022A0000F00A0F11E01B42900D860719DF8100044
:1022B000A0F11E01B42900D8A0719DF81100E071B1
:1022C0009DF81200322800D820729DF813003228A1
:1022D00000D86072BDF81600A081F07920612078E6
:1022E000800702D56069401C60619DF81C00A072E7
:1022F0009DF81C10B172012806D0E57238680521DE
:1023000090F8262832B126E0E07AC828F6D2401CA0
:10231000E072F3E790F82828531C80F82838022A46
:1023200019D290F825282AB1521E92FBF1F301FB35
:10233000132200E004229DF80D30A3F11E05DC2DD0
:1023400002D8851885F80C379DF81330322B02D847
:10235000024482F8113790F826284FF00608B2FBA5
:10236000F8F308FB13230125ABBB90F828C80CF148
:10237000010380F82838BCF1020F2CD23AB1521E6A
:1023800092FBF8F390F82528B2FBF1FC09E090F8F5
:1023900025C80923BCF1010292FBF1F804D392FB9A
:1023A000F1FC01FB1C2100E004219DF81020A2F1AA
:1023B0001E0CBCF1B40F06D801EB810C03EB4C03EF
:1023C000184480F817273A6805FA01F192F81607C1
:1023D000084382F8160709A811F08AFDE07B30BB9C
:1023E0009DF82410022922D19DF828102176DDF8CD
:1023F0002910C4F81910DDF82D10C4F81D109DF82F
:10240000311084F821109DF8321084F822109DF8C4
:10241000331084F82310BDF83410A1840E99C4F849
:1024200026100F99C4F82A101099C4F82E10717A4A
:1024300000299DF8241002D002290BD011E00229B6
:102440000FD1396891F82A18022903D12178490758
:1024500000D5757218B99DF8150084F833001E2058
:10246000E0739DF8150084F8320011B0BDE8F083E8
:102470009C280020382800202DE9F843324F334EA5
:102480004FF001083C68DFF8C89094F8BA50B634B1
:1024900056E000BF0EF022F83068817E09B10A29AB
:1024A00001D305218176C8B2009004F59B7304F135
:1024B000D20204F16E0104F10A0015F003FE15F0DA
:1024C00079FE052801D006282CD13068417E0129EB
:1024D00021D12049C37E0968C3EB03134A790979E6
:1024E000C1EB011102EB8101027F02EB8302837FCA
:1024F000407FC0EB001003EB8000824202D88A428A
:1025000002D908E0914201D2814204D889F80C80B6
:10251000022016F0A5FA16F043FC0B2802D1396808
:1025200081F8028015F03AFE40B199F80C1029B1FB
:10253000002189F80C10032016F092FA6D1FEDB2FD
:10254000042DA7D8BDE8F8839C2800203C29002052
:10255000382800201429002010B503F091FB164CF8
:1025600070B1216891F83600020701D4420706D500
:1025700020F00C0081F836000020C1F83B0010BDAF
:10258000206890F836100A0701D44907F7D5D0F82B
:102590003B1019B1491EC0F83B1010BD102016F0B9
:1025A000DBFB112016F05CFA216811F8360F20F0E1
:1025B0000E00087010BD00003C29002030B5A1B00D
:1025C0002C210AA8FCF7CDFF2D4C216891F8E20AD6
:1025D000C20705D020F0010081F8E20A28F08AFF46
:1025E0002068052100F2F27002F02CFB0146206801
:1025F000C0F8E71A052100F5FD6002F023FB216811
:102600000246C1F8EB0AD1F8E71A15A828F098FE9F
:102610002C2215A90AA8FCF78BFF1A480EA94FF027
:102620000005006890F82700C20622684FF00B00F2
:1026300007D492F8E63A92F8E42A0990CDE9072304
:1026400004E092F8E62ACDE9082007951C226846A6
:10265000FCF76EFF0DF1280C9CE80F0028F0ECFE53
:10266000206890F8E31A012903D180F8E35A80F832
:10267000E45A28F05FFE216881F8E50A21B030BDF8
:102680009C2800203C290020164830B4006841797D
:102690000079C0EB001001EB80011348006890F84E
:1026A000303090F83120C3EB031302EB830290F833
:1026B000324090F83330C4EB041403EB84039A42A5
:1026C0000AD88A420AD902E090F8340001E090F872
:1026D000350030BC0DF006BD9142F5D29942F6D8D6
:1026E000F2E70000142900203C29002030B589B011
:1026F00014216846FCF735FF0025059506950795DA
:102700001FF0A2F8264C206800F67A01059188395E
:102710000691B0F8A60940F22D11B0FBF1F201FBD1
:102720001200ADF81C00694605A81EF043FF2068A2
:102730009DF8071080F855179DF8051080F856177A
:102740009DF8081080F857179DF8001080F8501772
:102750009DF8011080F851179DF8021080F852176B
:102760009DF8031080F853179DF8041080F8541753
:102770009DF8060001280CD10A48006890F8CF1097
:10278000012906D190F82700400702D5092016F04C
:1027900067F92068A0F8DD5AA0F8A65909B030BD45
:1027A0009C2800203C2900202DE9F04389B0002618
:1027B0001B4804960596019602960396194C04ADA3
:1027C000DFF86480194FD0F8009013E02A1DA91C8F
:1027D00004A80DF039FF98F800000090E17A4B460C
:1027E000481CE072082204A81FF04EFAE07A19286B
:1027F00000D3E672386890F8BE000028E6D101A840
:102800001DF080FF16F00AF9012805D19DF804009B
:10281000002801D003F03AFA09B0BDE8F0830000C7
:1028200058CD050038280020172800209C280020BB
:102830002DE9F04F8BB04FF0000AFC4ECDF820A0F0
:10284000CDF824A0CDF828A03468DFF8E4B32746FB
:1028500094F82F08F74DC10704F62F0407F51B67FE
:1028600018D020F0010020703068142100F50360BA
:10287000FCF777FEC5F814A021F0E8FF60780A2184
:1028800040F001006070EC48FCF76BFEDBF80000E4
:102890008079A8716078DFF89C83DFF8A093C10786
:1028A00008F10D081CD020F0010060702078C006EF
:1028B00005D5306800F5005090F8891703E0D9F885
:1028C000000090F8241088F80010D9F8000010F8E3
:1028D000222F88F80120407888F8020084F802A0AE
:1028E00008A81DF00FFF6869401C6861B0F5967F6D
:1028F00001D928206861A8790A21B0FBF1F201FB17
:102900001202092A08D1DBF800209279B2FBF1F318
:1029100001FB132101292AD0DBF800008079A8717E
:102920000DF0A2FC06900DF061FCC249C14B0DF107
:10293000200C4D691C33CDE90283CDE9005C8B7915
:102940000022069921F088FE15F072FF0546807C72
:102950006072BA48006890F82700C00620D430683A
:1029600090F82A08012809D0032807D018E03C2154
:10297000401CB0FBF1F201FB1200D0E7DFF8B88297
:10298000002308F10C081A461946D8F8200039F03F
:1029900023FE00231A461946D8F8380039F01CFEE9
:1029A000306890F8780881077DD440077BD4687A36
:1029B000A0F11E01962900D82071A87AA0F11E016D
:1029C000962900D86071E87AD22800D8A071287CB6
:1029D000A0F11E01B42900D8E071687CA0F11E01AD
:1029E000B42900D82072DFF84C92D9F81400C4F84A
:1029F00011002078C10601D4800604D5A078C8282B
:102A000001D2401CA070A878A072A87801280BD130
:102A1000E878E0722879207368796073A879A073E8
:102A2000E879E073287A20743068052190F8262828
:102A30008ABB90F825282AB1521E92FBF1F301FBC4
:102A4000132300E00423C21895F800C082F800C7E1
:102A500095F8018090F805C708F0010808FA03F816
:102A60004CEA080C80F805C790F806375B1C80F824
:102A70000637AB7AA3F11E0CBCF1960F01D882F891
:102A80000737EB68642B01DC82F84B372B7D322B48
:102A900001D882F8113790F826280623B2FBF3FC00
:102AA00003FB1C2C00E0BEE0BCF1000F25D14AB1B5
:102AB000521E92FBF3F390F82528B2FBF1FC01FBC8
:102AC0001C210DE090F825280923B2F1010C9CFB94
:102AD000F1F804D39CFBF1F201FB12C100E00421E8
:102AE0006A7CA2F11E0CBCF1B40F06D801EB810187
:102AF00003EB4101084480F81727DFF84081D8F83C
:102B0000002092F8260081062DD5A87801280CD146
:102B1000E07B50B1217C41B12178C90605D43168F0
:102B200081F84907207C81F84A0792F826000006C0
:102B300048D42078810745D4C10643D4410741D405
:102B400080063FD41EF01AF801283BD0D9F81400B3
:102B50001E2837D9306890F87808000732D4102042
:102B600026F08EFE2EE0C2062CD500062AD4207850
:102B700081071BD4C10619D4410717D4800615D488
:102B80001DF0FCFF01280BD0D9F81400142807D938
:102B9000306890F87808000702D4102026F070FE04
:102BA000D8F8000090F8260000060BD4D9F81400DD
:102BB000142807D9A87AA0F11E01962902D83168F5
:102BC00081F807073878C10705D020F00100387078
:102BD000A7F82DA104E0B7F82D01B0F5967F07D234
:102BE000B7F82D017A1CEB7C411CA7F82D118354FA
:102BF000D8F8000090F82600000614D5306890F848
:102C0000260800280FD1DBF80000807900280AD1BF
:102C10002078810707D4C10605D4410703D4800674
:102C200001D41DF0ABFF0BB0BDE8F08F9C28002055
:102C30001429002038280020503000203C29002092
:102C4000FEB50025009501956846029515F08AFEAF
:102C5000544C0526206890F8D117491CB1FBF6F2B8
:102C600006FB121180F8D117009BD0F8D8279342A9
:102C700005D900EB41019A1AA1F8E82703E000EB1F
:102C80004101A1F8E85700F612011222881EFCF754
:102C90004FFC206890F8D11700EB4101B1F8E8270C
:102CA000A0F82228029BD0F8DC27934203D99A1A75
:102CB000A1F8FC2701E0A1F8FC57019AD0F8E01731
:102CC00064278A4209D9511AB1FBF7F190F8D1274C
:102CD00000EB4200A0F8061805E090F8D11700EBD1
:102CE0004100A0F806582CF0E7FE2168D1F8E4274F
:102CF00090420DD32CF0E0FE2168D1F8E427801A31
:102D000091F8D127000B01EB4201A1F8F20705E091
:102D100091F8D10701EB4000A0F8F2572068009924
:102D20006422C0F8D8170299C0F8DC170199B1FBEA
:102D3000F7F15143C0F8E0172CF0BEFE2168FF23E5
:102D4000C1F8E40791F8D10701EB4002B2F8E807B7
:102D5000FF2802D981F8D23701E081F8D207B2F812
:102D6000F207FF2802D981F8D33701E081F8D307B1
:102D70000D48006890F8CF00012812D10B48006878
:102D80000279072A03D30CD14279052A09D2407966
:102D9000B0FBF6F206FB1200084491F8D31780F856
:102DA000CA17FEBD9C2800203C29002014290020C1
:102DB00070B5284D4FF00004286890F8DF1ACA0754
:102DC00009D021F0010180F8DF1A80F8E14A80F88B
:102DD000E04A80F8E34A90F83808012833D11DF022
:102DE000CDFE01282FD0286890F8B21049072AD4C8
:102DF00090F8E01A491CC9B280F8E01A052927D9D1
:102E0000012180F8E11A80F8E41A90F82A180129C3
:102E100010D003291CD180F82C4890F8781821F0A4
:102E20000C0180F8781800BF80F82A48BDE870408F
:102E300003F0B2BA80F82C4890F82F1821F00C015A
:102E400080F82F18F0E7286880F8E14A80F8E04A17
:102E500070BD00009C28002030B502464FF6FF7080
:102E6000002309E0C4B2157884EA0503521C054C1E
:102E700034F8134084EA10200C1EA1F10105A9B218
:102E8000F0D130BD14E8050010B514210648FCF758
:102E900068FB064800219FED060A816380ED0F0A5A
:102EA00080ED100A10BD00005CBE0020682C0020E0
:102EB000000000000148806B70470000682C002073
:102EC00070B50A46002405462146032A00D1032195
:102ED000154A0846135C33B12E18401CC0B2F3707B
:102EE0002028F7D30CE0401A0404240C08D0214613
:102EF000E81C13F0F9FF2A183A21401CD17084B263
:102F000015F080FC0246A018E62802D9C4F1E600BC
:102F100082B2A018687028190349BDE870402031BA
:102F2000C01CFCF705BB00001C6500202DE9F04724
:102F30000C46804601460025204615F027FD064632
:102F4000801EDFF8CC9016281FD240460FF04AFFB3
:102F5000074620460FF046FF874216D901251DF08F
:102F600045FE08B11DF022FC98F80300E178884284
:102F700008D00024204621F0C2FD641CE4B2032CDA
:102F8000F8D339E099F830012BE0182E0ED31DF05C
:102F90002DFE08B11DF00AFC01250024204621F079
:102FA000AEFD641CE4B2032CF8D325E098F80300CE
:102FB000E178884228D01DF019FE08B11DF0F6FB1B
:102FC00098F80300E178012588420DD299F8301174
:102FD0000322491CB1FBF2F302FB131189F83011F3
:102FE000084621F08CFD07E00024204621F087FDF3
:102FF000641CE4B2032CF8D30022114610461EF0E4
:10300000EBFD044821F0A8FD2846BDE8F08700004C
:10301000285E00205D5F00202DE9F0418EB00E4655
:10302000044600258DF82C502C216846FCF799FAAF
:103030000C950D950CAD6B4600220BA9204600F0B7
:1030400003FB9DF82C10B14249D3022947D36E46A9
:1030500006EB8100082250F8041C40F6F87000EBE3
:103060000437C819294600F0B8FC0020C0F104015B
:103070006A5CA62A03D129444978022907D0401C5A
:10308000C0B20428F2D300244FF496680BE0C0F1DC
:10309000040028440121C170F5E7012038F038FE12
:1030A000641C44451BD89DF82C00082206EB8000C8
:1030B000294650F8040C384412F08EFF0028ECD05A
:1030C0004FEA080512F078FF18B100200EB0BDE8F5
:1030D000F081012038F01CFE641CAC42F2D90120C2
:1030E000F4E7000010B501214FF4E42013F056FB83
:1030F000234CE08801F0B4FB608901F0ADFC04F1E1
:10310000150001F06DFC94F8212094F82010E07F68
:1031100000B1012001F0EEFB1948193001F0BCFCB0
:103120001748263001F0BAFB1548283001F02CFC76
:1031300013482A3001F074FC1148303001F06AFB6A
:103140000F48223001F01AFB94F8250001F0BCFB77
:103150000B483F3021F08CFE0948363001F0E4FB8B
:103160000748CB3001F02CFB607801F0DBFCA08835
:1031700001F020FC94F86B0101F0BAFC002010BDB6
:10318000285E002010B5044804460FF09CFE20463F
:10319000BDE810400FF0C0BEF85E002070B5074CCF
:1031A00001214FF4E42014F8255F13F0F7FA00F042
:1031B000B5F82570FFF796FF002070BD285E00204F
:1031C00070B5184D0020E8800A202881002408E00E
:1031D00001F0DEFCA8792044C0B212F06FF8641C44
:1031E000E4B22889401C8442F2D30F4821F016FE35
:1031F0000D48001D21F0B0FC0B48401E21F000FCE2
:103200000948313021F0F7FC0848006800F500500B
:1032100090F8C81641F0010180F8C81612F0D2F9F2
:10322000002070BD30290020595F00209C2800201C
:1032300070B5164D032695F8304105F59875601C5C
:10324000B0FBF6F106FB110021F059FC2878401C78
:10325000B0FBF6F106FB110028700D4821F07CFC54
:10326000B4FBF6F006FB10400A4C42F2CC72216827
:10327000114421F0ACFB2068002100F51E50C16410
:10328000016541658165084670BD0000285E00202B
:103290005D5F00209C2800202DE9F041124F0221A3
:1032A0004FF4E22097F8256013F078FA0F4C0020D5
:1032B00060800A20A080002509E000BF01F068FCC2
:1032C000A0782844C0B211F0F9FF6D1CEDB2A088BF
:1032D000401C8542F2D300F021F887F82560FFF703
:1032E00001FF0020BDE8F081285E00203029002089
:1032F0001CB500200090019013F064FA684600F0BD
:1033000093FB30B126F078FDFFF73CFF00F006F8A4
:103310001CBD0821684626F0F9FCF5E710B54FF40E
:10332000B6713B48FCF71DF93948D0300FF0CBFDA2
:103330000FF07CFD0FF0DDFD354C84F869010FF0D6
:10334000AFFD84F86A0104F1080021F044FDA01DDE
:1033500001F00AF804F10A0001F06AF904F115001D
:1033600001F010F904F12102511E481E01F06AF823
:1033700004F1190001F086F904F1260001F016F8B5
:1033800004F1280001F0C0F804F12A0001F028F946
:1033900004F1300000F0B2FF04F1220000F052FF0F
:1033A00004F1250001F02CF804F13F0021F0CFFCDE
:1033B00004F1360001F076F804F1CB0000F06CFF68
:1033C000601C01F0BDF9201D01F0C0F804F23110BD
:1033D00021F024FD04F2351021F0BEFB04F59870B5
:1033E00021F00EFB04F26B1001F08AF904F5B170C4
:1033F00021F001FC0748006800F5005090F8C8165D
:1034000041F0010180F8C816BDE8104012F0DAB8AA
:10341000285E00209C2800203EB50021224D4FF65A
:10342000FF70009101910C46CDF80810EA68C4EBDA
:10343000C401114411F83F2F920730D5621C8DF85A
:10344000002031F8012FC2F344128DF801204A7890
:1034500092088DF8022011F8012C02F001028DF87B
:1034600003208A7802F07F028DF804200A7802F0A7
:103470001F028DF805200A798DF806208A88120A25
:103480008DF807204A88C2F3C3128DF80820C97846
:103490000A22C9088DF8091069460CF09BFB641CD0
:1034A000E4B2142CC2D33EBD302900202DE9F041F6
:1034B0000E46074600244FF4966505E0012038F0DB
:1034C00027FC641CAC4211D818223146384612F051
:1034D0009FF90028F2D005E0012038F019FC641CA7
:1034E000AC4203D812F084F90028F5D0BDE8F08191
:1034F00070B58EB00D46064600248DF82C402C2168
:103500006846FCF72EF80C940D940CAC6B46002228
:103510000BA9304600F098F89DF82C00854218D889
:103520005DF8250040F6F87101EB063108440822E9
:10353000214600F052FA0020C0F10401625CA62A84
:1035400003D121444978022906D0401CC0B2042886
:10355000F2D300200EB070BDC0F104002044C0784A
:103560000128F6D1F6E72DE9FF5F002588460746DA
:103570002C46009501950295032847D2002A45D094
:1035800060204FF0000B4FF0020AD946039004EB85
:10359000073606F580500422694600F01EFA00281E
:1035A00034D19DF80000A1282BD103986D1C304424
:1035B000EDB2082201A900F5805000F00EFA0028B3
:1035C00024D101A9BBF8002011F80A00024401EB44
:1035D0000A00407802EB0020ABF800009DF80210D2
:1035E0009DF8010004EB01214418A00702D0A008B7
:1035F0008400241D09F1010000F0FF09B9F10A0F50
:10360000C5D3B8F1000F01D088F80050BDE8FF9F86
:103610007FB5154600221C46009201920292039249
:1036200003280DD201EB00301022694600F58050CE
:1036300000F0D3F920B9224669462846FBF778FF07
:1036400004B0002070BD00002DE9F84F00250746AA
:103650009946924688462C4628460095032F3CD230
:103660000026C9F8000000BF04EB073004226946B9
:1036700000F5805000F0B1F900282ED19DF800002F
:10368000A12825D19DF802106D1C9DF8010004EBC6
:1036900001214418EDB2A00702D0A0088400241D27
:1036A000B9F1000F03D00A2D01D249F82540BAF133
:1036B000000F09D09DF801009DF8021000EB0120D9
:1036C0000AEB450121F8020C761CF6B20A2ECBD388
:1036D000B8F1000F01D088F80050BDE8F88F13460C
:1036E0000A460146002000F001B800002DE9FF4F16
:1036F0000025A1B09A4693468DF83450A8462F462F
:103700002E46142117A81F95FBF72BFF1095119536
:1037100017AC1295149515952C2101A81695FBF759
:1037200020FF87481C952095006820AA01788DF815
:1037300070100188090A8DF8711081788DF8721067
:10374000C0788DF8730001211CA827F0A4FD7D48E6
:10375000032101ABC06890F83001801CB0FBF1F28E
:1037600001FB1200814600220DA9FFF76DFF5CE00E
:1037700014212046FBF7F5FE01A841F20C0150F898
:10378000252001EB09301044142217A900F025F977
:1037900000287DD1D4F803001090D4F807001190D0
:1037A000012000900DF172030DF1820214A910A8FE
:1037B00024F03BFB78B3D4F807001490681CC1B226
:1037C0004846FFF795FE012825D001A817A950F813
:1037D000252041F21C0000EB09301044142200F0B7
:1037E000FCF8002871D1627B1F98217B00EB02203E
:1037F000084480B21F90617A207A07EB01210844C7
:1038000087B2E179A07906EB0121084486B2A0785D
:10381000404500D9804615B9D4F807001490219886
:1038200008B1119901606D1CEDB29DF8340085421C
:103830009ED3444801ABC06890F830110320B1FB1F
:10384000F0F200FB1210814600220DA9FFF7FCFEEA
:10385000002560E014212046FBF783FE01A841F219
:103860000C0150F8252001EB09301044142217A94F
:1038700000F0B3F860B9D4F803001090D4F8070052
:10388000119000200DF172030DF1820214A900E0E5
:103890001BE0009010A824F0C8FA90B3D4F80700F9
:1038A0001490681CC1B24846FFF722FE012828D0B8
:1038B00001A841F21C0150F8252001EB0930104409
:1038C000142217A900F089F818B1002025B0BDE82E
:1038D000F08F627B1F98217B00EB0220084480B2AE
:1038E0001F90617A207A07EB0121084487B2E179C1
:1038F000A07906EB0121084486B2A078404500D9A2
:10390000804615B9D4F807001490219808B1119990
:1039100001606D1CEDB29DF8340085429AD3229867
:1039200010B1229981F80080BBF1000F01D0ABF8F3
:103930000070BAF1000F01D0AAF800601F98C5E727
:103940001429002030290020074991F83021101A4D
:103950000322C01C90FBF2F302FB1300C0B201EB88
:103960008000D0F835017047285E0020034890F8A9
:103970006B01C11E1C2900D305207047285E002062
:103980000148407870470000285E00202DE9F04192
:1039900000248002174600EB01154FF4966605E0FF
:1039A000012038F0B5F9641CB4420DD82846102225
:1039B000394611F069FB0028F2D008E0012038F008
:1039C000A7F9641CB44202D90120BDE8F08111F0CE
:1039D0004BFB0028F2D00020F7E72DE9F041164616
:1039E0000F46804600244FF4966505E0012038F02C
:1039F0008FF9641CAC420DD832463946404612F06D
:103A0000BDFA0028F2D008E0012038F081F9641CEA
:103A1000AC4202D90120BDE8F08112F09FFA0028E3
:103A2000F2D00020F7E700002DE9FC410546002018
:103A3000009004464FF4E2264FF40077CDF80400DE
:103A400006EBC4010822684612F0CAFE0098401C2A
:103A500002D10198401C06D0641CA4B2BC42EFD332
:103A60000020BDE8FC815CB10648082200EBC401DF
:103A7000684612F0B5FE0098286001986860EFE78C
:103A80000520EEE7F80F070002460C4810B590F845
:103A900030110323B1FBF3F403FB141300F598700A
:103AA00000EB43041846B4F8291020F055FF002815
:103AB00003D134F8290F401C208010BD285E00205F
:103AC00010B5194C014694F8642104F59874104619
:103AD00020F068FF00281FD1A18E40F25510AA29BE
:103AE00001D2618E39B1618E491C89B2B1FBF0F20D
:103AF00000FB12116186A18E491C89B2B1FBF0F264
:103B000000FB1210A08640B1AA2805D10121084669
:103B100020F0DBFF0020608610BD0121002020F096
:103B2000D4FFAB20F7E70000285E00202DE9F0432A
:103B30008DB0074600200E468DF82C0015462C212E
:103B40006846FBF70EFD032F3CD2A6B3B00739D170
:103B5000A80737D16B4600220BA93846FFF774FD42
:103B60009DF82C1068465DF821104A194FF48051D9
:103B70008A4227D80024804601EB07374FF4966924
:103B800005E0012038F0C4F8641C4C451AD89DF8B3
:103B90002C102A4658F821003146384412F01CFAFD
:103BA0000028EED04FEA090512F006FA20B10020F5
:103BB0000DB0BDE8F08305E0012038F0A9F8641CE1
:103BC000AC42F1D90120F3E72DE9FC47054600207E
:103BD000184CDDF828A089460090019021891F46E5
:103BE00090464FF4E226B1F5007F04D320810121F5
:103BF000304612F0D3FD280A8DF800008DF80150F0
:103C00008DF802908DF804708DF803808DF805A072
:103C100020890222010A8DF806108DF8070006EBB4
:103C2000C000694612F0E8FD2089401C2081002078
:103C3000BDE8FC87285E00200321B0FBF1F201FB08
:103C40001200014908707047302900202DE9F04F1B
:103C5000054639480E46904601784FF00309B1FBFE
:103C6000F9F209FB1217A1B04FF0000B7C2101A85B
:103C7000FBF777FCA6F57F4001ACFF3800D10026AA
:103C800040F23310464502D9A6EB080110E0BF1CF4
:103C9000B7FBF9F209FB12772849A8EB060201EB02
:103CA0004701B1F85911914243DD8A19A2EB08018D
:103CB000491E91FBF0F200FB121000261FFA80F85B
:103CC000B1464FF4966A05E0012038F021F8761CE1
:103CD00056452ED87823224641463846CDF80090E6
:103CE00011F0B0FA0028EFD04FEA0A0711F09AFA63
:103CF000C8B120682860A088000A287120796871FE
:103D0000E088000AA871A079E871607B2872207BA6
:103D10006872D4F80E00C5F80A00608AE881584637
:103D200021B0BDE8F08F012037F0F2FF761CBE42D3
:103D3000DCD90520F4E7000030290020285E0020AF
:103D400010B50649827881F82420027801F8222FE4
:103D50004078487002F062F8002010BD285E002014
:103D600010B50549026841F84B2F0079087102F03F
:103D700055F8002010BD0000A85E0020034910B5D2
:103D8000C88002F04BF8002010BD0000285E002023
:103D900010B503490088C88402F040F8002010BD27
:103DA000285E002010B50649027801F81F2F4278DE
:103DB0004A708078887002F031F8002010BD000051
:103DC000285E002010B50649026841F8362F426887
:103DD0004A60007A087202F021F8002010BD00004D
:103DE000285E002010B503490088088502F016F807
:103DF000002010BD285E002010B505490268C1F8FA
:103E00002A208088C88502F009F8002010BD000033
:103E1000285E002010B50549026841F8192F8088F6
:103E2000888001F0FBFF002010BD0000285E00200C
:103E3000034910B581F86B0101F0F0FF002010BDBF
:103E4000285E0020034910B5487001F0E7FF00200C
:103E500010BD0000285E002010B5074A0068C2F8B7
:103E600015005089884201D00020D070518101F0A6
:103E7000D5FF002010BD0000285E0020074810B5C7
:103E80008178012907D141680122054832F0D4FB2D
:103E900008B12EF09FF8012010BD0000002A00207C
:103EA000606200202EF096B80148807870470000CC
:103EB000F02900200149887070470000F029002097
:103EC000014601482EF0AABF4063002010B50A4900
:103ED0000446808888804FF4D6710848FBF741FB80
:103EE000618806482EF0C0FF002803D0BDE81040CE
:103EF0002EF070B810BD0000F029002040630020B3
:103F0000007A01280BD10648C168082907D2054B61
:103F1000828823F81120491CC1600121417070473B
:103F2000F0290020EC64002008B50648002300902A
:103F30001A4640F2DC5104A038F06CFE0349886058
:103F400008BD00009941020053454300F0290020BC
:103F500070B581880F480289914202D14FF6FF71F6
:103F600001810D4C0025607880B10C48E16835F086
:103F7000FBFB08B12EF02EF80848E16835F000F898
:103F8000062802D008B12EF025F8657002481030DE
:103F9000857070BD60620020F0290020EC64002074
:103FA0001CB532482EF02CFF08B12EF013F8304922
:103FB000304863DF08B12EF00DF800200090014674
:103FC000019020232C4A2D482EF048FB08B12EF0FA
:103FD00001F820232A4A012128482EF03FFB08B18E
:103FE0002DF0F8FF2023274A022124482EF036FB2B
:103FF00008B12DF0EFFFE623234A03211F482EF0DE
:104000002DFB08B12DF0E6FF2023204A04211B4898
:104010002EF024FB08B12DF0DDFF20231C4A0521E2
:1040200016482EF01BFB08B12DF0D4FF2023194AAF
:10403000062112482EF012FB08B12DF0CBFF2023F1
:10404000154A07210D482EF009FB08B12DF0C2FFDB
:104050001248009012480190694608482EF026FB4D
:10406000002801D02DF0B6FF1CBD00003D3D05002D
:10407000F0290020F8E40500FC64002060620020C4
:104080001C650020226600203C650020426600205E
:104090006266002082660020A2660020F5400200D1
:1040A000A53E020010B58178012913D101780229BB
:1040B00010D10E490B6893F8AC1421F0080283F874
:1040C000AC24910702D442F0010101E042F0040166
:1040D00083F8AC14014606482EF0C4FB002803D038
:1040E000BDE810402DF076BF10BD00009C280020D8
:1040F0006062002070B504786CB1012C0AD00022F7
:1041000001231E49022C21D0042C03D144796407D9
:104110002DD50A7070BD418800F1180218482EF0A4
:10412000B4FA08B12DF056FF164832F007FD1448D6
:104130002EF008FB08B12DF04DFF11482EF0A0FA2B
:104140000028E7D0BDE870402DF044BF8479012CF1
:1041500004D10D4CD0E90156C4E9045644796407F2
:10416000D7D40B70BDE87040001DFFF79BBF0B70EC
:10417000BDE8704000210C3032F040B8092A002020
:1041800060620020A0860100F0290020014601485D
:104190002EF0DDBA6062002038B51CF0C3F9044689
:1041A0000088A0F57F41FF3919D0694634F0A8FE98
:1041B00008B12DF00FFF9DF8000080070FD40848CC
:1041C000006810F8B31F21F00701491C0170208816
:1041D000002134F0CBFE002801D02DF0FBFE38BDCD
:1041E0009C2800200149888070470000F0290020A9
:1041F00008B538F0B7FB02460F20009006480023B0
:104200000121806838F046FD012804D0BDE808404F
:1042100004202DF0DFBE08BDF029002010B50246B5
:104220004FF6FF70064C07E012F8013B4340DBB24B
:1042300034F8133083EA1020491E89B2F4D210BD3D
:104240007CCD0500FEB5002504466E46009501951F
:104250000C220E493046029512F0C2FA05220CA13A
:10426000B01DFBF7AAF930B17820207050206070A3
:10427000A5700020FEBD9DF8020060709DF803004F
:1042800020709DF80400A070F3E700001C240700D4
:10429000426C6F6F64000000FEB5002504466E4658
:1042A000009501950C2212493046029512F098FAB9
:1042B000072210A1701DFBF780F948B10120207181
:1042C000E5700820A0706570162020700020FEBDEB
:1042D0009DF8000020719DF80100E0709DF802003B
:1042E000A0709DF8030060709DF80400EDE70000E9
:1042F000E4240700626F787967656E00FEB50025DB
:1043000004466E46009501950C22144930460295EC
:1043100012F066FA042212A106F10800FBF74DF92B
:1043200050B1042060712071E5700820A0706570A4
:10433000162020700020FEBD9DF8000060719DF8E1
:10434000010020719DF80200E0709DF80300A0704C
:104350009DF8040060709DF80500EAE7B0240700AE
:104360004C69677400000000FEB5002504466E46E7
:10437000009501950C2209493046029512F030FA59
:10438000082207A13046FBF718F910B1258000205C
:10439000FEBDBDF808002080F9E70000BC2407003E
:1043A00050617373776F7264000000007CB504463F
:1043B000002000906D46019008220E49284612F018
:1043C0000FFA04220CA12846FBF7F7F868B16178D0
:1043D000207821F0020141F0050120F0EC0061702D
:1043E00040F01200207000207CBDBDF80400208049
:1043F000F9E7000014240700436F6E660000000018
:104400007CB50446002000906D46019008220A49C0
:10441000284612F0E5F9042208A1281DFBF7CDF883
:1044200028B10220207000F04FFA00207CBD9DF8DA
:1044300000002070F9E70000A82407006C616E6797
:10444000000000002DE9FC414FF0000814460D4625
:1044500006466F46CDF8008008220F493846CDF851
:10446000048012F0BDF904220CA1381DFBF7A5F859
:1044700040B186F80080372020707320287000201B
:10448000BDE8FC819DF8020030709DF801002070AD
:104490009DF80000F2E70000942407004265617473
:1044A000000000007FB5002504466E46009501958A
:1044B0000295102210493046039512F091F9082216
:1044C0000EA13046FBF779F840B1C4F801502078CE
:1044D00020F00100207004B0002070BD9DF80B108A
:1044E000029861F31F60C4F801009DF80C00217868
:1044F00060F300012170EEE7D4240700486F757265
:10450000676C6173000000007CB5002504466E46B0
:10451000009508220A493046019512F061F90422FB
:1045200008A1301DFBF749F830B12580207840F014
:104530000100207000207CBDBDF800002080F9E75C
:10454000002407004D6573670000000038B504467D
:1045500000206D46009004220849284612F040F9D8
:10456000022207A12846FBF728F818B13C2020803A
:10457000002038BDBDF80200F9E700000025070063
:104580004D6F00007CB50446002000906D46019000
:1045900008221049284612F023F904220EA1281DF2
:1045A000FBF70BF848B10120E0701F20A0703C2001
:1045B0006070AA20207000207CBD9DF80000E07093
:1045C0009DF80100A0709DF8020060709DF8030046
:1045D000F0E7000038240700557365720000000002
:1045E000FEB5002504466E46009501950C220E4945
:1045F0003046029512F0F4F803220CA1B01DFAF730
:10460000DCFF50B1657008202070E5701220A070AA
:104610003C20207165710020FEBD00982060BDF82F
:104620000400A080F7E70000082407005369740025
:104630007CB5002504466E46009508220D4930469B
:10464000019512F0CDF804220BA1301DFAF7B5FF49
:1046500001000B4806D04FF4FA5121800068C57064
:1046600000207CBDBDF80010218000689DF802107C
:10467000C170F5E72824070053746570000000003E
:104680003C290020FEB5002504466E4600950195A4
:104690000C2218493046029512F0A2F8042216A105
:1046A00006F10800FAF789FF58B1012020700520B3
:1046B00060700820A070E5701620207165710020E0
:1046C000FEBD9DF805000A21B0FBF1F201FB1200CE
:1046D00060709DF8040020709DF8030020719DF823
:1046E000020060719DF80100A0709DF80000E0706C
:1046F000E5E700009C2407005475726E000000007E
:104700003EB5044600200090019002900C2208491A
:10471000684612F065F8082206A16846FAF74DFFD0
:1047200018B10520207000203EBD9DF80800F9E773
:10473000042507005549445F54696D650000000079
:10474000F8B5044600256E46042209493046009516
:1047500012F046F8022207A13046FAF72EFF10B1F8
:1047600025700020F8BD9DF802002070F9E70000D8
:10477000FC2407005569000021F0E6B90EB50021C0
:1047800000910191029141788DF8021001788DF825
:10479000031080788DF8040006A003220068CDF88D
:1047A000060064208DF80A006946044812F024F8D7
:1047B0000EBD0000426C6F6F640000001C240700F7
:1047C0000EB5002100910191029101798DF8001040
:1047D000C1788DF8011081788DF8021041788DF83C
:1047E000031000788DF8040007A003220168CDF8BB
:1047F00005108088ADF809006E208DF80B00694621
:10480000034811F0F9FF0EBD626F787967656E009D
:10481000E42407000EB50021009101910291417935
:104820008DF8001001798DF80110C1788DF8021013
:1048300081788DF8031041788DF8041000788DF898
:10484000050004A00322006802906946034811F0A5
:10485000D3FF0EBD4C69677400000000B024070050
:104860000EB5002100910191029108A10A68009201
:1048700049688DF80800000A01918DF809000322AB
:104880006946054811F0B8FF0EBD00005061737312
:10489000776F726400000000BC2407001CB5002183
:1048A0000091019105A10222096800910088ADF8EC
:1048B00004006946034811F09FFF1CBD436F6E66FC
:1048C00000000000142407001CB5002100918DF8A1
:1048D0000000019104A0022200680190694604488A
:1048E00011F08AFF1CBD00006C616E6700000000C3
:1048F000A82407001CB5002300938DF800108DF844
:1049000001208DF8020005A00193006801900222A9
:104910006946044811F070FF1CBD000042656174D7
:1049200000000000942407001FB5002100910191B0
:104930000291039110A10A6800924968019110F850
:10494000011F8DF8081001880422090A8DF809104A
:104950000168090C8DF80A100168090E8DF80B101A
:1049600010F8010C694600F001008DF80C000548B4
:1049700011F042FF04B010BD486F7572676C61732F
:1049800000000000D42407001CB500210091019113
:104990000088ADF8000004A002220068019069467A
:1049A000034811F029FF1CBD4D657367000000002E
:1049B0000024070008B50021009107A10122098801
:1049C000ADF800108DF80200000A8DF8030069466A
:1049D000024811F011FF08BD4D6F000000250700CF
:1049E0001CB5002100910191C1788DF800108178EB
:1049F0008DF8011041788DF8021000788DF80300D1
:104A000004A00222006801906946044811F0F4FEF7
:104A10001CBD0000557365720000000038240700BB
:104A20000EB50021009101910291016800918088EA
:104A3000ADF8040006A003220088ADF8060074203B
:104A40008DF808006946034811F0D6FE0EBD00003F
:104A500053697400082407001CB5002100918DF8EB
:104A60000000000A8DF80100074801910222006849
:104A70006946C0788DF8020004A0006801900548DE
:104A800011F0BAFE1CBD00003C2900205374657073
:104A900000000000282407000EB5002100910191BC
:104AA0000291C1788DF8001081788DF8011041795C
:104AB0008DF8021001798DF8031001788DF804103B
:104AC00040780A21B0FBF1F201FB12008DF80500DD
:104AD00004A00322006802906946044811F08CFE8D
:104AE0000EBD00005475726E000000009C2407008B
:104AF0000EB5002107A2009101910291D2E90012A6
:104B0000CDE900128DF8080003226946044811F02F
:104B100073FE0EBD5549445F54696D650000000089
:104B20000425070008B50021009107A1012209888A
:104B3000ADF800108DF80200FF208DF803006946E3
:104B4000024811F059FE08BD55690000FC24070019
:104B50000EB50C4908688968009042F21070CDE9E2
:104B600001010949684632F055FD08B12DF032FACD
:104B7000064832F013FD08B12DF02CFA32F03CFD5E
:104B80000EBD000000CD05009D4B0200082800204E
:104B90000148007832F024BD08280020BFF34F8F71
:104BA00005480168054A01F4E06111430160BFF363
:104BB0004F8F00BFFDE700000CED00E00400FA0598
:104BC000F0B5BBB00D46064617460024E8216846FE
:104BD000FAF7C7FC9FED1A0A01208DED3A0AEC4660
:104BE00019E000BF05EB800232F8801F89B25368DC
:104BF00008E000BF56F82120002A00DA5242491C82
:104C0000144489B28B42F5DC0CEB800141F8044C72
:104C10000024401CC0B22978491E8142E2DC287879
:104C2000022805D3801E82B261463AA80EF084F8AD
:104C30009DED3A0A012087ED000A3BB0F0BD00006F
:104C400000000000034610B50020024606E000BF49
:104C500033F81240521C204480B292B28A42F7D3F9
:104C600010BD034610B50020024603E09C5C521CB8
:104C7000204492B28A42F9D310BD70B500245B1E65
:104C80000DE050F824500E68AE4200DA0D6050F886
:104C900024501668AE4200DD1560641CA4B29C422C
:104CA000EFDB70BD70B500242346057807E000BF38
:104CB00000EB8406641CD6F84064A4B23344A542D9
:104CC000F6D80DB193FBF5F30868116803EB830286
:104CD000401A0449B0EB420F01DD012000E0002042
:104CE000087170BDE4C2002010B5002309B1002294
:104CF00007E0002010BD00BF30F81240521C2344D2
:104D000092B28A42F8D3B3FBF1F080B210BD00003A
:104D10002DE9FC5F624D634A286890F8A8140129C8
:104D20001AD0614C822604F129030193143B842795
:104D300004F1140A0093022923D04FF088080329B4
:104D400045D004295CD0062919D190F84408800781
:104D500015D50120107089E0012010700AE0502163
:104D60005148FAF7FEFB50480BF044FA14214E4824
:104D700001F09CFB286890F8B8000328EFD2BDE84A
:104D8000FC9F90F82F188B0707D4C90605D400F5AF
:104D9000005090F8CB070128F1D1012010700EE0EF
:104DA000DDE90012601C0BF063FA267014213E4806
