:020000040001F9
:10F00000E8DE0020E9F40100F1F40100B5F40100AC
:10F01000F5F40100F7F40100F9F40100000000002C
:10F0200000000000000000000000000015F40100D6
:10F03000FDF401000000000059F4010001F5010099
:10F040001913030003F5010003F5010003F50100A6
:10F0500065AC030003F50100997902001DAB0300C4
:10F0600029CC03003DCC030051CC030003F5010083
:10F0700003F5010003F5010003F5010003F50100AC
:10F0800055FF0300E1A9030003F5010003F50100AA
:10F0900003F5010003F5010085AC030003F5010051
:10F0A00003F5010003F5010003F5010003F501007C
:10F0B00003F5010003F5010000000000000000005E
:10F0C00003F5010003F5010003F5010075AC030031
:10F0D0001DAA030003F50100296E020000000000D4
:10F0E0000000000000000000000000000000000020
:10F0F0000000000000000000000000000000000010
:10F1000000000000000000000000000000000000FF
:10F1100000000000000000000000000000000000EF
:10F40000DFF80CD000F044FB0048004789480400B6
:10F41000E8DE0020264B19680868B0E8F04F80F35A
:10F420000988BFF36F8F4FF0000080F31188704799
:10F43000000000000748006880F3088862B661B6E3
:10F44000BFF34F8FBFF36F8F4FF4F07080F31188CD
:10F4500000DF000000F00100EFF30980BFF36F8FC1
:10F46000134B1A681EF0100F08BF20ED108A20E918
:10F47000F04F106008B44FF0200080F31188BFF304
:10F480004F8FBFF36F8F2BF041FA4FF0000080F3E6
:10F49000118808BC19680868B0E8F04F1EF0100F1A
:10F4A00008BFB0EC108A80F30988BFF36F8F7047F4
:10F4B000A8420020094B1EF0040F1CBFEFF3098087
:10F4C0001847EFF308800649064A884201D890425F
:10F4D00002D88D464FF00000184700006DF0020082
:10F4E000E8DE0020E8CE00200648804706480047B6
:10F4F000FEE7FEE7FEE7FEE7FEE7FEE7FEE7FEE7E4
:10F50000FEE7FEE799C9030001F401000649074A36
:10F510000868504343F239021044086040087047BD
:10F520000149086070470000E04400206D4EC6416C
:10F5300040EA01039B0703D009E008C9121F08C075
:10F54000042AFAD203E011F8013B00F8013B521EF5
:10F55000F9D27047D2B201E000F8012B491EFBD26C
:10F5600070470022F6E710B513460A4604461946CE
:10F57000FFF7F0FF204610BD421E12F8013F002B9E
:10F58000FBD111F8013B02F8013B002BF9D1704788
:10F59000421C10F8011B0029FBD1801A704710B5DE
:10F5A000002200E0521C835C8C5CA34201D1002B42
:10F5B000F8D1D8B2E1B2401A10BD30B504460020EF
:10F5C000034600E05B1C934203D2E05CCD5C401B31
:10F5D000F8D030BD034611F8012B00F8012B002AAA
:10F5E000F9D1184670472DE9FE4F804681EA0300A5
:10F5F000C00F0C46009021F0004123F00045B8EB0D
:10F600000200A94105D24046214690461C460B46C1
:10F61000024623F00040104347D0270DC7F30A00ED
:10F62000C3F30A510290401A019040286BDAC3F3E9
:10F63000130040F4801B0098924620B10023D2EBC7
:10F64000030A63EB0B0B01985946C0F14002504688
:10F6500000F03EF906460D4650465946019A00F024
:10F6600056F910EB08006141002487EA115284EA40
:10F67000E7731A4340D0009A62B3019A012A4FEA15
:10F68000075215DC001B61EB02014FF0004202EA59
:10F690000752CDE90042001C41F5801132462B464D
:10F6A00000F056F903B0BDE8F08F40462146F9E777
:10F6B000001B61EB0201001C41F5801300185B4147
:10F6C0002018A2F5001747EB030140EAD570B619E0
:10F6D0006D4111E06D084FEA360645EAC0754FEA04
:10F6E0000752001B61EB0201001C41F58011490823
:10F6F0004FEA30000019514132462B4603B0BDE8B5
:10F70000F04F00F016B90098012240000023D0EB22
:10F71000020263EBE073009821464FEAE074B8EB15
:10F72000000061EB0401E9E783F000435BE781F04F
:10F73000004158E72DE9FE4F81EA030404F000443C
:10F7400021F0004100944FF0000B23F0004350EAF9
:10F7500001045ED052EA03045BD0C3F30A54C1F340
:10F760000A552C44A4F2F3340194A0FB0254C1F3D3
:10F77000130141F48011C3F3130343F4801301FB1D
:10F78000024400FB034E840A970A44EA815447EA84
:10F790008357A4FB076802958D0A05FB07854FEA8E
:10F7A000932C04FB0C542705029D4FEA065847EAA8
:10F7B0001637B5EB08056EEB070C870E920E47EA7D
:10F7C000811742EA8312A7FB0201B6EB0B0164EB3F
:10F7D00000042B0D43EA0C335E1844EB1C50DA4650
:10F7E0005146E7FB0201C5F313044FEA0B3343EA2A
:10F7F00014534FEA0432019C43EA0603A4F10C04BB
:10F800000294009CCDE900B400F0A2F803B0BDE87A
:10F81000F08F00200146F9E70EB5C10F80EAE070D5
:10F820000844CA07002140F233438DE80E000A461F
:10F830000B4600F08DF803B000BD70B5C1F30A525D
:10F8400001F000450024C1F3130140F2FF3341F4FD
:10F8500080119A4201DA002070BD40F233439A428F
:10F86000A2F2334203DC524200F041F800E0904043
:10F870002C43F1D0404270BDC1F30A5210B5C1F320
:10F88000130140F2FF3341F480119A4201DA002063
:10F8900010BD40F233439A42A2F2334203DC52429B
:10F8A00000F025F810BD904010BD00F0004230F08F
:10F8B00000400AD0C10D01F56071C0F3160042EAA4
:10F8C0000151C208400711437047002001467047AC
:10F8D000202A04DB203A00FA02F100207047914010
:10F8E000C2F1200320FA03F3194390407047202A05
:10F8F00004DB203A21FA02F00021704721FA02F3DA
:10F90000D040C2F120029140084319467047202A96
:10F9100006DBCB17203A41FA02F043EAE07306E037
:10F9200041FA02F3D040C2F1200291400843194647
:10F93000704710B5141E73F1000408DA401C41F141
:10F94000000192185B411A4301D120F0010010BD63
:10F950002DE9F04D92469B4611B1B1FA81F202E0D9
:10F96000B0FA80F220329046FFF7B2FF04460F460D
:10F9700040EA0A0041EA0B0153465A46084313D0B5
:10F98000114653EA010019D0C8F140025046FFF772
:10F99000AEFF05460E46504659464246FFF798FFD1
:10F9A000084305D0012004E020463946BDE8F08D2B
:10F9B0000020054346EAE0762C4337430A98630566
:10F9C000E40AA0EB08000022FD0A44EA47540A308A
:10F9D00002D500200146E9E7010510196941DDE97A
:10F9E000084500196941BDE8F04DA2E72DE9F04D49
:10F9F00000231A461B1A8A4103DB00200146BDE89A
:10FA0000F08DC1F30A52C1F3130141F480154FF098
:10FA1000000BD10702D100186D41521E0027044689
:10FA200040F2FF11384601EB620A3E46804602462C
:10FA300000204FF48011FFF75AFFC2197141BB1823
:10FA400046EB0100B4EB030C75EB000C04D3E41A95
:10FA500065EB000517460E46241908F101006D41BB
:10FA600080463428E3DDF91946EB0600091BA8415E
:10FA700003D24FF0FF32134601E0002213461BEB86
:10FA8000070046EB0A51BDE8F04DFFF752BF0000FA
:10FA9000064C074D06E0E06840F0010394E80700DB
:10FAA00098471034AC42F6D3FFF7AEFCF0070500E0
:10FAB0001008050070B58C1810F8015B15F00703ED
:10FAC00001D110F8013B2A1106D110F8012B03E0F7
:10FAD00010F8016B01F8016B5B1EF9D12B0705D4FF
:10FAE0000023521E0DD401F8013BFAE710F8013B48
:10FAF000CB1A921C03E013F8015B01F8015B521E64
:10FB0000F9D5A142D8D3002070BD70B504460D468A
:10FB10001646202C71D37E2C6FD80D2D6ED2DFE8C7
:10FB200005F0A207111C293847525F6E7B8A9500A9
:10FB3000A4F12001002202EBC1003246082128F086
:10FB40007DFF91E0A4F120014FF4407202EBC1006F
:10FB50003246082128F072FF86E0A4F1200101EB73
:10FB600041014FF4C06202EB810032460C2128F0C3
:10FB700065FF79E0A4F1200101EB810202EBC101F4
:10FB80004FF4286202EB410032461A2128F056FF5A
:10FB90006AE0A4F1200101EB810202EBC1014FF404
:10FBA000A25202EB410032461A2128F047FF5BE0E7
:10FBB000A4F120014FF4F05202EB01103246102163
:10FBC00028F03CFF50E0A4F1200101EB01114FF4BB
:10FBD000105202EB41003246222128F02FFF43E071
:10FBE000A4F1200101EB01114FF4435202EB41005B
:10FBF0003246222128F022FF36E038E033E0A4F13B
:10FC0000200101EB41014FF4765202EB0110324624
:10FC1000302128F013FF27E0A4F1200101EB81023D
:10FC200002EB41114FF4CF4202EB410032464A2130
:10FC300028F004FF18E0A4F1200148F2403202EB62
:10FC400081103246402128F0F9FE0DE0A4F1200198
:10FC500001EB811149F6403202EB4100324682212C
:10FC600028F0ECFE00E000BF00BF012070BD0020C6
:10FC7000FCE7000070B5174D002105F1640202F1A8
:10FC8000640302F1C80400BF05EB4106768825F83D
:10FC9000116002EB4106768822F8116003EB410601
:10FCA000768823F8116004EB4106768824F8116009
:10FCB000491CC9B23129E7D30188A5F862104188EF
:10FCC000A2F862108188A3F86210C088A4F86200CC
:10FCD00070BD0000F84F00202DE9F04389B00025E9
:10FCE000554801950295049505950695D0F8008034
:10FCF00052480FF039F9514C143C30B1257150483D
:10FD00004E4E807C012806D02CE02079401C2071CA
:10FD100009B0BDE8F083A089C01C092800D9A581DD
:10FD2000484FA089318827F81010401C80B2718894
:10FD300027F81010401C80B2B18827F81010401C22
:10FD400080B2A08109280DD3394601F11400A581A4
:10FD500012228146FFF7ECFB6089F88414214846A3
:10FD600002F064FE3188ADF804107088ADF806002A
:10FD7000B288ADF8082011FB01F100EE101AF8EE80
:10FD8000C00A10FB00F000EE100AB8EEC00A70EED8
:10FD9000800A12FB02F000EE100AB8EEC00A30EE44
:10FDA000800A10EE100AFFF780FD41EC100B20F0E6
:10FDB000EFFA51EC100BFFF740FDADF80A0001A877
:10FDC000FFF758FF207A401CC0B2207205280FD1DF
:10FDD0001D481C4B2572643BC07AA3F16402A2F15A
:10FDE000C801009001F1640008F088FA00F0EEF814
:10FDF000ADF80A50B4F90E104346481CE0810822C1
:10FE000001A811F09FFCB4F90E00192800DBE58170
:10FE100004A810F0B3F908F0FBFB0228FFF478AF58
:10FE200008F0F6FB04283FF673AF9DF81000032896
:10FE3000F4D31DF0F7FF6BE798B704009C40002057
:10FE4000A845002088510020CA4500202DE9F04136
:10FE50002DED048B05460E4614461F460DB106B126
:10FE60001CB9BDEC048BBDE8F081202F47D006DC27
:10FE7000022F23D0042F14D0082F4DD104E0402F9F
:10FE800030D0802F48D120E02088800000B2208030
:10FE90006088800000B26080A088800000B2A080EE
:10FEA0003BE02088400000B220806088400000B223
:10FEB0006080A088400000B2A0802EE020882080D2
:10FEC00060886080A088A08027E0B4F900008010DE
:10FED0002080B4F9020080106080B4F90400801022
:10FEE000A0801AE0B4F90000C0102080B4F902002C
:10FEF000C0106080B4F90400C010A0800DE0B4F917
:10FF0000000000112080B4F9020000116080B4F9F3
:10FF100004000011A08000E000BF00BF208810FB9B
:10FF200000F000EE100AF8EEC00A608810FB00F046
:10FF300000EE100AB8EEC00A30EE800A10EE101A79
:10FF40000846FFF7B2FC41EC190BB0EE490AF0EE9F
:10FF5000690A20F01DFAB0EE408AF0EE608A51EC9A
:10FF6000180BFFF76AFC00B22880208810FB00F015
:10FF700000EE100AF8EEC00A608810FB00F000EEF8
:10FF8000100AB8EEC00A70EE800AA08810FB00F0DC
:10FF900000EE100AB8EEC00A30EE800A10EE101A19
:10FFA0000846FFF782FC41EC190BB0EE490AF0EE6F
:10FFB000690A20F0EDF9B0EE408AF0EE608A51EC6B
:10FFC000180BFFF73AFC306000BF4AE72DE9F04715
:10FFD0002648DFF89C90006899F81C204179007948
:10FFE000C2EB0212C0EB001001EB800599F81D1066
:10FFF00099F81E0001EB820699F81F10C0EB001063
:020000040002F8
:1000000001EB800708F0F2F9044608F0E3F9DFF8A5
:1000100064A08046052C01D0062C15D199F81B0050
:1000200090B1BE4202D8AE4202D90DE0B54201D233
:10003000BD4209D89AF80500554628B90EF032FCA1
:1000400010B101206871AC71B8F1000F0BD09AF8B3
:1000500005005446002806D0A079072803D00EF0EA
:1000600035FC00206071BDE8F0870000C84000202A
:10007000CA4500208840002002480021417181715A
:10008000704700008840002003490A8802804A889F
:1000900042808988818070479C40002070B5074C61
:1000A000E078012808D00125E57000F0FFF80EF097
:1000B000FDFE65700020E07070BD000088400020EB
:1000C00004484089B0F5346F01D301207047002007
:1000D0007047000088400020FFF7E0BF10B5084CD3
:1000E000607800280AD10EF081FE00206081207027
:1000F00001206070BDE810400EF0FEBE10BD000093
:1001000088400020704700002DE9FF4105460C465D
:1001100016460027B8460CB9BDE8FF819DF80D00D2
:10012000012802D14FF00F0801E04FF00D08A8455B
:1001300013DC38480078401C3649087000203649E6
:10014000087034480078052843DB344800780028DC
:100150003FD10120314908703BE02F480078401C16
:100160002D49087000202B4908702B48007805287D
:100170002FDB2A48007860B30020284908702849FE
:100180000978284A1278881A002801DB014600E025
:100190004142CFB2224800780D2813DB142F0EDC29
:1001A00021480078401C2049087000201F49087031
:1001B00032461D492046039B11F07AFA02E00020E6
:1001C000194908701648007816490870002014492B
:1001D000087013480078401C1149087008460078E0
:1001E0004B2814DB002008700E4908700B4908707A
:1001F0000E480078401C0D49087008460078022817
:1002000005DB002008700849087000F097F800BF6F
:1002100082E700006A4400206B4400206C44002008
:1002200067440020664400206844002069440020A0
:1002300070B50A4CE0780128FCD00120E0702078ED
:10024000012801D100F032F8002565810EF0F2FEA0
:100250000EF03AFE6570E57070BD00008840002029
:1002600008B50548009000230122142103A02BF0BB
:1002700005F90349086108BDC90202004143430072
:100280008840002038B52AF0D7FF0246064C0F20E0
:1002900000900023012120692BF030F9012020700B
:1002A00040F6B830608138BD8840002038B5002461
:1002B000044D009423462246032128692BF01EF9A1
:1002C0002C7038BD8840002070B5194CE0780128AA
:1002D0002CD00120E070A0701648006840F6B835B8
:1002E000400E10F0010F07D0608940F6543188426B
:1002F00002D265810EF073FD0F48817A19B98079B9
:1003000008B9FFF7E9FC6089411E61814FF00006E2
:100310000BD3608910B16089A84206D36681FFF7CC
:10032000C5FF0EF05CFD0EF0E7FDE67070BD00004D
:100330008840002010050050A845002000200949F1
:100340000860094908700949087009490870094995
:100350000870094908700949087009490870094975
:1003600008707047744400206644002067440020F1
:1003700068440020694400206A4400206B44002047
:100380006C440020644400202DE9F04186B0002434
:1003900014216846FFF7E5F8294D0020DFF8A48016
:1003A0002988AA8801F10A03064693421FD991427F
:1003B0001DD8501A4FF6FF7202EA4000688008F517
:1003C000007342460BE00F1903EB440C32F8177030
:1003D00003F814703F0A641C8CF80170A4B2B4EBEB
:1003E000500FF0D32E80002006B0BDE8F0816A885F
:1003F00032B129B914496846FFF79AF868886E80C7
:10040000C0F114018FB22B886A460CE0191900EB79
:10041000440C38F8111002F80C10090A9444641CBA
:100420008CF80110A4B2B4EB570FEFD31819288041
:100430006E801421104602F0F9FA0120D4E7000082
:100440007C4000200A4600200A480020084910B5D8
:1004500088800020088048804FF400710548FFF72D
:1004600080F8BDE8104014210348FFF77AB8000077
:100470007C4000200A4600200A48002000280ED0B8
:1004800000290CD0B1F5807F09D8054A92889142A5
:1004900000D911464A0001460248FFF749B87047A3
:1004A0007C4000200A4600204178172917D881781F
:1004B0003B2914D80179A1B9417A1F290FD871B10C
:1004C000017A0C290BD851B1C178012907D8C0880D
:1004D00040F6B831884202D8B0F5FA6F01D2002058
:1004E0007047012070470000074900EB400001EB16
:1004F0008001002041F80C0D486088600349487075
:100500000120087070470000185D0020F8400020AE
:1005100000487047FD400020FEB500244FF6FF75EF
:100520001B4E284600940194CDF8084004EB44018A
:1005300016F82120012A23D1621C06EB81018DF8D7
:1005400000204A788DF801208A788DF80220CA7838
:100550008DF803200A798DF804204A798DF805205A
:10056000CA888DF80620120A8DF807200A7A8DF8BD
:100570000820497A8DF809100A22694600F000FF28
:10058000641CE4B2142CD1D3A84200D10020FEBDDB
:10059000185D00200021074A084600BF01EB410317
:1005A00012F823300BB1401CC0B2491CC9B2142947
:1005B000F4D37047185D002010B500F0E5F900F0A5
:1005C0000FF8BDE8104000F0BFB9000010B5F021F1
:1005D0000248FEF7C6FF012010BD0000185D002094
:1005E00070B500220A4B164602EB420503EB85006C
:1005F0000446FFF759FF18B113F82500012802D06F
:1006000026606660A660521CD2B2142AECD370BD7C
:10061000185D002030B5017971BB1849C38809689D
:100620000A88934226D303D1047A8D78AC4221D331
:10063000934207D1047A8D78AC4203D1447ACD78C5
:10064000AC4217D3934217D1027A8B789A4213D1D6
:10065000427ACB789A420FD182784078C0EB001072
:1006600002EB80004A790979C1EB011102EB8101AB
:10067000884201D2012030BD002030BDC84000209A
:100680002DE9F0030022334E314D144631681346F4
:100690009146174602EB420015F820C0BCF1010F4D
:1006A00041D105EB800091F805C090F80280C44567
:1006B00039D191F804C090F80180C44533D190F845
:1006C00003C0BCF1010F2ED190F804C0BCF1000FA3
:1006D00003D0B9F1000F15D025E0B1F800C0B0F893
:1006E0000680C4451FD191F802C090F80880C44527
:1006F00019D191F803C090F80980C44513D1C7708F
:10070000437916E091F80780B8F1000F01D14FF05E
:100710000708A8F101082CFA08FC5FEACC7C02D09B
:1007200001244379A146521CD2B2142AB2D3002C20
:100730000BD0316808480A7902704979417083709A
:10074000BDE8F00303200DF01DBFBDE8F0037047C6
:10075000185D0020C8400020FD40002070B5104CFE
:100760000025207878B101280CD100F029FF00285D
:1007700008D100F043FFF0210A4801F0A9F8002851
:1007800000D1257070BDA0780028FBD00128F9D1D8
:10079000F021044801F09CF80028F3D1A57070BD49
:1007A000F8400020185D002030B585B0142168465F
:1007B000FEF7D7FEB9208DF8000001208DF801006A
:1007C0002C4C02208DF804006178A078814212D36D
:1007D00000208DF80200FFF7DDFE8DF80300FFF723
:1007E0009BFE8DF81200000A8DF813001421684654
:1007F00002F00AF93BE0491C61708DF802108DF897
:10080000030025781C4828E02178491C217005EB5D
:10081000450110F82110F1B1691C8DF8051005EBA8
:10082000450100EB810050F8011FCDF8061041682A
:10083000CDF80A10007A8DF80E00B4F803008DF898
:100840001200000A8DF813001421684602F0DCF84B
:10085000142D04D208E06D1CEDB2142DD4D36178B0
:10086000A078814203D26070012005B030BD002025
:10087000FBE7000005410020185D00203EB5002583
:100880000095019502950478611E132911D850F83E
:10089000011FCDF801104168CDF80510007A8DF8E0
:1008A00009006846FFF700FE18B16846FFF7B2FE80
:1008B00008B100203EBD084A012004EB440102EBD0
:1008C00081018DF800009DE81C000C3981E81C00B6
:1008D00002494D7008703EBD185D0020F8400020B0
:1008E00010B5044B00241C7058709970A3F80320B5
:1008F00010BD00000541002070B5114C00263546A2
:10090000A078012807D1207828B9A570F0210D48DA
:1009100000F0DEFF06462078012801D065700CE06B
:100920006178481C6070052907D3A07820B900F0D1
:1009300047FE10B90120A0702570304670BD000040
:10094000F8400020185D00202DE9F04100240D4EF4
:10095000274600BF04EB440016F8201001290BD1F4
:1009600006EB8005E878012806D1287920B92846C9
:10097000FFF750FE00B1EF70641CE4B2142CE9D311
:10098000BDE8F081185D0020F021014800F0AEBE06
:10099000185D002010B514210848FEF7E2FD002084
:1009A000074908609FED070A074880ED000A9FEDA0
:1009B000050A064880ED000A10BD00007CC6002034
:1009C00088440020000000008C4400209044002057
:1009D0000148006870470000884400200149086011
:1009E00070470000884400201FF0CCBE014601483B
:1009F00021F00AB8E85E002010B50A490446808854
:100A000088804FF4D6710848FEF7ABFD6188064830
:100A100021F020F8002803D0BDE810401FF0B2BE3E
:100A200010BD000018410020E85E0020007A012877
:100A30000BD10648C168082907D2054B828823F8E4
:100A40001120491CC16001214170704718410020EC
:100A5000946000200146014820F0C0BC085E0020E0
:100A600010B581880C480289914202D14FF6FF717E
:100A700001810A4C607800280CD00948E16827F011
:100A800033FB08B11FF07EFE0548E16826F03CFF0D
:100A90000020607010BD0000085E0020184100209A
:100AA00094600020014880787047000018410020C1
:100AB0001CB5324820F09AFF08B11FF063FE3049A0
:100AC000304863DF08B11FF05DFE00200090014652
:100AD000019040232C4A2D4820F0DAFB08B11FF08A
:100AE00051FE40232A4A0121284820F0D1FB08B1B9
:100AF0001FF048FE4023274A0221244820F0C8FB6B
:100B000008B11FF03FFE4FF49673234A03211F489C
:100B100020F0BEFB08B11FF035FE40231F4A042120
:100B20001A4820F0B5FB08B11FF02CFE40231C4AE8
:100B30000521164820F0ACFB08B11FF023FE40232E
:100B4000184A0621114820F0A3FB08B11FF01AFE35
:100B50004023154A07210D4820F09AFB08B11FF0E9
:100B600011FE12480090124801906946074820F093
:100B7000B9FB002801D01FF005FE1CBD550A02007C
:100B800018410020AC050500A4600020085E00208C
:100B9000E460002050620020246100208041002099
:100BA00090620020D062002010630020B50B02008C
:100BB000E909020010B5017871B1012940D002297C
:100BC00025D004293CD14179490739D40021BDE819
:100BD00010400C3010F054B8418800F11802194848
:100BE00020F06EFB08B11FF0CDFD174824F004F98A
:100BF000144820F0C3FB08B11FF0C4FD114820F0D9
:100C00005AFB00281CD0BDE810401FF0BBBD0F4CA4
:100C1000D0E90112C4E904124079400710D404F16C
:100C20001001084820F03AFC08B11FF0ABFD07485E
:100C300010308078012803D1D4E90401C4E9060109
:100C400010BD0000085E0020A086010018410020B1
:100C50000146014820F097BB085E002000B585B032
:100C6000002001900290039004900C481421006829
:100C70000090684601F0C8FE09488178012902D039
:100C8000002005B000BD41680122064823F040FF66
:100C900008B11FF077FD0120F3E70000D4B704008E
:100CA00030410020085E002038B501F09BFE04466C
:100CB0000088A0F57F41FF3914D0694626F0E4FD95
:100CC00008B11FF05FFD9DF8000080070AD40649B7
:100CD000012008762088002126F00CFE002801D093
:100CE0001FF050FD38BD0000A84500200149887064
:100CF00070470000184100200149888070470000BB
:100D00001841002008B52AF097FA02460F200090FB
:100D100003480023012180682AF0F0FB08BD000091
:100D20001841002008B50648002300901A4640F2FA
:100D3000DC5104A02AF0A2FB0349886008BD000032
:100D4000A90C0200534543001841002010B588B09B
:100D5000142102A8FEF705FC00202A4C0090019007
:100D6000E07B00284BD0A8208DF80800FFF730FE6C
:100D7000010E8DF80910010C8DF80A10010A8DF88A
:100D80000C0021488DF80B1000788DF80D00607B69
:100D900010B90C208DF80A006846FFF775F9BDF808
:100DA00000008DF80E00BDF802008DF80F00BDF8B0
:100DB00004008DF81000207B70B16846FFF764F9DD
:100DC000BDF800008DF80E00BDF802008DF80F0090
:100DD000BDF804008DF81000BDF800001421000AD1
:100DE0008DF81300BDF80200000A8DF81400BDF85C
:100DF0000400000A8DF8150002A801F005FE08B0F5
:100E000010BD0000A84500209240002010B51AF047
:100E1000EFFA08B101F07CF805F0CEFD01490020A1
:100E2000887310BDA845002070B501F04DFF234C1C
:100E300028B90EF01DFA10B9A078012836D1E07C4F
:100E4000002833D0A1781E4D4FF4805603290AD0D4
:100E5000092908D0062906D004290FD00A290DD067
:100E600007290BD01BE001F059FEA078062816D107
:100E700001F00AFEA07C90B904200CE00EF03CF9D1
:100E8000A078072802D0E078012808D10EF01AF9DE
:100E9000A07C20B905206870304600F013F8A078D7
:100EA0000025012803D0607F012803D070BD01F028
:100EB00065FDA57001F034FD657770BDA845002083
:100EC0003C40002002494A6802434A6000F0BCBE30
:100ED0002C400020024800218161C1617047000060
:100EE000184100202DE9F0414048414C00686178EC
:100EF0008079884278D0607001F0CBFC01263D4DAE
:100F00004FF48068002768B1A87A012813D0A77031
:100F1000207820B9AE7102200DF034FB26700FF05E
:100F20004DF920E001F0C2FC50B1A87A012802D0AE
:100F300002202070F3E74046BDE8F041FFF7C2BF52
:100F4000A7702770002001F0D9FC07F061FB06288C
:100F500001D11CF067FFAF7108F02EF8022802D112
:100F600001200DF00FFB2078012811D002283BD181
:100F700001F0C4FC06201CF05FFF01F067FC0320B9
:100F8000A871FFF79DF800B308F01CF8D0B11CE081
:100F9000012001F0B3FC06201CF04EFF01F056FCCE
:100FA000AE71FFF78DF828B108F00CF810B908F011
:100FB00003F810B1A87A012816D1BDE8F04102204B
:100FC0000DF0E0BA07F0F8FF10B1A87A012802D1BD
:100FD00002200DF0D7FAA078082803D9BDE8F04127
:100FE00001F092BC401CA070BDE8F081C840002018
:100FF0002C400020A845002004480121417780783A
:1010000008B119F04BBF01F0AFBC0000A8450020AB
:10101000054910B501204871002010F0E9FCBDE839
:10102000104019F02BBD0000A845002070B5254CDC
:10103000002501206571657201F0C0F9A575E570A4
:10104000A5760DF0BFFE207B012811D10FF070F8BE
:1010500007F0B2FF0A2802D101200DF093FAA07820
:10106000022805D26078012802D10EF011FE6570C9
:101070002573E5730020FFF739FE002010F0B8FC5F
:10108000257707F099FF082807D007F095FF092872
:1010900003D007F091FF052802D101200DF072FA6C
:1010A000A07A01280DD0607901280AD00648007B7B
:1010B000012806D1BDE8704000220121084619F040
:1010C000B5BC70BDA8450020FD45002070B501F0FD
:1010D00007FC18B101F0DDFB00284BD001F086FCC5
:1010E00060B1BFF34F8F24480168244A01F4E061E6
:1010F00011430160BFF34F8F00BFFDE74FF0FF309A
:1011000000F050F90FF07EF91E491D480968028869
:101110000B889A4207D182788B789A4203D1C078A3
:10112000C978884201D0FFF771FEFEF7D7FF10F0B3
:1011300067F802F01FFC02F04FFCFFF751FAFFF7CF
:1011400003FC16F0DFFD16F0A7F90F4CA57901F0AE
:10115000A7F90120E075A57119F090FC01F052FC8F
:1011600001F002FC064900201D39C870BDE870403E
:101170000DF0D6BB70BD00000CED00E00400FA05D8
:1011800059400020C8400020A84500201BF02AB884
:1011900010B502F0EFFB02F01FFCFFF721FABDE8EB
:1011A0001040FFF7D1BB000010B5084C207D00288F
:1011B0000AD0607D401CC0B26075042804D31BF0C7
:1011C000C5FB00202075607510BD0000A8450020FB
:1011D0002DE9FC4700275C4E8DF800708DF80470F7
:1011E000707C5A4C3D4640B1DFF86481DFF8649171
:1011F00098F80F00012815D01FE0E07801283FD1B2
:10120000A078401CC0B2A070142839D3E570A57036
:10121000207901284FD125710EF01EF800230146D8
:101220001A4645E099F80900012806D11FF042F856
:1012300018B91FF079F800B10127A078401CC0B29E
:10124000A0702FB9B1788A1E042A01D228281FD392
:10125000757498F80F00012803D199F80900012846
:1012600010D000231A461946002005F03BFC01204F
:10127000E070A078282803D3032001F09FF8A57020
:10128000BDE8FC871FF050F8002301461A46EBE743
:10129000042911D00329F3D1232839D301F0A6FC66
:1012A0007570B570A57000237574E5701A461946FF
:1012B000002005F017FC42E0192803D20DF0D2FF00
:1012C0000528DDD30DF0C8FF07460DF0A1FF7570AE
:1012D0000023B570A5701A463946184605F002FC81
:1012E0007574E5702020FFF7EDFD98F817100029C0
:1012F000C6D098F81900B842C2D805F08BFA282851
:10130000BED2F0790028BBD107200DF03BF9B7E73A
:1013100001F094FC0028B3D0694601A801F0B4FCA8
:1013200000219DF804309DF80020084605F0DAFB06
:1013300001F05CFC7570B570A5707574E5702020C7
:10134000FFF7C0FD9CE70000A84500203C400020BE
:10135000CA450020FD45002010B502464FF6FF703B
:10136000064C07E012F8013B4340DBB234F813307F
:1013700083EA1020491E89B2F4D210BD98B504004A
:1013800010B5074C08E000BF11F8013B4340DBB249
:1013900034F8133083EA1020521E92B2F4D210BDFA
:1013A00098B5040002494A6882434A6070470000C9
:1013B0002C4000202DE9F04100245E4F5E4E0125B7
:1013C0004FF48038796805FA04F008423DD0B17ACC
:1013D000012972D0F17C00296FD0B0F5007F58D080
:1013E00015DC08283CD009DCB0F1004F70D0012892
:1013F00027D002282AD004286BD12CE0102834D022
:10140000202837D040283AD0802877D13CE0B0F56A
:10141000004F58D00CDCB0F5006F3FD0B0F5805FC6
:1014200041D0B0F5005F43D0B0F5804F66D145E0C4
:1014300040454FD0B0F5001F51D0B0F5800F5DD1C1
:1014400052E0FFF7AFFF00F07DFC6CE0FFF7AAFF72
:10145000FFF7DCFC67E0FFF7A5FF00F0F3FB62E0BD
:10146000FFF7A0FFFFF7E0FC5DE0FFF79BFF00F058
:101470004FFD58E0FFF796FF00F0F2FF53E0FFF753
:1014800091FFFFF7C5FD4EE0FFF78CFFFFF7CEFDA4
:1014900049E0FFF787FF00F019FF44E0FFF782FF04
:1014A00000F0C8FD3FE0FFF77DFF00F09BFD3AE054
:1014B000FFF778FFFFF76AFE35E022E0FFF772FFE3
:1014C00000F0D0FF2FE0FFF76DFF01F02DF82AE0CC
:1014D0000FE013E0FFF766FFFFF78EFD23E0FFF755
:1014E00061FF00F091FE1EE0FFF75CFF00F0B8FE28
:1014F00019E0FFF757FF00F0F3FF14E0FFF752FF8A
:1015000011E08028C0D004DC0828A9D04028F5D1FB
:10151000B5E7B0F5806F02D04045EFD1DAE7FFF7CD
:1015200041FFFFF7D3FD641CE4B2202CFFF44AAF67
:10153000BDE8F0812C400020A84500202DE9F04FA7
:10154000C1B08A4683464FF4807800250126414683
:101550006846FEF706F8BAF1000F2CD025E000BF70
:101560000BEB0500870215480024D0F8009000BF5F
:1015700007EB841709EB870142466846FDF7D8FF61
:101580006A4641460020135CFF2B01D0002004E096
:10159000401C80B28842F6D30120641C0640E4B2AD
:1015A000042CE5D33EB16D1CEDB25545D8D30120D6
:1015B00041B0BDE8F08F0020FAE70000F0440020C1
:1015C000064810B501680023012201F5883100F0BA
:1015D00047F8002800D0012010BD0000F044002092
:1015E000054810B500231222016800F039F80028E0
:1015F00000D0012010BD0000F044002010B501E033
:1016000022F03AFE21F06EFE0028F9D010BD000055
:1016100010B505280DD208494FF4E04202EB4030E6
:101620000968002301440222034800F019F8002849
:1016300000D0012010BD0000F044002010B50328A8
:1016400009D200F03DF8014600230222034800F0D1
:1016500007F8002800D0012010BD0000F044002051
:1016600021F0A6BD054810B5002301220168FFF74F
:10167000F7FF002800D0012010BD0000F04400203A
:10168000064810B5416800230122A1F58051FFF7FB
:10169000E7FF002800D0012010BD0000F04400202A
:1016A0001CB500220092040C01920A4680B26B46DF
:1016B000214621F05DFC002800D005201CBD000063
:1016C00003494FF4805202EB4030096808447047E8
:1016D000F0440020044A10B553680A46A3F580512F
:1016E000FDF726FF002010BDF0440020044A10B58D
:1016F00013680A4603F58831FDF71AFF002010BD74
:10170000F044002010B51346052801D3012010BD78
:10171000891C89B201EB810101EBC020054900F56C
:10172000E0501422096801EB80011846FDF700FF24
:10173000002010BDF044002010B50B46052803D250
:1017400013B10AB1282A01D9012010BD4FF4E0518C
:1017500001EBC0200449096801EB80011846FDF740
:10176000E7FE002010BD0000F044002010B5134635
:10177000052801D3012010BD4FF4E05202EBC02038
:1017800001EB410100F5E06000EBC100044960227B
:10179000096801EB80011846FDF7CAFE002010BD64
:1017A000F044002010B513464C2801D3012010BD91
:1017B000000200EB810005491022096801EB80015D
:1017C0001846FDF7B5FE002010BD0000F0440020D3
:1017D00010B51346032801D3012010BD091D89B29D
:1017E00001EB810101EBC020054900F58060142266
:1017F000096801EB80011846FDF79AFE002010BD34
:10180000F044002010B50B46032803D213B10AB1EF
:10181000502A01D9012010BD4FF4806101EBC02096
:101820000449096801EB80011846FDF781FE00209C
:1018300010BD0000F04400200846034910B50968B7
:10184000FDF776FE002010BDF044002070B586B094
:10185000064600200D460090019002900390144629
:10186000049021462846FDF77CFE02A93046FFF78A
:1018700017FF20B9694602A821F09AFB10B1012098
:1018800006B070BD00984088B4EB800F03D94FF6C6
:10189000FF7101EA8004224628460199FDF748FEBF
:1018A00002A821F047FB0020EAE7000008B58B08FA
:1018B000002206490092024649680448A1F5805179
:1018C00000F0ACF8002800D0012008BDF044002052
:1018D00008B502468B08880700D05B1C07494FF407
:1018E00088404860002000900548016801F5883173
:1018F00000F094F8002800D0012008BDE04000204E
:10190000F04400204268002A01D008461047704782
:10191000F8B51746069E0D46044605281AD2142B24
:1019200018D81A4639460C48FDF702FEAD1C0B4983
:10193000A8B200EB8000009600EBC420096800F517
:10194000E05001EB80010523034A044800F066F8EB
:10195000002800D00120F8BDE0580020F04400200D
:10196000F8B50546052827D231B32AB3282A23D84B
:10197000124C00272078012800D927702078104EBB
:1019800000EB800006EBC000FDF7D2FD4FF4E05005
:1019900000EBC521009720780A2300EB8002401C51
:1019A0002070084806EBC202006800EB8101054880
:1019B00000F034F8002800D00120F8BDE0400020FD
:1019C000F4580020F0440020F8B516460D460446B1
:1019D00005281DD2602B1BD11A4631460D48FDF754
:1019E000A7FD4FF4E05000EBC42005EB450100F5E6
:1019F000E06000EBC1000021009107491823054A6F
:101A0000096801EB8001044800F008F8002800D0C4
:101A10000120F8BD44590020F044002038B5049C52
:101A2000009421F073FC38BDF8B51746069E0D46AC
:101A3000044603281AD2142B18D81A4639460C48E3
:101A4000FDF776FD2D1D0B49A8B200EB8000009636
:101A500000EBC420096800F5806001EB80010523DC
:101A6000034A0448FFF7DAFF002800D00120F8BD40
:101A7000E45B0020F044002008B5032815D2A1B192
:101A80009AB1502A11D84FF4806202EBC020002294
:101A90000092074A0A23126802EB80000A460146B8
:101AA0000348FFF7BBFF002800D0012008BD00005D
:101AB000F044002008B508469308910700D05B1C4D
:101AC000002100910449024603480968FFF7A6FF78
:101AD000002800D0012008BDF0440020F0B589B0F6
:101AE00000230646009301930293940805930693FE
:101AF000079303930493900700D0641C302C00D903
:101B000030241C4D6878022800D96B7068781A4F11
:101B100000EB400007EB8010FDF70AFD687800EB52
:101B2000400107EB81110391401C6870ADF8006023
:101B3000300CADF8020003A801900120ADF80800B8
:101B4000ADF8104005A93046FFF7AAFD0528694603
:101B500005A806D021F04CFA002808D0072803D0A9
:101B600004E021F04CFAF7E721F07EF9012009B0FA
:101B7000F0BD0000E0400020A459002070B505F041
:101B80005FF901F0B5FB03220021012029F0A4F840
:101B9000294DE86010B904201EF0F4FD2748002408
:101BA00022210471847404704477FDF7DAFC222149
:101BB0002248FDF7D6FC16F06BF9FEF76FFA05F038
:101BC00085F807F00BFA1AF0E9FA19F0FDFB00F0BE
:101BD00067FC1AF083FE04F05DFC01F0CBFE01F01F
:101BE000FBFE16482230C378027900EE103A4179A4
:101BF0008078B8EE400A0FF0E9FCFEF7DDFC0FF04C
:101C0000FFFA0EF0F1FC12F0B1F86C6000F0ACFEDF
:101C10000B4800684079A86000F0F4FE0CF050FD1D
:101C2000FFF7ECFC1AF092FE1AF086FE1EF05CFA4A
:101C3000BDE8704019F024BB2C400020A8450020CE
:101C4000C84000207047000008B5002000900948F7
:101C50006946C06829F0D8F90098002808D00649DC
:101C60004FF08050086040BFBFF34F8FBFF36F8FBE
:101C700008BD00002C40002004ED00E070B5244CAD
:101C8000A07A08B11EF030FA00F01CFE18B1207BDB
:101C900008B90EF0E7F90EF0F3F901F05FFB00F080
:101CA0003BF81C4DF8B128688079B8B9A07A20B902
:101CB0000120A0778003FFF705F9296805224879FC
:101CC000B0FBF2F302FB130242B9A27A32B90979EE
:101CD00001B9C8B15FF01000FFF7F4F8FEF712FA8F
:101CE0000120FFF7EFF82868817900290ED14079AB
:101CF000C0070BD100F0F4FD002807D1BDE870400B
:101D00004FF48030FFF7DEB80220E5E770BD000039
:101D1000A8450020C840002010B5094CA07A60B149
:101D200000F0B7FD48B900F0C1FD30B9A079012835
:101D300003D0032801D0002010BD012010BD0000F9
:101D4000A845002070B500F011FB354D354C00263C
:101D5000E87C60B1FEF7FAFF6079401CC0B26071A8
:101D60003C2804D36671FEF733FE20F00DFB0DF026
:101D7000D1FAFFF72DFA287B18B1A079401CA07189
:101D800000E0A671287C20B12E744FF40050FFF7BC
:101D900099F800F0A5FD18B14FF40070FFF792F824
:101DA000FFF702FAFEF7A8FD15F030FF287F0128A3
:101DB00001D101F007FC0EF073FB01F0C7FF0CF03E
:101DC000DFFFA87F012808D1AE77FEF759FC0FF09E
:101DD00029FAFFF7DDF913F069FB10F021FCA87A6E
:101DE00001280BD06879012808D00F48007B012812
:101DF00004D101210022084618F030FE0B480A22C7
:101E000000684179B1FBF2F302FB1311002906D1FE
:101E10008079002803D1BDE8704004F03BBB70BD61
:101E2000A84500203C400020FD450020C84000207F
:101E300010B5064C207D002806D0FFF7DFFB1AF016
:101E400085FD00202075607510BD0000A8450020AC
:101E50002DE9F0411EF028F91EF046F91E2024F06D
:101E600017F91F4C4FF0804020600DF02CFF072029
:101E700024F00EF98020211F0860052024F008F9C5
:101E800020202060122024F003F94FF480202060ED
:101E900000F0F4FC01F018F801F0C0F818F008FFA9
:101EA0001EF022F900244FF47A7640F6AA354FF45A
:101EB0009677304628F0ACFB18F0F8FFA8420BDA12
:101EC00000F0E7FC10B900F0F1FC28B11EF00CF9AD
:101ED000641CA4B2BC42ECD3BDE8F04118F010BFC2
:101EE0000C05005010B5032000F068FA06490020E8
:101EF000487406498870C8701020FFF753FABDE88F
:101F000010402020FFF74EBAA84500203C4000209A
:101F10002DE9F04104F0ECFB2E4C00272E4EA07969
:101F20000125F0B906F074FB022803D306F070FB1C
:101F3000042814D906F06CFB062810D027480A2183
:101F400000684279B2FBF1F001FB10232448B3B1E1
:101F5000B2FBF1F301FB132105291FD031E0A07979
:101F600018B100231A46062102E000231A4619463A
:101F7000002004F0B7FDF570B770BDE8F081E17F97
:101F800001291ED1A17802291BD2C078012818D1BD
:101F90000320A070657000F0A1FE0AE0A1788078AF
:101FA000022909D201280CD10420A07065700DF01F
:101FB00069F9B7706574E0E7012802D10DF020F9E6
:101FC000357100231A461946184604F08BFDB77088
:101FD000F570D2E7A84500203C400020C840002012
:101FE000FD45002070B51149487900281AD0104CE1
:101FF0000025607804280CD005280AD0072808D0CE
:1020000006280FD11EF076F858B1BDE870401AF0DE
:1020100029BE8878072806D0062804D0C878012869
:1020200001D0657070BDFEF7AFF9EDE7A84500205F
:102030003C4000202DE9F041A2B0142105A8FDF795
:1020400090FA14216846FDF78CFA002560210AA851
:10205000FDF787FA6A486B4E007868B1E8460128B8
:1020600056D002287DD003287CD004287BD00528B8
:102070007AD105F035FEC0E0614C05AA1534B4F8FC
:102080000100B4F80510084481B22078FFF73AFB4C
:10209000C8BBB4F80500D121401CA4F805008DF898
:1020A00000108DF80100000A8DF80200B4F803005A
:1020B0008DF80300000A8DF80400E1799DF8160000
:1020C000012561F35F108DF805009DF824008DF85F
:1020D00006009DF825008DF807009DF822008DF878
:1020E00008009DF823008DF809000698CDF80A0035
:1020F0000798CDF80E009DF820008DF812009DF88D
:1021000017008DF81300B4F80500B4F8031058E078
:102110003B4C062710340AAA2079B0FBF7F120784F
:10212000FFF724FB20BB2079E021401CC0B22071C6
:102130008DF80010E178091A8DF80110A1788DF85A
:1021400002106178401E8DF8031090FBF7F107FB39
:102150001100C0B20AA901EB0011102208F104001D
:1021600003E00AE040E046E03BE0FDF7E1F901254D
:102170002079E178884226D12AE0214C08F1010239
:102180002534E1882078FFF70DFBB8B9F0208DF8F1
:102190000000E1888DF811102068491CA0F11C0294
:1021A0008DF81220227989B28DF81320E180402920
:1021B00003D30021E180401C206001252068A18814
:1021C0001C38884204D27079012801D11AF05EFDD2
:1021D000002D06D07079012803D11421684600F043
:1021E00013FC22B0BDE8F081FEF7DEFA05E000BF87
:1021F0001AF04CFDF5E70EF00FFB0028F8D1F0E7E0
:102200003C400020A845002008B50020009012485E
:10221000007800281FD000F0B3FB74DF0E4815F0E3
:1022200079FE9DF8000020F00F00401C20F0F00027
:1022300010308DF800000848FDF7AAF982B206496F
:1022400068467CDF0548C06808B11EF09BFA1EF0A6
:1022500003FA00F0D7FB08BD234000203C400020DB
:102260000148C07F15F07EBEA845002030B5044C63
:10227000039D04F8010B21806280A380A57130BD0D
:102280005140002030B5044C039D20706170A27055
:10229000E370257130BD00004C40002003481C2134
:1022A00001602C2181800021C180704761400020A5
:1022B00001490870704700003C400020024801219D
:1022C0000175002141757047A845002070B50CF0DC
:1022D00015FB234C01200025A072A57400F050FBD3
:1022E000FFF700FE002000F069F8A575A07908B995
:1022F000FDF79EFF19F05CFF0DF07CFD10F08AF9F0
:102300001DF06EFE01F044FC0DF058FF1649154813
:1023100009680A6840F81D2F496841604FF0FF3096
:10232000FFF740F884F8205094F8210001280FD1DD
:1023300084F82150FEF72EFB0020FEF74FFB1EF025
:102340000FF80022114610460FF096F913F052FDD7
:10235000FEF704FA13F008FDBDE87040FFF768BD12
:10236000A84500203C400020C840002070B5104D1A
:10237000104A114CE9889068814204D0401C01D079
:102380000020A0739160FEF723FBE98881420DD8FD
:10239000A07B00280AD10E200BF08CFE012805D16D
:1023A000A073BDE870400E200CF0ECB870BD0000CA
:1023B000CA4500203C400020A845002030B5264DED
:1023C00085B00024A97840B1012827D003282AD05D
:1023D00009293DD00A2939D129E0204801220629BE
:1023E00002D0072915D108E00194029403940494C3
:1023F000006800908DF8042007E001940294039493
:102400000494406800908DF805201421684600F07F
:10241000FBFA00F0B3FA0CF0FBFE19E0062917D026
:10242000072913D103E0032912D004290ED10CF09F
:10243000EFFE00BF1DF088FEAC706C70A87D002818
:1024400004D000F005FB00F003FBAC7505B030BD17
:1024500000F0CCFBEEE70000A84500207CB50400AE
:1024600004F006BB1CB50020009001900A48082229
:10247000006801680091406801909DF800009DF897
:1024800001108DF800108DF801000448694640687D
:10249000FFF724FB1CBD0000C8400020C8B70400A3
:1024A00070B522210D48FDF75CF80C4C0020012589
:1024B000A0726573A070FEF78BFA04F12201C9883F
:1024C000884200D3A5731AF0B3FEE07415F0D2FC75
:1024D000E077022800D0E57770BD0000A845002015
:1024E00070470000FFF7B4FCFFF748FB0C4C0D4DA4
:1024F0004FF0FF360BE0A87A08B91DF0F5FD6068D3
:1025000008B1FEF757FFFEF7EDFC06F0F1F80023E7
:1025100032461946E06828F0FDFB0028F7D0EAE7CC
:102520002C400020A84500202DE9F041174D287BC4
:10253000012828D01648C07B012824D11548407AAC
:10254000012820D11DF026FE0646A878062801D0D5
:10255000072818D10127104C012E04D0E07910B1C2
:10256000A87C03280ED100F08FFAA87C012805D0A2
:10257000062060704FF48050FEF7A4FC0020E0714C
:10258000002E00D1E771BDE8F0810000A8450020D1
:10259000CA450020FD4500203C400020084900209D
:1025A0006322886008704870887088800549C87008
:1025B00008714870087048718871CA7188707047D6
:1025C000D4440020B6C6002000487047B6C600209C
:1025D00070B50C78034601EB44040020A18A024642
:1025E000E48A10E003EB410633F9115036F9026C2E
:1025F000B54202DD521CD2B203E00AB1401CC0B2A7
:102600000022491C89B2A142ECD370BD2DE9F041F2
:1026100000270D460A4680463E463C4639461BF09A
:102620001DFA81B23DB91BE038F91400401A00FBD5
:102630000066641CE4B2AC42F6D3B6FBF5F000EEE3
:10264000100AB8EE400A10EE100AFDF72EF941EC20
:10265000100B1DF09DFE51EC100BFDF70DF987B22C
:102660003846BDE8F081000010B5052023F041FD9B
:10267000052023F075FD40F6B83022F049FC0248F1
:1026800000210170417010BD9842002070B5040017
:1026900003D00E4D287820B110E0BDE87040FFF760
:1026A000E3BF052023F025FD052023F081FD142044
:1026B00022F02EFC012028700C2068700C2C00D910
:1026C0000C242046BDE8704000F002B8984200207B
:1026D0002DE9F041194E0446C01C7378C0B2D91CD4
:1026E000CAB21749A34204D9085C895CA0EB010077
:1026F00006E021D2085C895CA0EB010000F110002B
:10270000C7B24FF0000514E04FF0050023F0F1FCD4
:10271000052023F025FD012022F0FAFB052023F0FF
:10272000E8FC052023F044FD012022F0F1FB6D1CA4
:10273000EDB2BD42E8D37470BDE8F081984200204C
:10274000E404050070B5384CDFED380A384A94EDE2
:10275000020A0020BCEEC00A10EE101ACEB2E188C8
:1027600000EE101AB8EE400A20EE200AF0EE000A41
:1027700020EE200AF1EE000A20EE200A10EE101AD8
:1027800084ED020A91424BDB10EE101A294A002513
:10279000914204DA6078401C6070052022E010EE5F
:1027A000101A254A91421CDB10EE100A2349884278
:1027B00001DA012015E010EE100A2149884201DA01
:1027C00002200EE010EE100A1E49884201DA0320B2
:1027D00007E000F05EF818B11B49A0688842F6DBFC
:1027E000042065705EB1217881420BD02179491CAB
:1027F000C9B22171032906D32571207003E020702E
:10280000257105E02571207858B1052809D0A570FB
:1028100000F04CF8002803D004202070657025716A
:1028200070BD0120A070F3E7704200209A99193919
:1028300000002040000060400AD76340A4706D4053
:102840000AD77340F6287C407B147E400149002063
:1028500048707047704200200148C08870470000EF
:10286000704200200148C07870470000704200208C
:1028700001480078704700007042002010B5002128
:10288000022023F0FCFB0021BDE810401F2023F0B4
:10289000F6BB10B5022023F06BFC18B91F2023F003
:1028A00067FC08B1002010BD012010BD10B502204A
:1028B00023F05EFC20B91F2023F05AFC012800D031
:1028C000002010BD05490878052805D010B9887882
:1028D000012801D00020704701207047704200207D
:1028E00005480178052904D14078032801D3012047
:1028F0007047002070470000704200200149C870F6
:10290000704700007042002010B5FFF7CFFF00288D
:1029100002D002490420087010BD0000704200205F
:1029200070B50024254618F0D1FA002819D0017896
:10293000052916D1B0F80110322912D100EB44015B
:10294000641CB1F80310E4B20D44322CF6D33220EB
:10295000B5FBF0F0034980B2C880BDE87040FFF7D6
:10296000F1BE70BD7042002010B5052018F0C2FB0A
:1029700001490120887010BDA845002018F0F0BB67
:1029800005480088A0F57F41FF3902D0132176DF8A
:10299000704774DF7047000000400020074800883F
:1029A000A0F57F41FF3907D0132176DF082803D037
:1029B000002801D01DF0E6BE704700000040002056
:1029C0000048704770450020034951F81D2F0260F0
:1029D00089888180704700000040002000487047CF
:1029E0008C450020004870470040002004480088C3
:1029F000A0F57F41FF3901D00120704700207047CA
:102A0000004000201DF070BE70B5054606480C461B
:102A10004079012807D1FFF7D3FF22462946BDE8B8
:102A200070401FF04BBA70BDA845002070B5054638
:102A300006480C464079012807D1FFF7CFFF224610
:102A40002946BDE870401EF014BE70BDA8450020A8
:102A500000B585B014216846FCF783FD90208DF801
:102A600000001E208DF8010014208DF802000020C7
:102A70008DF8030001208DF8050014216846FFF74A
:102A8000C3FF05B000BD000000B58BB014221DA12E
:102A900005A8FCF74DFD00200190029003900490E2
:102AA0001D4800680090FFF78FFD0178642201291E
:102AB0000FD01423022904D0032902D0407814280F
:102AC0000ED31E208DF801008DF802308DF8032002
:102AD0000EE0C1788DF8011000798DF80200F5E75D
:102AE000B0FBF3F103FB110005A9085C8DF80300AE
:102AF00001208DF8050014216846FFF785FF0BB013
:102B000000BD000001050A0F141A1F24292E3439B4
:102B10003E43484D52585C62B4B704002DE9F04181
:102B200086B018F0C1F804460078032801D00428C4
:102B300036D12C4E2C4D4FF4807730784FF40078FE
:102B400088B338463946424605EB4103A3F5805326
:102B500035F81170A3F8007E04EB4103A3F5805310
:102B6000B3F9033E9B1025F81130491C89B29142FC
:102B7000EAD30146E01CFDF781FC0220307002A878
:102B80000DF0FCFAB6F80300ADF8000070798DF88E
:102B900002009DF8081032781348009B1BF052F990
:102BA00006B0BDE8F081FFE7FFF7F8FC41460E48AC
:102BB000FCF7D7FC39463A464FEA080004EB4203DB
:102BC000A3F58053B3F9033E9B1025F81230521C35
:102BD00092B28242F2D3E01CFDF750FC012030702B
:102BE000DEE70000BE400020E85200200E4810B58D
:102BF000C07B012801D11DF0A7FA00200DF07EF85E
:102C00000A490020487018F0ABFA142023F055FA56
:102C100007494FF480100860002000F0E3F8BDE899
:102C200010400DF035B80000CA450020BE4000201D
:102C30000805005000487047C140002010B5FFF75C
:102C4000C3FC0178012904D0407814280BD302205A
:102C500010BD0279C17805483C23007800F07CF86B
:102C60000128F5D0F3E7084610BD0000C140002060
:102C700010B5FFF7A9FC4078142801D9642010BDD5
:102C800000EB8000C0B210BD2DE9F0410E460746B2
:102C9000FFF79AFC044600780025012808D109486E
:102CA0002279E17800783C2300F056F8012803D01F
:102CB0003D703570BDE8F081E07838702079307073
:102CC000F8E70000C140002003488078022801D0C6
:102CD0000020704701207047BE40002070B51420CE
:102CE00023F0EBF9174A012001051160164D174C2E
:102CF000697A012900D006206070C0B20CF0FEFF96
:102D0000134E307A00F048F8F07B012805D11148C5
:102D1000007B10B9687A01280CD0022000F062F81C
:102D20005FF0030018F0E6F900202070BDE8704065
:102D3000FFF734BC012000F055F81DF0C1FA042063
:102D4000F0E700000C050050FD450020BE400020CB
:102D5000CA450020A845002010B502F10F04012843
:102D600008D0A1F15100812812D22E2A10D3B32A03
:102D70000ED807E0A1F13D00A92809D21A2A07D3ED
:102D8000C72A05D8A14203D91E2B01D3C82B01D9CC
:102D9000002010BD012010BD30B5034601200F4AB0
:102DA0000021012B05D0002B02D1117091705170C0
:102DB00030BD0B4C01231370A37A9370647A547066
:102DC000A4F15105812D06D22E2B04D3B32B02D8AA
:102DD00018339C42ECD80846E7E70000C1400020C9
:102DE000CA45002010B5064C0228A07007D1C001CA
:102DF000FDF72CFB6078BDE810400CF07FBF10BDE4
:102E0000BE40002070B52E492E4C01250D70207853
:102E100050B10020A070227904EB4202A2F8130006
:102E20004878012804D00EE0BDE8704005F042BCAF
:102E3000607840B904EB4001B1F81310A9B1401C0F
:102E4000C0B20228F6D3002004EB4001B1F8131001
:102E500001B3A570207104EB400104EB0020B1F830
:102E60001310173000F056F818E0D4F80720D4F803
:102E70000F108A42E7D26570891AE070FE2900D3EC
:102E8000FE21A4F8051004EB002089B2173000F0F1
:102E9000F3F8D8E7401CC0B20228D5D3A0780028A8
:102EA0000CD16078002809D140F217210548FCF7C1
:102EB00058FB03F0FFFE0CF0E4FCB5E770BD00002A
:102EC0006E420020567300201FB50F4AD2E904015C
:102ED000D269CDE90001FF208DF8020008208DF8AD
:102EE00001000A208DF80000800703920290074A33
:102EF0006946054822F090FE08B11DF043FC0449E4
:102F0000012008701FBD0000AC040500052E020062
:102F10006E42002038B50A464FEA000100F0FAF888
:102F20000028FBD10C4BD2B21870034600900B481E
:102F300022F0FEFE041E01D01DF024FC084800789B
:102F400020B900BF00F0E6F80028FBD10CB100204A
:102F500038BD012038BD00006E420020AC040500E1
:102F60005673002070B52B482B4C012545702178F5
:102F700099B100216170E278B4F8051004EB4202C7
:102F8000A2F81310D4F80710B4F805201144C4F8BF
:102F900007100078012804D01BE0BDE8704005F060
:102FA00089BBA078A8B900BF04EB4001B1F81310A9
:102FB00059B1A570207104EB400104EB0020B1F879
:102FC00013101730FFF7A6FF03E0401CC0B2022821
:102FD000EAD3002004EB4001B1F8131021B1401CEA
:102FE000C0B20228F6D370BDD4F80710D4F80F2071
:102FF0009142F8D26570511AE070FE2900D3FE218B
:10300000A4F8051004EB0020BDE8704089B2173029
:1030100000F032B86E420020567300201FB5134AEC
:103020000C24D2E90801D26ACDE900010D208DF807
:1030300002000B208DF80100C00702900B4803929C
:103040008DF800400A4A6946083022F0E5FD08B1D3
:103050001DF098FB9DF80200800000F1A040C0F830
:1030600000470449012048701FBD0000AC04050062
:10307000652F02006E42002038B5034600F054F878
:103080000028FBD10C4A5070C8B2002200901146B3
:103090000A4822F04DFE041E01D01DF073FB0848C3
:1030A000007818B900F040F80028FBD10CB10020DE
:1030B00038BD012038BD00006E420020B404050078
:1030C0005673002038B50A464FEA000100F02CF88C
:1030D0000028FBD10C4BD2B25870034600900B482D
:1030E00022F026FE041E01D01DF04CFB084800789B
:1030F00020B900BF00F018F80028FBD10CB1002067
:1031000038BD012038BD00006E420020B404050027
:103110005673002003480078012801D00120704731
:10312000002070476E42002003484078012801D0FB
:1031300001207047002070476E4200202DE9F041C9
:103140000F2829D1032927D1144E0227377023F0E5
:1031500017F80025A6F10A040028E0780AD03C28D8
:1031600016D200F077F8B5700D487770E570807A68
:1031700048B110E000280FD10120A0707570BDE8A3
:10318000F04100F057B8002105200AF081FF02E06D
:103190008C2800D2E570A570BDE8F0818A4200203D
:1031A000A845002008B505480090002301223221DF
:1031B00003A028F063F90549486108BDD131020038
:1031C0004B4559315F425554544F4E0080420020C8
:1031D00070B50F2022F0D4FF1549002550B1887931
:1031E000421C8A710C281CD38D71CD70BDE87040D3
:1031F00000F030B88D71C8788C2812D8401CC0B24D
:103200000B4CC8700A3401213C280BD0782808D117
:103210000620A070617000215FF007000AF038FFFF
:10322000657070BD0320A070617000210620F5E775
:103230008042002008B527F0FFFF02460F200090D3
:10324000034800230121406928F058F908BD000017
:103250008042002008B50020034602460090034843
:103260000321406928F04AF908BD0000804200208F
:103270000148807870470000804200202DE9F0412D
:1032800003282ED103292CD1174E0127377022F0A5
:1032900077FF0025F41F002860780DD0A0B1411EF3
:1032A0003B291AD200F0C8F8B570022070700F48A0
:1032B0006570807A60B113E0002812D127707570B4
:1032C000BDE8F04100F0A8B800F0B6F8B57006E02F
:1032D000002102200AF0DCFE02E08C2800D265709A
:1032E0002570BDE8F081000087420020A84500203D
:1032F0007CB522F053F820B922F022F808B11DF075
:1033000041FA00F041F8FFF74DFF114C0025114A3A
:10331000206800908DF801506946032021F090FF4D
:1033200008B11DF02FFA0121032021F037FF60685A
:1033300001908DF80550084A01A90F2021F080FF67
:1033400008B11DF01FFA01210F2021F027FF7CBDDD
:10335000DC0405007D3202003D31020010B503207F
:1033600022F00EFF00280CD0064841788C2908D3A3
:103370000179491C11F0FF01017102D00021417057
:10338000017110BD8042002008B50548009000235F
:103390000122322103A028F071F80549086108BD17
:1033A000B53302004B45595F425554544F4E00000F
:1033B0008042002070B5032022F0E2FE154900256E
:1033C00050B14879421C4A710C281CD34D714D7084
:1033D000BDE8704000F030B84D7148788C2812D8A4
:1033E000401CC0B20B4C4870E41D01213C280BD09E
:1033F000782808D10620A070617000215FF00400D9
:103400000AF046FE657070BD0320A0706170002157
:10341000F6E700008042002008B527F00DFF0246C5
:103420000F200090034800230121006928F066F86E
:1034300008BD00008042002008B500200346024677
:10344000009003480321006928F058F808BD0000E7
:10345000804200202DE9F04104460D460F4E002722
:10346000B4F5806F07D3B4F58C6F04D2A4F58060F7
:1034700006EB001709E0B4F5926F06D3B4F5A06F20
:1034800003D2A4F5866006EB00172A4610213846C1
:1034900025F0D4FA3846BDE8F081000091641500AB
:1034A00010B586B000240E4801940294039404944D
:1034B000006800900B483C220178047121F0020161
:1034C000C27041F00501017014216846FFF79CFAB3
:1034D0000549012008770348401E047006B010BD5E
:1034E000D8B70400DA410020A845002030B585B0E7
:1034F000002413480194029403940494114D8068AD
:103500000090287F01280DD10F481421C0F80140F8
:1035100044716846FFF778FA0B48401C017821F0A7
:10352000040101702C7705F047FD082803D005F051
:1035300043FD092802D101200BF024F805B030BD6D
:10354000D8B70400A8450020D941002000B585B0B7
:1035500000200B490190029003900490C9680091EB
:103560000849C1F80100487114216846FFF74CFA78
:103570000448401C017821F00401017005B000BD31
:10358000D8B70400D941002000B585B000200190D3
:103590000290039004900948406800900848017820
:1035A00041F003010170022101713C21C17014211D
:1035B0006846FFF729FA05B000BD0000D8B704003F
:1035C000DA41002030B585B00025354801950295D7
:1035D000039504953349006900900878421C0A70ED
:1035E0004C1CF8B11AF070FC02281BD3A078C8B9A3
:1035F0000CF098FDB0B905F0DFFC082803D005F009
:10360000DBFC09280ED114216846FFF7FDF9FF20E5
:103610006070207840F003002070022020713C216F
:10362000E170A0702048617800688079814214D0F0
:103630006070207908B1401E2071E07808B1401E0A
:10364000E070A07808B1401EA070207928B92078D9
:1036500020F0020040F0010020702078810706D59C
:1036600020F0020040F001002070092000E0082056
:103670000AF088FFE1780D4811B1817900290DD059
:10368000057705F099FC082803D005F095FC09287A
:1036900004D101200AF076FFFFF758FF05B030BDD6
:1036A000D8B70400D9410020C8400020A845002018
:1036B0000948017A01290CD8417AD22909D8807A9F
:1036C000B42806D22E2804D3512902D318308842B8
:1036D00001D900F003B87047CA4500200248002114
:1036E0000172417281727047CA450020F0B41548DA
:1036F00090F8225090F82360C5EB051190F8242033
:1037000006EB810490F8253090F82070C2EB02118E
:1037100003EB81010C2F0FD877B190F821000C2812
:103720000AD848B18C4207D0172D05D8172A03D8DC
:103730003B2E01D83B2B02D9F0BC00F005B8F0BC01
:1037400070470000CA4500200648042100F8201FE9
:1037500002214170162181700021C170082202717E
:1037600041717047CA4500200A480B4AD0F82A1018
:1037700091420BD890F82910022907D290F827100F
:10378000FF2903D090F82800FF2801D100F006B8E7
:1037900070470000CA450020805101000348002105
:1037A00040F8271F8180817170470000CA450020C2
:1037B0000448C17A0A2901D2002901D10521C17228
:1037C00070470000CA4500200948C17D01290BD877
:1037D000417EC82908D8007EC82805D8462903D3C9
:1037E0001E2801D3884201D900F004B870470000B8
:1037F000CA45002003480021C17573214176342158
:1038000001767047CA4500200348817E012901D90D
:103810000021817670470000CA450020044890F8D6
:10382000301009B10C2902D9022180F830107047FC
:10383000CA450020054890F82610022901D8002921
:1038400002D1022180F8261070470000CA450020EE
:103850000348407B800901D000F004B870470000A5
:10386000CA4500200548017B21F0FE02417B42F061
:103870000102027321F0FF0141737047CA45002025
:103880000348C18DC91E762901D33C21C1857047EB
:10389000CA4500201348027C417CC2EB021201EBB6
:1038A0008202837CC17CC3EB031301EB8301437D64
:1038B000012B14D8007D1E2811D3F0280FD840F218
:1038C0001A439A420BD8B2F5F07F08D3B1F5876F4F
:1038D00005D8B1F5FF7F02D31044884201D900F02A
:1038E00003B87047CA450020054800210E224175E3
:1038F0000274417412228274C1743C2101757047B4
:10390000CA450020044842F20F720188914201D951
:103910000021018070470000CA45002070B53321A6
:103920001348FBF71EFE124B00241C8000F008F920
:10393000FFF7D4FE0525DD72FFF794FF0120D87351
:10394000FFF7D2FFFFF756FF9C7600F0BFF8FFF7B6
:10395000FBFE022283F82620FFF720FF3C20D885BB
:1039600083F8302083F8314083F8325070BD000076
:10397000CA45002010B53321164819F004FC18B1CF
:10398000BDE81040FFF7CABFFFF7BCFF00F0C4F866
:10399000FFF75EFFFFF78CFEFFF70AFFFFF758FF08
:1039A00000F0DEF8FFF776FFFFF70EFFFFF72CFFC2
:1039B00000F06AF8FFF79AFEFFF73CFFFFF7D4FE2E
:1039C000FFF75EFFFFF72AFF00F09AF8BDE810400E
:1039D00000F08AB8CA4500201F4810B501780123BD
:1039E000022900D801B903704178022900D801B931
:1039F00043708178022900D801B98370C17802220E
:103A0000022900D801B9C270047A0021022C00D822
:103A100004B901720479022C00D804B90171447907
:103A2000022C00D941718479022C00D804B982712A
:103A3000C479022C00D804B9C271447A022C00D88F
:103A400004B943728172C172017B022901D8002935
:103A500000D1027310BD0000FD45002010B50D21FE
:103A60000848FBF77EFD0748002102230172C3705E
:103A70000122027082704171017142708172C172C3
:103A8000037310BDFD45002070B40F48047F457FCF
:103A9000C4EB041105EB8103817FC27FC07EC1EBC3
:103AA000011602EB8606012809D8B34207D0172C6D
:103AB00005D8172903D83B2D01D83B2A02D970BC61
:103AC00000F004B870BC7047CA45002005480121C9
:103AD000C176082101770021417716228277C177CC
:103AE00070470000CA450020044890F83210C91EF3
:103AF0001C2902D3052180F832107047CA450020E6
:103B0000044890F83110052902D3002180F83110C3
:103B100070470000CA4500200848017978290AD872
:103B20008178FA2907D831B1C178FA2903D811B1BF
:103B30004079012801D900F003B87047CA45002038
:103B400006481E21017101214171AF2181704FF49E
:103B5000FA51C1803C21C17070470000CA45002065
:103B60000448C17B022901D8002901D10121C17378
:103B700070470000CA4500200148D0F80300704794
:103B80000A41002001484078704700000A410020A7
:103B900003480021C0F81210C1820176704700006E
:103BA000F840002030B585B00C4605461421684623
:103BB000FBF7D7FC204AB2208DF800005178022C88
:103BC00002D88DF8014005E0FF2C33D149B3032022
:103BD0008DF801008DF80250184B10788DF8030015
:103BE000D3F82A008DF80400040A8DF80540000C73
:103BF0008DF8060093F82900012800D000208DF8E8
:103C0000070099B1D2F803008DF80800010A8DF879
:103C10000910000C8DF80A009078022803D20120C8
:103C200002E00420D4E700208DF80B001421684640
:103C3000FEF7EAFE05B030BD0A410020CA4500206B
:103C400070B51A4C012580B105F0BCF90E2826D0BC
:103C500005F0B8F90F2822D005F0B4F910281ED0CD
:103C600005F0B0F9072811D10DE005F0ABF90928EE
:103C700006D005F0A1F90D2802D025710C2010E026
:103C800000202071FAE705F095F940B905F09AF99E
:103C9000082802D105F0CAF808B90AF07FFEE570DD
:103CA0000D20BDE870400AF06DBC0000F840002017
:103CB00070B5C2B9124C28B1A04214D8114C657825
:103CC0008DB901E07BB9F9E769B1012B0DD063B182
:103CD000C4F80300617022700220A0700120FFF779
:103CE000AFFF012070BD002070BD074CC4F82A0052
:103CF00084F8281004F8272FA370FEF7DFFAF0E706
:103D0000805101000A410020CA4500200348417843
:103D1000012901D102214170012070470A41002090
:103D20000848417849B90849D1F82A20C0F8032049
:103D300011F8272F0270897881700121417008469F
:103D4000704700000A410020CA4500200B4910B509
:103D50004878012811D1D1F8030018B1401EC1F8EC
:103D6000030004D1FFF714FF0020FFF769FFFF21D4
:103D7000BDE810400120FFF715BF10BD0A4100202B
:103D800070B50D460178214C8A074FF0000617D513
:103D90000422827021F00601467041F00101017099
:103DA00000230122194610460CF04CF94FF6FF7023
:103DB00020811748A5F80160407DE07005F014F9F6
:103DC0004FF4AF70A5F80900B5F8010021898842C9
:103DD00002D0208105F0A2FCE87A68B102280BD15C
:103DE0000CF040F90AF08CFBE2782AB10848294629
:103DF0001A3002F003F8E670B5F80100002803D18C
:103E0000BDE8704005F0F2B870BD0000F841002038
:103E1000306B002030B40378104A9C070ED523F095
:103E2000060405238370002324F00404437044F047
:103E300001040470FF209070A1F801304FF49670D7
:103E4000A1F80900B1F801009178884204D0C0B20D
:103E5000907030BC05F062BC30BC70474842002016
:103E6000F8B50E4601782E4C8A074FF000051ED596
:103E70000622827021F00601457041F001010170B7
:103E80004FF6FF7020810123A6F8015065701A4695
:103E9000194603200CF0D6F80120A0702148407D7F
:103EA000E0702148017811B1057005F09DF864209B
:103EB000A6F80900B6F80100218988420DD02081BA
:103EC000A0781A4F70B104F09DFC034638780122A7
:103ED00000900121208905F05FFEF07AB8B1022838
:103EE00007D012E004F08EFC0346387800220090E0
:103EF000EFE70CF0B7F80AF003FBE2782AB10948C3
:103F000031461A3001F07AFFE57004F02DFCB6F866
:103F10000100002803D1BDE8F84005F067B8F8BDFE
:103F2000F8410020306B0020FC400020344200208B
:103F30002DE9F84F054600780E463E4C81074FF0BC
:103F400005094FF0010A4FF000081CD520F00601CA
:103F500085F8029085F8018041F0010129704FF643
:103F6000FF712181A6F8018084F8018084F802A005
:103F70002978404641F0040129702F490A7812B18E
:103F8000087005F031F86420A6F80900B6F80100C1
:103F9000218988421DD02081A078284F28B104F0C3
:103FA0003CFC48B104F040FC48B104F02BFC034653
:103FB00038780122009008E004F01EFC01E004F0D3
:103FC00021FC03463878002200900121208905F069
:103FD000E3FDF07A20B3022802D0032813D01BE0BF
:103FE00004F022FC30B104F035FC85F8029085F82D
:103FF000018005E085F8029085F8018004F02CFC32
:1040000084F802A008E004F0FFFB0AF079FA092224
:1040100031460B4801F0F2FE0CF024F804F0A4FB4A
:10402000B6F80100002803D1BDE8F84F04F0DEBF68
:10403000BDE8F88FF8410020FB400020344200200A
:104040004A6B002070B588B00D46044614216846BE
:10405000FBF787FA00200590069007902178134E11
:104060008A0711D5022221F00601A270607041F08A
:1040700001012170FF217170A5F80100684604F06C
:104080009FFC05A804F0E8FD4FF49670A5F8090020
:10409000B5F801007178884205D0C0B2707005AAE9
:1040A000694605F087FF08B070BD00004842002057
:1040B0002DE9F04786B0002604468DF81060ADF873
:1040C000086000780F46404D81074FF005081ED567
:1040D00020F0060084F80280667040F00100207035
:1040E00004F0F8FD012805D001231A4619461846A8
:1040F0000BF0A8FF4FF6FF702881A7F80160FF20A2
:10410000A87132486E70407DE87004F06DFF642045
:10411000A7F80900B7F801002989884230D0288122
:1041200004A902A804F0F2FC8146BDF8080038B9E1
:104130002078A67020F00600667040F00100207024
:1041400004F058FD824604F067FD214953460022E1
:104150000978CDE900010F21288907F049FFA879E6
:104160009DF8103098420BD0FF2800D02E81BDF86A
:1041700008204946288907F03BFE9DF81000A871E9
:10418000F87AB8B1022813D10BF06CFF012004F0CB
:1041900084FD18B184F80280667009E00AF0B0F975
:1041A000EA782AB1094839461A3001F027FEEE7044
:1041B00004F0DAFAB7F80100002801D104F016FF84
:1041C00006B0BDE8F0870000F8410020306B002009
:1041D0003442002070B50D460178254C8A074FF017
:1041E000000618D50622827021F00601467041F0C3
:1041F0000101017001231A46194603200BF022FF2A
:104200004FF6FF7020811B48A5F801606670407D65
:10421000E07004F0E9FEB5F801000A2801D264213B
:1042200000E0FA21A5F809102189884205D0124939
:1042300020810A78014609F0C5F8E87A78B10228A9
:104240000BD10BF00FFF0AF05BF9E2782AB10948B5
:1042500029461A3001F0D2FDE67004F085FAB5F86F
:104260000100002803D1BDE8704004F0BFBE70BD5E
:10427000F8410020306B00203442002030B4037835
:10428000134A9C070CD523F00604052383700023F2
:10429000437044F001040470FF205070A1F8013015
:1042A0004FF49670A1F80900B1F8010051788842E6
:1042B0000CD0C0B250700F2801D9012200E00022BA
:1042C000642110FB01F130BC09F07CB830BC7047B0
:1042D00048420020F0B585B000250E468DF8085004
:1042E0008DF810508DF80C500178324C8A0718D593
:1042F0001422827021F00601457041F00101017025
:1043000001231A4619460A200BF09CFE4FF6FF7057
:1043100020812948A6F801506570407DE07004F0C6
:1043200063FE9620A6F80900B6F8010021898842AC
:1043300026D0208104F0AAFD074603AA04A902A8FA
:1043400004F0B4FA67B19DF808100C20B1FBF0F24C
:1043500000FB12118DF80810C9B209B98DF80800D8
:1043600004F094FD154A01469DF8100012789DF85E
:104370000830CDE900029DF80C20208904F048FEA9
:10438000F07A78B102280BD10BF06CFE0AF0B8F885
:10439000E2782AB1084831461A3001F02FFDE57065
:1043A00004F0E2F9B6F80100002801D104F01EFE85
:1043B00005B0F0BDF8410020306B002034420020F1
:1043C0002DE9FC4100220578284CAE07134610D594
:1043D0000F2625F006058670437045F0010505702F
:1043E0000120E360C4E90430FF20A3616070A1F8FC
:1043F00001304FF4FA70A1F80900B1F801006178BA
:10440000884230D060702069411C2161052809D3A1
:104410006370A0691421B0FBF1F201FB1202401C91
:10442000521CA06160696421B0FBF1F3B0FBF1F5AF
:1044300001FB130301FB150516306061E1680326DB
:10444000B1FBF6F00A4F491C401C00F0010CE16082
:1044500087F800C06078CDE9005CB0FBF6F106FBA0
:10446000110104F0D5FDBDE8FC81000048420020A8
:10447000344200202DE9FC41002604468DF80460FA
:10448000ADF800600078484D0F46800737D504F03E
:1044900099FC28704FF0010801280BD104F026FC8C
:1044A00003280FD004F022FC012812D004F01EFCD7
:1044B00002280ED0207884F8028020F0020040F01C
:1044C00001000DE02078032120F0020040F00100FF
:1044D00005E020783C2120F0020040F00100A170AE
:1044E000667020F0040020704FF6FF7028812F487E
:1044F000A7F801602E71407DE87004F075FDFA2088
:10450000A7F80900B7F801002989884231D028812D
:1045100001A9684604F0DCFA80462878012828D1F1
:1045200004F0E4FB297988420ED004F0DFFB287107
:1045300001461F480278288905F052F92879032896
:1045400002D166700220A070BDF800204146288983
:1045500005F036F9287903280BD1607848B109F0C5
:10456000CFFFEA782AB1114839461A3001F046FCEB
:10457000EE70F87A78B1022802D0032805D008E05E
:104580000BF070FD04F0CCFB03E00BF06BFD04F0CE
:10459000BCFB04F0E9F8B7F80100002801D104F0F1
:1045A00025FDBDE8FC810000F8410020306B0020B3
:1045B0003442002030B404780246184BA5074FF06F
:1045C00000000CD5042524F006049570507044F0CA
:1045D00001041470FF22D8605A70A1F8010040F263
:1045E0001632A1F80920B1F801105A78914213D07F
:1045F000597001211971D968032901D102221A7158
:104600004A1CDA60042901D3032119715870197901
:1046100030BC024605F0E4B830BC70474842002088
:1046200070B50D460178234C8A074FF0000612D56D
:10463000052221F006018270467041F001010170EF
:104640004FF6FF7020811C48A5F801606670407D20
:10465000E07004F0C9FC9620A5F80900B5F8010047
:104660002189884202D0208105F0ACF9E87AC0B1F6
:10467000032802D002280DD011E004F035FB09F028
:104680003FFFE2785AB10C4829461A3001F0B6FBD8
:10469000E67004E004F0A8F8092009F073FF04F0C4
:1046A00063F8B5F80100002803D1BDE8704004F0BC
:1046B0009DBC70BDF8410020306B002030B4037801
:1046C0000F4A9C070CD523F00604012383700023B6
:1046D000437044F001040470FF205070A1F80130D1
:1046E0004FF49670A1F80900B1F8010051788842A2
:1046F00004D0C0B2507030BC05F064B930BC704713
:104700004842002070B50D460178234C8A074FF0CF
:10471000000612D53C2221F006018270467041F05D
:10472000050101704FF6FF7020811C48A5F801605B
:104730006670407DE07004F057FC9620A5F80900F3
:10474000B5F801002189884202D0208105F0AAF93C
:10475000E87AC0B1032802D002280DD011E004F09D
:10476000C3FA09F0CDFEE2785AB10C4829461A3056
:1047700001F044FBE67004E004F036F8092009F08B
:1047800001FF03F0F1FFB5F80100002803D1BDE8F7
:10479000704004F02BBC70BDF8410020306B00204D
:1047A00030B40378104A9C070ED523F00604012389
:1047B0008370002324F00404437044F00104047067
:1047C000FF205070A1F801304FF49670A1F8090055
:1047D000B1F801005178884204D0C0B2507030BCAA
:1047E00005F060B930BC70474842002070B50D46F6
:1047F0000178144C8A0710D521F006023C21817003
:104800000021417042F0010202704FF6FF702081DA
:10481000A5F80110617004F0E7FB4FF49670A5F85D
:104820000900B5F801002189884202D0208105F0F5
:10483000A3FDB5F80100002803D1BDE8704004F0E5
:10484000D5BB70BDF841002030B403780F4A9C07F7
:104850000CD523F00604012383700023437044F039
:1048600001040470FF205070A1F801304FF49670DD
:10487000A1F80900B1F801005178884204D0C0B213
:10488000507030BC05F078BD30BC70474842002005
:1048900070B50D460178224C8A074FF0000618D5F6
:1048A0000822827021F00601467041F0010101707A
:1048B00002230322012118460BF0C4FB4FF6FF70C0
:1048C00020811848A5F801606670407DE07004F012
:1048D0008BFB6420A5F80900B5F801002189884206
:1048E00002D0208106F00CF8E87A78B102280BD1CA
:1048F0000BF0B8FB09F004FEE2782AB1094829461A
:104900001A3001F07BFAE67003F02EFFB5F80100D3
:10491000002803D1BDE8704004F068BB70BD000002
:10492000F8410020306B002030B403780F4A9C0718
:104930000CD523F00604022383700023437044F057
:1049400001040470FF205070A1F80130C820A1F8C4
:104950000900B1F801005178884204D0C0B250700B
:1049600030BC05F0CDBF30BC70470000484200208D
:104970002DE9F843044600260D468DF80060684690
:1049800004F000F807462078DFF89880810711D5F9
:104990000821A17020F00600667040F00100207030
:1049A0004FF6FF71A8F80810A5F8016088F80160BB
:1049B00004F01AFBFA20A5F809001FB104F04CFA24
:1049C000C0B102E0A67001206070B5F80130B8F8FF
:1049D00008108B4209D0A8F808309DF80020022F5B
:1049E00010D00021184604F0F7FDE87A90B10228B3
:1049F0000AD00DE003F0C0FE022801D004F042FA14
:104A0000BDE8F8830121EDE709F07AFD03F04AFEE5
:104A100003F0AAFEB5F801000028F1D104F0E6FA8F
:104A2000EEE70000F841002030B40378114A9C07FB
:104A30000CD523F00604072383700023437044F051
:104A400001040470FF205070A1F801309620A1F8F5
:104A50000900B1F801005178884208D0C0B228217D
:104A6000B0FBF1F1507030BCC20804F0B5BD30BCF1
:104A7000704700004842002070B50D460178194C7F
:104A80008A0710D521F006020321817000214170B0
:104A900042F0010202704FF6FF702081A5F801106C
:104AA000617004F0A1FAFA20A5F80900B5F8010038
:104AB0002189884202D0208105F072FF04F0CCF9F0
:104AC00030B12089082803D309F01AFD03F0EAFD6C
:104AD000B5F80100002803D1BDE8704004F086BAA3
:104AE00070BD0000F841002030B403780F4A9C07E5
:104AF0000CD523F00604022383700023437044F096
:104B000001040470FF205070A1F801304FF496703A
:104B1000A1F80900B1F801005178884204D0C0B270
:104B2000507030BC05F03CBF30BC7047484200209C
:104B30002DE9F04786B0002604468DF81060ADF8E8
:104B4000086000783D4D0F4680074FF005081FD5DF
:104B500004F038F92870801E0C28207820F002001C
:104B600040F0010002D884F8028000E0A670667070
:104B700020F0040020704FF6FF702881A7F8016034
:104B8000FF2068712E486E70407DE87004F02CFAAA
:104B90006420A7F80900B7F801002989884229D0C4
:104BA000288104A902A803F093FF81462878801E7B
:104BB0000C281FD804F01EF8824604F02DF8214975
:104BC000534600220978CDE900012978288907F0A9
:104BD0000FFA68799DF8103098420BD0FF2800D06A
:104BE0002E81BDF808204946288907F001F99DF873
:104BF00010006871F87AB8B1022813D1012004F0CE
:104C00003FF818B184F80280667009E009F078FC7A
:104C1000EA782AB10A4839461A3001F0EFF8EE7006
:104C20000BF020FA03F0A0FDB7F80100002801D135
:104C300004F0DCF906B0BDE8F0870000F841002080
:104C4000306B0020344200207CB5047803461B4AB8
:104C5000A5074FF000000CD5092524F006049D702F
:104C6000587044F001041C70FF23D0605370A1F809
:104C700001004FF4FA73A1F80930B1F8011053782C
:104C8000994219D0D3680E21B3FBF1F401FB143122
:104C9000891CD1705B1CD36050703C22B0FBF2F3D6
:104CA00002FB13021823B0FBF3F4CDE9002003FB51
:104CB0001403002207F0B6F87CBD00004842002033
:104CC00070B50D460178234C8A074FF0000618D5C1
:104CD0000822827021F00601467041F00101017046
:104CE00002230322012118460BF0ACF94FF6FF70A6
:104CF00020811948A5F801606670407DE07004F0DD
:104D000073F99620A5F80900B5F8010021898842B9
:104D100004D012492081097807F0BCFFE87A78B105
:104D200002280BD10BF09EF909F0EAFBE2782AB1D8
:104D3000094829461A3001F061F8E67003F014FDC5
:104D4000B5F80100002803D1BDE8704004F04EB969
:104D500070BD0000F8410020306B0020344200207C
:104D600030B40378104A9C070CD523F006040123C5
:104D700083700023437044F001040470FF205070DE
:104D8000A1F801304FF49670A1F80900B1F80100C4
:104D90005178884206D0C0B2507030BC00F001019A
:104DA00007F078BF30BC7047484200202DE9FC4135
