:020000040007F3
:107000007858002049740700517407005374070032
:1070100055740700577407005974070000000000FA
:107020000000000000000000000000005B7407008A
:107030005D740700000000005F74070061740700C2
:1070400063740700637407006374070063740700C8
:1070500063740700637407006374070063740700B8
:1070600063740700637407006374070063740700A8
:107070006374070063740700637407006374070098
:10708000798F0700CD8C07006374070063740700D5
:10709000F18C070063740700F58C07006374070028
:1070A0006374070063740700637407006374070068
:1070B0006374070063740700000000000000000014
:1070C0006374070063740700637407006374070048
:1070D0006374070063740700637407000000000016
:1070E00000000000000000000000000000000000A0
:1070F0000000000000000000000000000000000090
:10710000000000000000000000000000000000007F
:10711000000000000000000000000000000000006F
:10740000DFF80CD000F07AF8004800478DA507009F
:1074100078580020056885F308884068FF2464B226
:10742000EFF30585002D01D1A64600472546064607
:1074300021273FBAF0B40024002500260027F0B42D
:10744000F92040B200470000064880470648004740
:10745000FEE7FEE7FEE7FEE7FEE7FEE7FEE7FEE704
:10746000FEE7FEE7198D070001740700202A04DB00
:10747000203A00FA02F1002070479140C2F1200347
:1074800020FA03F319439040704740EA01039B0739
:1074900003D009E008C9121F08C0042AFAD203E089
:1074A00011F8013B00F8013B521EF9D27047D2B2ED
:1074B00001E000F8012B491EFBD270470022F6E7DD
:1074C00010B513460A4604461946FFF7F0FF20465A
:1074D00010BD421C10F8011B0029FBD1801A704717
:1074E00030B504460020034600E05B1C934203D203
:1074F000E05CCD5C401BF8D030BD0000064C074D71
:1075000006E0E06840F0010394E807009847103473
:10751000AC42F6D3FFF778FF40D3070060D30700F3
:107520002DE9F0438BB08046129D15F9046B00964F
:1075300014461F4689462B4602A81146424600F0D3
:10754000B8FC02A80146129A00F0A3FC404641464E
:1075500002AA129B00F08DFC2046214602AA129B33
:1075600000F087FC2B46384639464A46009600F024
:10757000A0FC02A83946129A00F08BFC02A8014632
:1075800042462B46009600F094FC02A80146224693
:107590002B46009600F08DFC2046214642462B46A5
:1075A000009600F086FC484649462246129B00F0B1
:1075B00060FC2046414602AA2B46009600F079FC6A
:1075C000384639462246129B00F053FC384639466D
:1075D0004A462B46009600F06CFC204602A9324633
:1075E00000F031FE0BB0BDE8F083F0B589B01C4669
:1075F00007460E461546684611461A4600F049FCF5
:10760000384639466A46234600F033FC68466946E8
:107610002A46234600F02DFC304631466A46234672
:1076200000F027FC09B0F0BD1AB1013A8B5C83541D
:10763000FAE770472DE9F0478846B3F902101F4674
:107640000825CB1D202493FBF5F51F31954291FBB6
:10765000F4F44FFA84F928BF15460646494600F06F
:1076600073FA2A4630464146FFF7DEFFB7F902308B
:10767000ED009D4220D9ED1A06EB840100228E42D6
:107680000AD251F8040D20FA05F313430B60C5F13B
:10769000200300FA03F2F2E72437384631464A461F
:1076A00000F05EFA012807D0304631463A464B4694
:1076B000BDE8F04700F01CBFBDE8F0872DE9F047BA
:1076C00093F9006092B0044689461046314615464B
:1076D000984600F06FFA002840F0978002A84946CB
:1076E000424600F0D6FB43460AA8214602AA00F013
:1076F000C0FB02A80146424600F0CBFB4346484689
:1077000049462A4600F0B5FB08F1040728462946F9
:10771000424600F0BEFB204621462A463B460096E4
:1077200000F0F6FA284629462A463B46009600F025
:10773000EFFA284621462A463B46009600F0B9FB60
:10774000204621462A46434600F093FB2846214620
:1077500022463B46009600F0DBFA20463B46009668
:1077600021462A4600F0D4FA2368DB07204613D5C9
:10777000334621463A4600F0BBF931468246204660
:1077800000F054FD06F18043013B54F8230040EA29
:10779000CA7044F8230002E0314600F047FD284655
:1077A0002146424600F075FB284629460AAA3B4678
:1077B000009600F07EFB284629460AAA3B46009622
:1077C00000F077FB0AA801462A463B46009600F0E7
:1077D00070FB204621460AAA434600F04AFB02A855
:1077E00002463B462146009600F063FB20462946B0
:1077F000324600F028FD28464946324600F023FD77
:10780000484602A9324600F01EFD12B0BDE8F087DE
:107810000048704790D207002DE9F04FEFB01E46A8
:10782000789C059023780493B4F9023092461F3374
:10783000202293FBF2F3DBB206939DF9187094F9C2
:10784000012007F1FF3926AB002543F829506EAB24
:1078500003EB89034EA88B46314643F8805C43F81E
:10786000605CFFF7E1FE94F9012056A8B118FFF71C
:10787000DBFE9DF910604EA8314600F09BF9804672
:10788000002840F02F8156A8314600F093F90546B4
:10789000002840F0258104F1240840464EA93A46CC
:1078A00000F05EF9012840F01D81404656A93A4695
:1078B00000F056F90128089040F014813B461EA8BC
:1078C00056A9424600F03DFA0DF1380C6046594683
:1078D000524623464CF82950CDF80CC0FFF7AAFEBB
:1078E000DDF80CC00097604661461EAA4346CDF8FD
:1078F00024C00DF5BC7900F0AAFA4346009716A8FB
:107900004EA91EAA00F0A3FA48463246059900F097
:107910009AFCB300039309EB030B039A059B5846AB
:107920009918324600F08FFC04F1440319463246A0
:1079300036A8079300F087FC04EB860132463EA888
:10794000443104F1040A00F07EFC494600961EA86A
:1079500036AA534600F0ADFA4A465B4636A83EA921
:107960000094FFF7DDFD1EA801463346524600F0A5
:10797000E8F91EAA484659462346FFF736FEDDF8C9
:1079800024C0079B0B936046059B0C933946CDF8AA
:1079900014C00A95CDF8349000F026FC394605460F
:1079A00016A800F021FCA842B8BF284685B2DDF831
:1079B00014C06F1E3FB26046394600F0C9FD39461B
:1079C00010F1000916A818BF4FF0010900F0C0FD22
:1079D000002814BF0223002343EA09090DF1280BF4
:1079E00032465BF8297026A8394600F02CFC039B30
:1079F0003246F9182EA800F026FC31461EA800F0E9
:107A0000A3F8023D089B1E93AEB237B2002F44DBB1
:107A100023461EAAD4F8A45026A82EA9A847394662
:107A20000EA800F095FD3946051C16A818BF0125C3
:107A300000F08EFD002814BF022300231D430AAB73
:107A400053F8257037B39DF9105036A839462A46A9
:107A500000F0F9FB039B3EA8F9182A4600F0F3FB5F
:107A600036A83EA91EAA2346FFF7BFFD46A826A9B1
:107A700036AA5346009500F01CFA36A83EA926AA5D
:107A80002EAB0094FFF74CFD1EA8014646AA2346E4
:107A900000F0EFF9013EB6B2B7E79DF910501EA80D
:107AA000014652462B4600F04CF9234626A82EA943
:107AB0001EAAFFF79AFD9DF91840404626A92246C6
:107AC00000F04EF8012805D026A80146424623467C
:107AD00000F00EFD26A84EA92A4600F056F802E056
:107AE000404600E028466FB0BDE8F08F000000007F
:107AF000C3F10803DB0070B501330446002003A581
:107B00005B1920C940CAAD1920C4184720C940CA12
:107B1000754120C420C940CA754120C420C940CA4B
:107B2000754120C420C940CA754120C420C940CA3B
:107B3000754120C420C940CA754120C420C940CA2B
:107B4000754120C4404170BD10B5002253B28B4234
:107B500005DA1BB2002440F823400132F6E710BDDD
:107B600010B5013AD2B253B2002B09DB1BB250F868
:107B7000234051F823309C4204D8F2D2FF2002E087
:107B8000002000E0012040B210BD013A30B5D2B271
:107B9000002453B2002B09DB1BB2013A51F82350E9
:107BA00050F823306B401C43D2B2F2E7B4FA84F0B1
:107BB000400930BD10B500231A465CB28C4204DA8D
:107BC00050F8244001332243F7E7B2FA82F040092B
:107BD00010BD00002DE9F043A3B09846019112AB0F
:107BE0004146074610469146009300F0FDFAC0EB6F
:107BF000881086B2454C33B21C40002CBEBF04F145
:107C0000FF3464F01F040134202593FBF5F5EDB239
:107C10006DB2A4B202A8294624B2FFF795FF28B29C
:107C200002AB002C03EB800010DD0022134643451D
:107C300010D259F8235005FA04F10A4340F82320E2
:107C4000C4F1200225FA02F20133F0E74946424628
:107C500000F0F9FA0FFA88F502AB4FEA4509012462
:107C600003EB8505330444D40022114653B24B453F
:107C700022DA0DF1880E0EEB840E0DF1880C18B28D
:107C80005EF888EC0CEB83035EF820E053F8803C50
:107C9000C3EB0E035B1A734502D08CBF0121002198
:107CA000C4F1010E0DF1880C0CEB8E0E01325EF862
:107CB00088EC4EF82030D9E7621A544202A84146B7
:107CC000544100F0B3FA22AA08F1FF3302EB830318
:107CD00002EB8802284652F8801C53F8802C013EA3
:107CE00042EAC172414643F8802CB6B200F09EFAD7
:107CF000B8E722AB03EB8404384654F8881C4246AC
:107D000000F0A1FA23B0BDE8F08300BF1F0000809F
:107D100070B59DF910401D4623460646FFF7E8FE64
:107D200030B9284631462246FFF71AFF012807D00E
:107D3000304631462A462346BDE8704000F0D8BBA5
:107D400070BDF0B50646A1B00F4608461946154667
:107D50001C46FFF72FFF20B130462146FFF7F4FE07
:107D600073E068463946224600F06DFA08A82946B5
:107D7000224600F068FA10A82146FFF7E5FE01232D
:107D800018A821461093FFF7DFFE684608A922468F
:107D9000FFF7E6FE002853D0009BDA0704D46846BC
:107DA000214600F043FA26E0089BDB0704D408A82C
:107DB000214600F03BFA3DE000281EDD08AA2346DC
:107DC0006946684600F094FB6846214600F02EFAAA
:107DD00010A818A92246FFF7C3FE002805DA10A84C
:107DE00001462A462346FFF783FE10A8014618AA3B
:107DF000234600F07DFB10A81DE008A86A46234634
:107E0000014600F075FB08A8214600F00FFA18A8FB
:107E100010A92246FFF7A4FE002805DA18A801469B
:107E20002A462346FFF764FE18A8014610AA2346F7
:107E300000F05EFB18A82946224600F06BFCA4E780
:107E4000304610A9224600F0FEF921B0F0BD70B511
:107E500090B006469DF950401D466846234600F006
:107E60003AF8304669462A462346FFF7B3FE10B07B
:107E700070BD30B51C4691B0054693F90030684698
:107E800000F029F8D4F8AC3028466946984711B07C
:107E900030BD30B5144691B0054692F900206846D1
:107EA00000F0DEF9D4F8AC3028466946984711B0A6
:107EB00030BD70B59DF910401D462346064600F0C2
:107EC00017FB38B1304631462A462346BDE870409C
:107ED000FFF70EBE70BD2DE9F04F08B4F8CA04B428
:107EE00051F8042BA3FB028940F8048B4FF0000AE1
:107EF000E4FB629A4FF0000BE5FB62AB4FF0000C25
:107F0000E6FB62BC4FF0000EE7FB62CE51F8042B9B
:107F10004FF00008E3FB628940F8048BE4FB629AAF
:107F2000E5FB62ABE6FB62BCE7FB62CE51F8042BDB
:107F30004FF00008E3FB628940F8048BE4FB629A8F
:107F4000E5FB62ABE6FB62BCE7FB62CE51F8042BBB
:107F50004FF00008E3FB628940F8048BE4FB629A6F
:107F6000E5FB62ABE6FB62BCE7FB62CE51F8042B9B
:107F70004FF00008E3FB628940F8048BE4FB629A4F
:107F8000E5FB62ABE6FB62BCE7FB62CE40F8049B1C
:107F900040F804AB40F804BB40F804CB40F804EBD5
:107FA0000CBC052B00F01E810C68A0F11400A1F19F
:107FB0001401A2F1140252F804EB4FF0000550F83E
:107FC000046BE4FB6E5652F804EB50F8047BE4FBC0
:107FD0006E6752F804EB50F8048BE4FB6E7852F8AD
:107FE00004EB50F8049BE4FB6E8952F804EB50F864
:107FF00004ABE4FB6E9AA0F1140052F8044B51F864
:1080000004EB4FF0000CE4FB6EC540F804CB51F8D4
:1080100004EBE4FB6E5640F8045B51F804EBE4FB20
:108020006E6740F8046B51F804EBE4FB6E7840F89F
:10803000047B51F804EBE4FB6E8940F8048B51F8A3
:1080400004EBE4FB6E9AA0E80006062B00F0CA8061
:108050000C68A0F11800A1F11801A2F1180252F861
:1080600004EB4FF0000550F8046BE4FB6E5652F839
:1080700004EB50F8047BE4FB6E6752F804EB50F815
:10808000048BE4FB6E7852F804EB50F8049BE4FB9D
:108090006E8952F804EB50F804ABE4FB6E9A52F888
:1080A00004EB50F804BBE4FB6EABA0F1180052F8EF
:1080B000044B51F804EB4FF0000CE4FB6EC540F8A4
:1080C00004CB51F804EBE4FB6E5640F8045B51F826
:1080D00004EBE4FB6E6740F8046B51F804EBE4FB3F
:1080E0006E7840F8047B51F804EBE4FB6E8940F8AD
:1080F000048B51F804EBE4FB6E9A40F8049B51F8B2
:1081000004EBE4FB6EABA0E8000C072B6AD008B4CC
:108110000C68A0F11C00A1F11C01A2F11C0252F894
:1081200004EB4FF0000550F8046BE4FB6E5652F878
:1081300004EB50F8047BE4FB6E6752F804EB50F854
:10814000048BE4FB6E7852F804EB50F8049BE4FBDC
:108150006E8952F804EB50F804ABE4FB6E9A52F8C7
:1081600004EB50F804BBE4FB6EAB52F804EB50F8A0
:1081700004CBE4FB6EBCA0F11C0052F8044B51F898
:1081800004EB4FF00003E4FB6E3540F8043B51F87C
:1081900004EBE4FB6E5640F8045B51F804EBE4FB9F
:1081A0006E6740F8046B51F804EBE4FB6E7840F81E
:1081B000047B51F804EBE4FB6E8940F8048B51F822
:1081C00004EBE4FB6E9A40F8049B51F804EBE4FBEB
:1081D0006EAB40F804AB51F804EBE4FB6EBCA0E8D6
:1081E000001808BCBDE8F08F0139C9B24BB2002BB2
:1081F0000BDA013111F0FF0315D059B201F18043C0
:10820000013B50F82320002304E050F82330002BDA
:10821000EAD0EEE712B152080133FBE7481E03EB48
:10822000401080B200E0184600B2704700EB8101B8
:108230000023884206D251F8042D43EA52030B6012
:10824000D307F6E7704730B5002463B2934206DAED
:108250001BB2013451F8235040F82350F5E730BDEC
:108260002DE9F04FB1E8005E06B4AAFB09124FF009
:108270000003EBFB69234FF00004ECFB69344FF083
:108280000005EEFB69454FF00006EBFB6A63ECFB73
:108290006A344918524176415B41A9FB09784FF095
:1082A000000949F1000918EB0108A0E88001AAFBC8
:1082B0000A78574158EB0608A0E88001EEFB6A45B2
:1082C0004FF0000A4AF1000A4FF00001ECFB6B147A
:1082D000EEFB6B454FF00002EEFB6C255FEA59099F
:1082E0004941644152416D4149F10009EBFB6B3A50
:1082F0001AEB010AA0E80804ACFB0C6A66415AEBD1
:10830000020AA0E84004AEFB0E6A6E415AEB090A6D
:10831000A0E8400406BC052A00F0E680A0F11400A5
:10832000A1F11401B1E8E043A5FB0E344FF00005C4
:10833000E6FB6E454FF00006E7FB6E564FF0000778
:10834000E8FB6E674FF00008E9FB6E784FF000091C
:10835000DB1864416D4176417F4158EB080859F1C3
:10836000000950F804CB13EB0C0350F804CB54EB8A
:108370000C0450F804CB55EB0C0550F804CB56EB2D
:108380000C0650F804CB57EB0C0758F1000859F1D4
:108390000009A0F11400EEFB0E89A0E8F803062AFC
:1083A00000F0A280A0F11800A1F11801B1E8E047A7
:1083B000A5FB0E344FF00005E6FB6E454FF00006BE
:1083C000E7FB6E564FF00007E8FB6E674FF00008C2
:1083D000E9FB6E784FF00009EAFB6E894FF0000A66
:1083E000DB1864416D4176417F4158EB080859EB39
:1083F00009095AF1000A50F804CB13EB0C0350F8AA
:1084000004CB54EB0C0450F804CB55EB0C0550F89E
:1084100004CB56EB0C0650F804CB57EB0C0750F886
:1084200004CB58EB0C0859F100095AF1000AA0F1ED
:108430001800EEFB0E9AA0E8F807072A54D0A0F126
:108440001C00A1F11C01B1E8E04FA5FB0E344FF078
:108450000005E6FB6E454FF00006E7FB6E564FF059
:108460000007E8FB6E674FF00008E9FB6E784FF0FD
:108470000009EAFB6E894FF0000AEBFB6E9A4FF0A1
:10848000000BDB1864416D4176417F4158EB0808D1
:1084900059EB09095AEB0A0A5BF1000B50F804CBBF
:1084A00013EB0C0350F804CB54EB0C0450F804CB42
:1084B00055EB0C0550F804CB56EB0C0650F804CBEA
:1084C00057EB0C0750F804CB58EB0C0850F804CBD2
:1084D00059EB0C095AF1000A5BF1000BA0F11C00EA
:1084E000EEFB0EABA0E8F80FBDE8F08F0000000037
:1084F000C3F10803DB0070B50133002403A500BFFE
:108500005B1920C940CAAD1B20C0184720C940CA0A
:10851000B54120C020C940CAB54120C020C940CAC9
:10852000B54120C020C940CAB54120C020C940CAB9
:10853000B54120C020C940CAB54120C020C940CAA9
:10854000B54120C06441B4FA84F0400970BD00BF59
:108550004A11012301F01F0150F822008B401840FE
:1085600070470000F0B50C4689B008220646FFF7B8
:108570006AFEE36A0393236B0493636B0593A36B17
:108580000693E36B0793002769466A46082368460B
:10859000029701970097FFF7ABFA314605466A4606
:1085A00008233046FFF7A4FA236B0393636B04930D
:1085B000A36B0593E36B0693054469466A4608235B
:1085C00068460797FFF794FA314605446A46082340
:1085D0003046FFF78DFA236A0093636A0193A36A1A
:1085E0000293A36B0693E36B0793054431466A46F7
:1085F00008233046059704970397FFF779FA636AD3
:108600000093A36A0193E36AA26B0293636B0393E3
:1086100004920693E26B236A059205440793314660
:108620006A4608233046FFF763FAE36A0093236B38
:108630000193636B0293236A0693A36A079305442D
:1086400031466A4608233046059704970397FFF79B
:108650004FFF236B0093636B0193A36B0293E36B58
:108660000393636A0693E36A07932D1A31466A46B9
:108670000823304605970497FFF73AFF636B009392
:10868000A36B0193E36B0293236A0393636A0493DE
:10869000A36A0593236B07932D1A31466A46082374
:1086A00030460697FFF724FFA36B0093E36B01931B
:1086B000636A0393A36A0493E36A0593636B079366
:1086C0002D1A314630466A46082302970697FFF76F
:1086D0000FFF2D1A16D5304631460D4A0823FFF7F5
:1086E00007FA4519F7D410E0094831460822FFF788
:1086F00037FA012809D030463146054A0823FFF7EA
:10870000F7FE2D1A002DEFD0F5E709B0F0BD00BF40
:1087100094D20700F8B5036813F0010506460F462A
:10872000144605D001463A462346FFF7E1F90546CF
:1087300030462146FFF77AFD45B104F18042013A07
:1087400056F8223043F0004346F82230F8BD2DE9B8
:10875000F04115468AB00446884602A8002120222E
:10876000FEF7AEFE2E780323204641462A462F1DF3
:1087700076B20293FFF78DFB2046214602AA3B46C4
:108780000096FFF796FB2046214642462B46FFF710
:1087900070FB00962046214605F184023B46FFF718
:1087A000B7FA0AB0BDE8F0810EB50C4908688968CF
:1087B000009041F28830CDE901010949684602F094
:1087C00045FF08B100F024FD064802F003FF08B1A0
:1087D00000F01EFD02F02CFF0EBD0000ECD00700E3
:1087E000F58707002B2C00200148007802F014BF09
:1087F0002B2C0020BFF34F8F05480168054A01F478
:10880000E06111430160BFF34F8F00BFFDE700003F
:108810000CED00E00400FA052DE9F04786B00026D3
:10882000824643480196029603960496806800901B
:1088300008780C464FF01025E3285BD16078552866
:1088400058D1A078012855D1E078732852D12079E9
:1088500040284FD1607A012720B101281FD002287B
:1088600042D045E068695422A0F58048414631482D
:10887000FEF70BFE40460022012102F0AFFBB0BB29
:10888000FF2204212B48FEF712FE686900231522FF
:108890002849A0F5804002F003FC28B32AE0207AA2
:1088A0008146FF2826D0E079FF2823D0A079FF2831
:1088B00020D06079FF281DD068695422A0F5804837
:1088C00041461C48FEF7E1FD1A480023152280F8B6
:1088D0000090E1794170A17981706179C170404661
:1088E000144902F0DDFB10B18DF8017002E0FFE7E2
:1088F0008DF80160607A8DF802000F4801F072FF78
:1089000068691422A0F580400068010E8DF80310FC
:10891000010C8DF80410010A8DF805108DF8060081
:108920006946504601F040F806B0BDE8F087000007
:1089300094D007006032002020A1070000F01F0241
:10894000012191404009800000F1E020C0F8801230
:10895000704700F01F02012191404009800000F1A2
:10896000E020C0F80011704700F01F020121914083
:108970004009800000F1E020C0F80012704749076C
:10898000090E002806DA00F00F0000F1E02080F860
:10899000141D704700F1E02080F8001470470000BB
:1089A000BFF34F8F05480168054A01F4E0611143A8
:1089B0000160BFF34F8F00BFFDE700000CED00E04A
:1089C0000400FA0510B54FF01020214940698C1CB5
:1089D000A0F58040006DC1F802002078202835D233
:1089E0006178202905D3A178202902D3E1782029B4
:1089F0002CD20121217102F04DFE207802F05AFEA6
:108A0000E0780128607810D0202804D202F042FEDD
:108A1000607802F047FEA078202817D202F03AFED4
:108A2000A078BDE8104002F03DBE202804D202F03C
:108A300031FE607802F03EFEA078202806D202F0D7
:108A400029FEA078BDE8104002F034BE10BD000041
:108A5000242C002010B50F4C2079012812D1207849
:108A600002F018FE207802F01DFEE1786178022005
:108A7000202908D3A178202904D2890001F1A0413E
:108A8000C1F8000710BD890001F1A041C1F800073D
:108A9000F0E70000262C002010B5184C20790128A2
:108AA0002BD1207802F0F6FD207802F003FEE0786A
:108AB0000128607810D0202804D202F0EBFD607805
:108AC00002F0F0FDA078202817D202F0E3FDA07894
:108AD000BDE8104002F0E6BD202804D202F0DAFD25
:108AE000607802F0E7FDA078202806D202F0D2FDDF
:108AF000A078BDE8104002F0DDBD10BD262C00209E
:108B000009480178491CC9B2017032290AD30021F1
:108B10000170427812B14170FFF79CBF0121417092
:108B2000FFF7BABF70470000242C002070B5A0B03A
:108B30000024064653480D4601940294039404947D
:108B40000168009106940794089409944068059080
:108B5000182119A8FEF7B2FC4A493C220C310AA898
:108B6000FEF793FC2878FC287ED14FF01020542289
:108B700041690AA8A1F58041FEF787FC9DF82D0008
:108B80008DF801009DF82C008DF802009DF837004B
:108B90008DF803009DF836008DF804009DF835002F
:108BA0008DF805009DF834008DF806009DF83C0016
:108BB0008DF807009DF841008DF808009DF84000F1
:108BC0008DF809009DF846008DF80A009DF84500D3
:108BD0008DF80B009DF844008DF80C009DF84A00BC
:108BE0008DF80D009DF849008DF80E009DF84800A5
:108BF0008DF80F009DF851008DF810009DF8500081
:108C00008DF8110001258DF812508DF813501422A3
:108C10006946304600F0C8FE9DF85A008DF81500F0
:108C20009DF859008DF816009DF858008DF8170032
:108C30008DF81C409DF878109DF860008DF81D108F
:108C40008DF818009DF879108DF81E108DF81940D8
:108C50009DF87A108DF81A4002208DF81F108DF8BB
:108C60001B009DF87B1000E00AE08DF826008DF8CF
:108C700020108DF82750142205A9304600F094FEEC
:108C800020B070BD94D0070070B54FF010200025C3
:108C900041695422A1F580410C460B48FEF7F5FBD3
:108CA0000949086C401C0DD14FF40070086420463F
:108CB0000023152202F0F4F920B94CF2503001F0F3
:108CC00091FD0125284670BD603200200748002133
:108CD000C0F84011C0F84411C0F84811C0F84C1158
:108CE000C0F80011C0F8041103F098BF0010014053
:108CF00003F00CBF074810B5406830B1804700282A
:108D000007D0BDE8104000F083BABDE8104001F084
:108D100023BB10BD9C2C002070B58A480023021D87
:108D20000178101D0125062907D11478240704D1E4
:108D30000478C4F30314032C02D0062904D00FE0F6
:108D4000824E814C74670EE01478240708D10478B1
:108D5000C4F30314032C06D0042C04D0052C02D039
:108D6000062909D010E04FF08054D4F84442784EE0
:108D7000C4F34234346002E01478240704D1047848
:108D8000C4F30314032C02D0062906D011E0714C61
:108D9000266826F0807626600EE01478240708D135
:108DA0000478C4F30314032C06D0042C04D0052C3F
:108DB00002D006290AD011E04FF08044C4F80C31EB
:108DC000C4F81031624C241F236002E01478240799
:108DD00004D10478C4F30314032C02D0062905D06F
:108DE0000CE05B4A0321643211600AE01478240726
:108DF00004D10478C4F30314032C02D006290DD047
:108E00006AE0554A05211160534978310D60524995
:108E100008310B603F21121D116002E01178090733
:108E20005AD10078C0F30310052855D14B4800688B
:108E30004B4908604948001D0068091D0860474803
:108E400008300068091D086044480C300068091D9E
:108E50000860424810300068091D08603F4814301F
:108E60000068091D08603D48183000683C49203101
:108E700008603A481C300068091D086037482030F7
:108E80000068091D0860354824300068091D086025
:108E9000324828300068091D086030482C300068CE
:108EA000091D08602D48303000682D4940310860A8
:108EB0002A4834300068091D0860284838300068A6
:108EC000091D086025483C300068091D08602348DA
:108ED00040300068091D08601E487438016841F47C
:108EE00070010160BFF34F8FBFF36F8F4FF0102100
:108EF000D1F80C02C00720D01A4A15601A4804683D
:108F0000002CFCD0D1F80C4224F00104C1F80C4232
:108F100001680029FCD0136001680029FCD0BFF370
:108F20004F8F0C48F0380168104A01F4E06111439A
:108F30000160BFF34F8F00BFFDE70E490C4808608A
:108F400070BD0000E00F00F00DF0ADBA00C00740AA
:108F50003C050040FCED00E0105600400404001009
:108F600020C5004004E5014000E401400400FA058A
:108F70000090D003B02C0020094882B0D0F8040340
:108F80004FF0000110F0010F07D0064801600068A3
:108F900000900548406802B0004702B070470000EA
:108FA00000000140000101405C2C002002E008C8E4
:108FB000121F08C1002AFAD170477047002001E053
:108FC00001C1121F002AFBD1704700000121202897
:108FD00003DA81400548014003E0402802DA2038E6
:108FE000814009B10120704700207047FC06FFBC9A
:108FF0002DE9FC47002517880646158090F82D00BE
:109000001446894630B13A462146484600F06EFB88
:10901000050009D1B0784FF00C0A18B32088C84673
:10902000001DB84202D95046BDE8FC87684679DF8A
:109030000028F9D12088032108F800102088192180
:10904000401C80B2208008F800102088401C80B2AC
:10905000208000EB0801BDF8000003F087FE2188A6
:1090600008442080F0780222C8B1218896F90330A4
:1090700001F1030C4846BC45D5D8425421884FF035
:10908000010C491C89B2218000F801C02188491CCB
:1090900089B2218009F801302088401C2080706846
:1090A000B8B1218890F9003001F1030C4846BC4565
:1090B000B9D8425421880A22491C89B221804254DD
:1090C0002188491C89B2218009F801302088401C80
:1090D0002080308950B1CDE900474B46062202215D
:1090E00006F1080003F0A4FE05009DD1308A50B1BE
:1090F000CDE900474B460722032106F1100003F09B
:1091000097FE050090D1308B50B1CDE900474B461A
:109110001522142106F1180003F08AFE050083D100
:10912000306A30B13B462246494600F0DDFC05007E
:10913000DBD1706A30B13B462246494601F035FA30
:109140000500D2D196F82C0038B13B46224649465C
:10915000304603F0C5FA0500C7D1307838B13B4638
:1091600022464946304601F052FA0500BDD1284654
:109170005AE7000030B5244D97B0287B800702D510
:10918000002017B030BD0024109411940E940F9459
:10919000159415A816946DDF38216846FEF78EF9F0
:1091A00012944FF6F800ADF848000DF155001490F8
:1091B00013940620ADF84C0012A9099102218DF8F4
:1091C00000108DF802408DF803000120ADF810006A
:1091D0000D480021801D0590684600F0DEF900284A
:1091E000CFD18DF840402820ADF842008DF83840AE
:1091F0000F94ADF844400EA873DF0028C1D1E86891
:1092000040F00200E860BBE7402C0020FFF7C8FBFD
:10921000FFF7C6FB2DE9F84F254C81469246608842
:109220000E46814241D800274FF6FF788DF8007036
:10923000684600F02BF922786078A188884201DA2C
:10924000401C00E00020C0B2904204D19DF8000014
:1092500000F040F927E065786078884201DA401C28
:1092600000E0002060709DF8000000F033F94545F3
:1092700019D0A068B9F1000F40F835A00DD066B143
:109280006188E068324605FB01004946FEF7FDF8BB
:10929000A06800EBC500868002E000EBC500878077
:1092A0000020BDE8F88F0420FBE70920F9E7000063
:1092B000682C002010B50E4C03E0401C00E000209C
:1092C000207020786178814210D022786188E0682F
:1092D000A36802FB010003EBC20153F83220898826
:1092E00090472078A1888842E9DAE6E710BD0000BF
:1092F000682C002030B5CB0008339DB293074FF0A7
:10930000000401D0072030BD044B9A602A44DA6083
:109310005C701C7058809980002030BD682C002043
:10932000074B5B6823B12AB120B10068037C1BB1F5
:109330000820704707207047417442610020704741
:10934000882C002010B50446082902D00020FFF721
:109350005FFFD4E90010BDE8104008471CB5044A7F
:10936000CDE9000108216846FFF754FF1CBD00004D
:10937000459307002DE9F04707469846144689466D
:1093800090074FF0000526D12CB303F095F8134E4B
:1093900006F11000C6F80C800570457080F8029048
:1093A00044607560357075701420FFF7C7FA0621A8
:1093B0001420FFF7E4FA1420FFF7CBFA08480760FF
:1093C00006211120FFF7DBFA0548001F0068B06096
:1093D0000020BDE8F0870720FBE70000782C002084
:1093E000081501402DE9FC47DFF87890D9F80430E2
:1093F00073B368B3052902D20720BDE8FC8743692F
:1094000033B3437C012B25D0002704460025884632
:1094100016468DF80050684600F038F801A803F0B1
:10942000E3FCC8B1012101700F4944600968C0E93B
:109430000218C0E904769DF8040089F801009DF83F
:10944000000000F047F81420FFF78EFA2846D4E712
:109450000820D2E70F46D8E704259DF8000000F069
:1094600039F8F3E7882C00200415014006494968C3
:1094700039B130B1416921B100210174022103F0F9
:10948000A9BB082070470000882C002030B5EFF3FE
:10949000108172B60D4A9468012324B1037000292B
:1094A00000D162B630BD93604FF0E023D3F8805115
:1094B000074C25401560C3F88041D3F884415460BF
:1094C0005A17C3F8842100220270E8E70038002010
:1094D000FC06FFBC0B498A68002A11D000280FD176
:1094E000EFF3108072B60B684FF0E022C2F8003143
:1094F0004B68C2F8043100228A60002800D162B6AD
:10950000704700000038002030B50A7887B0A12AE3
:1095100008D0E32A3CD0FC2A38D107B0BDE830405F
:10952000FFF704BB054614216846FDF7C7FFA120DD
:109530008DF800000024059405A806946DDF9DF8C1
:1095400015001422401E8DF81500DDF8150003905B
:10955000BDF81900ADF810004FF010204069A0F5DB
:10956000804001888DF80840080A8DF804008DF8C5
:10957000051006208DF806408DF803008DF8074091
:109580008DF809406946284600F00EFA07B030BD54
:1095900007B0BDE83040FFF73FB9F0B50C4693B0D7
:1095A0001F210726ADF80010ADF80410002750B1B8
:1095B000C17849070DD56A4602A9FFF719FD0028B1
:1095C00008D102AD02E00025ADF800706CB1E07882
:1095D00010B1304613B0F0BD01AA0AA92046FFF72A
:1095E00007FD0028F6D10AAA02E00022ADF80470B7
:1095F000BDF80400C3B2BDF80000C1B2284672DF56
:10960000E8E7000070B5054601461C220F48FDF74B
:109610003CFF0F4C00262670286830B1016861605D
:109620004068A060201D7ADF02E00948001D7BDF52
:1096300000280AD14FF6FF7060806670BDE8704068
:10964000044A00210448FFF76BBE70BDF0320020D1
:109650002C2C002089CD0700F8D0070070B51E4CD7
:10966000068800231B49E289102E15D01B4D112EB0
:109670001CD0122E29D0502E17D130F8061F91423F
:1096800013D14189022910D10C3000F0B4F988B10E
:10969000BDE8704000F06EBA84884C800469CC60EC
:1096A000406908614B70002AF2D070BD4FF6FF7020
:1096B00048804B702868FFF7D9FE0028F5D0A169D3
:1096C0000029F2D0BDE8704008478268CA60C068CF
:1096D0000861DDE72C2C0020F0320020F8D00700D4
:1096E00001480068FFF7C2BEF8D007007CB5054608
:1096F00008880C460930904201D90C207CBD684690
:109700006DDF0028FAD121880820685420881B21A9
:10971000401C80B2208029542088401C80B22080C8
:109720002844DDF801100160BDF805108180208813
:10973000801D80B220809DF80010490800D00121D2
:1097400029542088401C208000207CBD30B585B085
:1097500004002AD0164D4FF6FF70224628800120C3
:109760008DF812004FF65960ADF8100004A90120E1
:10977000A0DF002817D10F4B0FCB8DE80F00A11CE5
:10978000684663DF00280ED1204600F041FC002827
:1097900009D1204600F000FB002804D1E86840F021
:1097A0000100E860002005B030BD0E20FBE700009E
:1097B000402C002000D1070070B5124C0025E06855
:1097C000410701D5002070BD40F00400E0600E4864
:1097D00001F04EF82088A0F57F41FF3904D0132115
:1097E00076DF0500EFD109E0207B800706D574DF26
:1097F0000028E8D1E06840F00200E060FFF770FF69
:10980000284670BD402C0020C0D4010000B5294876
:1098100089B00068079001F007FDB8B9264813DF4A
:10982000A0B9264B5022264907A803F04BF908B1EE
:10983000FFF7EEFC01216A46084603F01BF928B940
:109840001720ADF81000684603F00AF900282ED161
:109850001C4803F0FBF8002829D100F043FD002844
:1098600025D103F0D9FA16485030FFF76FFF0028D2
:109870001DD11C216846FDF721FE40F6CD40019028
:109880004FF48040029003208DF80C000020ADF8CA
:109890000E008DF810000C4806906846FFF7B2FEE7
:1098A000002804D109B05DF804EBFFF763BC09B0F0
:1098B00000BD0000FCD0070000700700B1CA07001F
:1098C0000C330020CD980700719B070010B50446AB
:1098D000FFF7C4FE00F03CFD214600F037F82046BB
:1098E000BDE8104001F024BF30B5174B0D46040011
:1098F0000FCB85B08DE80F0023D015B34FF6FF7066
:10990000A0822868A0610020A0752146684663DF18
:10991000002814D120788DF812000120ADF8100035
:10992000A21C04A9A0DF002809D12946204602F084
:10993000E1FD002803D12946204603F0B1F905B026
:1099400030BD0E20FBE70000DCD0070010B500287A
:1099500022D0002920D00A88102A18D0112A18D025
:10996000502A19D104468A1DC888238A1231984288
:1099700002D15389022B10D0A38898420CD1A3693D
:10998000002B09D052892046BDE81040184789882D
:1099900001E04FF6FF71818210BD084600F02BF800
:1099A00000B10120A07510BD07B584B068B1828AEE
:1099B000A2F57F43FF3B0AD0827D42B1BDF818205B
:1099C000142A06D9072007B000BD0E20FBE70820A7
:1099D000F9E7002200920192029203928289039198
:1099E00006A90291ADF8002001218DF80210808AAD
:1099F0006946A6DFE7E7007800F00100704710B580
:109A000043689C18446021B905E013F8010B01F884
:109A1000010B521EF9D2012010BD000038B10549DA
:109A2000814204D80449814201D9012070470020B5
:109A300070470000B42C0020C42C00202DE9F05FFA
:109A400026484168F1B3DFF898B00E688146DBF82C
:109A5000004087688078E11B21F07F45ED1CB0B99C
:109A6000DFF880804FF48030C8F84403C8F804035E
:109A70001120FEF763FF1120FEF76BFF4FF0010A84
:109A8000C8F800A02F2000F07FFF89F802A0B5429F
:109A900000D23546124BE8193C3320F07F40186065
:109AA000DBF800105A46091B21F07F41001B20F013
:109AB0007F40C91C81420FD9106818602F2000F028
:109AC00063FF00E004E0BDE8F05F1120FEF74CBF4B
:109AD000BDE8F05F02F0F0BCBDE8F09F782C0020FC
:109AE00004150140001001402DE9F0411788064699
:109AF000B81D14460D46984202D90C20BDE8F081ED
:109B00003188072206290AD34FF4486C4FF6FF73B9
:109B1000614501D9994202D17088062801D21046C8
:109B2000ECE7604501D99842F9D1994203D09842B7
:109B300001D08142F3D80520E85520881221401C2D
:109B400080B2208029542088401C80B22080411996
:109B5000308803F00BF92188084480B22080411935
:109B6000708803F003F92188084420800020C5E7AD
:109B7000FFF74EBBF8B5134800F02CFC114D002642
:109B8000114C0C3D30B16169B9B101208DF8000074
:109B9000684611E0287820B1616971B18DF80060E4
:109BA000F6E7687858B1A168084800220068FFF716
:109BB00019FC10B1A16901B188472E70F8BD616828
:109BC000F2E70000382C0020F0320020F8D0070027
:109BD000F0B54FF0FF3622B11268D24300230A4D90
:109BE0000DE03246FAE7C45C62400824D70700D093
:109BF00037462F4087EA5202641EF7D15B1C8B4226
:109C0000F1D3D043F0BD00002083B8EDF0B5146966
:109C100006468DB020681546271DE0B1022920D0E8
:109C20000A2000906B4609AA304602F08DFB0028FE
:109C30000FD009A901A8009A02F06CFA01AE96E8CB
:109C40000F0005AE86E80F00236869683A4605A84C
:109C500098470DB0F0BD0DB03046BDE8F04002F0C1
:109C6000CDBA6946304602F05FFA0028F1D0236889
:109C700069683A46684698470028EAD00298002862
:109C8000F5D1019870600120E3E753685B7813F029
:109C9000C00303D0402B03D00020704700F002B86F
:109CA000FFF7B4BF2DE9FF410B4651680646144645
:109CB0004878334D00F00F0210F0300055F8225074
:109CC00006D0102806D0202808D0302856D13EE0F3
:109CD00022694DE061690120087047E0022B28D11C
:109CE000042A26D84FF0010869463046676902F019
:109CF0001BFA00281AD009E00B79226913FB002215
:109D00006846A84770B13878401C3870029820B176
:109D1000616838784A799042EED301987060029871
:109D200060BB02E04FF00008F7E7404604B0BDE832
:109D3000F081D4E904300F79027817FB02334979B6
:109D40008A421BD2521C02701A46616810E00878E1
:109D50006169072A087009D1606801792069FDF7F7
:109D6000ADFB60682169806802F0F9F922696168D9
:109D700004B03046AC46BDE8F04160470020D5E76E
:109D80006CD2070010B5034800F0B8FDBDE81040E4
:109D9000FFF790BAA086010010B58EB004461C21D2
:109DA0006846FDF78BFB142108A8FDF787FB9DF89B
:109DB0000010002041F0180107908DF80010A178E4
:109DC0008DF836100121ADF834109DF81C1004F107
:109DD0000C0321F0FF018DF81C109DF81D1008AA3E
:109DE00021F00F01491C21F0F00110318DF81D10F8
:109DF0009DF81E1021F00601891C41F011018DF81B
:109E00001E100DA9089107A909911721ADF82C1072
:109E10000C9020886946A2DF0EB010BD0248816810
:109E2000491E816070470000002C00201FB50E48BD
:109E300000F15C01826B684602F06CF90B489DE80A
:109E40000E0080E80E00094909480B4AC86009491C
:109E50000020086048600949044801F0F5FE002828
:109E600000D0012004B010BDA436002050320020E4
:109E70007DBF07001C2C0020C42C002028D0070028
:109E80002DE9F0411F461600054600F104044FF08D
:109E9000000127D037B394F85F0018B194F8600040
:109EA00001281FD0207AE8B1E06834281AD10020B8
:109EB0004FF4405C227C13E004EB800EBCF80C30C5
:109EC000DEF814E09E450AD194F825004B4A60B1B3
:109ED000012813D002280DD0032803D10AE0401C2A
:109EE0008242E9DC0A20BDE8F08121780029F9D01E
:109EF000916803E021780029F4D0D16820B10228CC
:109F000006D0032807D103E060688842EAD302E064
:109F100060688842E6D995F870000028E2D1394897
:109F2000374903460160202141603A463146052009
:109F300000F0D4FB0028D5D1314895F8712005F107
:109F400072012030FDF7A1FA2E482D490838203142
:109F5000016095F87110416003462A4A2A4904209D
:109F600000F0E2FB08B10520BDE7264D00201C3DB6
:109F7000286194F8251041B3012933D023480229E0
:109F8000C0F5FC2027D00329ACD194F82C1000296F
:109F9000A8D094F826100029A4D0A26A216B5318E7
:109FA0002B6132B329B381420DD8202204F13F0145
:109FB0001348FDF76AFA2869D8B1124A0021103A0D
:109FC00000F0D6FFB8B104208DE794F834000028E3
:109FD00088D0A06B0BE094F82C10002982D0216B64
:109FE0002961E0E794F82600002885D0A06A28615E
:109FF000DBE7032077E7012075E70000A4360020A7
:10A00000F03100201C2C00208CD0070000700700CD
:10A0100010B58EB004461C216846FDF74FFA142196
:10A0200008A8FDF74BFA9DF80010002041F004014C
:10A0300007908DF80010A1788DF836100221ADF848
:10A0400034109DF81C1008AA21F0FF018DF81C1097
:10A050009DF81D1021F00F01491C21F0F001103175
:10A060008DF81D109DF81E1021F00601891C41F08D
:10A0700001018DF81E100DA9089107A9099114215D
:10A08000ADF82C100C902088231D6946A2DF0EB07D
:10A0900010BD0000044A09B9002313705268002A59
:10A0A00000D0104770470000542C0020F8B51C4623
:10A0B00017460D46060018D0BDB1B4B100F098F9AE
:10A0C000A8B1284600F094F988B1204600F090F934
:10A0D00068B1FDF79DFB009023463A46294630467D
:10A0E000FDF79AFB28B10020F8BD0E20F8BD102026
:10A0F000F8BD0B20F8BD00000E4910B50A784C7869
:10A100000023A24212D0521CD2B20A70022A00D1FD
:10A110000B70084A0B78183252F8232002608868C6
:10A12000104420F07F408860012010BD03600020B3
:10A1300010BD0000782C0020F8B506461A481F46CE
:10A14000154600780C46C00708D03046FFF766FC7D
:10A1500030B13CB1200507D00620F8BD0120F8BD84
:10A160000220F8BD0320F8BD3068A04204D8716811
:10A1700004EB0530884201D90520F8BD7DB1684661
:10A1800002F080F868B100980221C0E9006701720E
:10A19000210B8181058202F0C9F80020F8BD04205E
:10A1A000F8BD0720F8BD0000982C0020084A13686D
:10A1B00023F00103136031B143F0020313604268DE
:10A1C000002A03D0104723F00203F7E7704700008E
:10A1D000502C00200348017841F00101017000205B
:10A1E00070470000982C00200348406E042801D0DE
:10A1F00000207047012070470C3800202DE9F843FB
:10A2000007461D48DDF820801E46007815460C469E
:10A21000C0070CD03846FFF701FC50B15DB154B116
:10A2200045EA0400800708D00620BDE8F883012035
:10A23000FBE70220F9E70320F7E73868A04204D8DB
:10A24000786804EB8601884201D20520EDE77EB1F3
:10A25000684602F017F868B100980121C0E900785B
:10A260000172C0E90354868202F060F80020DCE746
:10A270000420DAE70720D8E7982C002070B5174AA9
:10A2800017490446106E0B7800EB400002EBC0004B
:10A290009D0715D5022C02D0032C1BD102E001F042
:10A2A00045FB17E04A78521CD2B24A70032A11D9F2
:10A2B00000224A70082102F0D9F901F0CDFF09E02F
:10A2C000580707D523F004000870526E12B140F011
:10A2D00002000870BDE8704001F0F0BF0C380020AB
:10A2E000982C002010B586B000249DF80000019441
:10A2F00020F00F00401C20F0F00010308DF800001E
:10A30000029403A86DDF00281CD19DF80D00401CAD
:10A310008DF80D0003A86CDF002813D107220AA1D5
:10A3200068467CDF00280DD11820ADF804002820F5
:10A33000ADF80600ADF808404FF4C870ADF80A005B
:10A3400001A87ADF06B010BD4446554C616E670027
:10A3500000487047B4320020F8B51D4C2078002822
:10A3600034D0206928B10026E06820B1002526B14C
:10A3700013E00126F8E70125F9E76078002825D1E8
:10A38000684648DF052803D020B1FEF741FF04E00E
:10A39000012602E02169009888479DB9607800286D
:10A3A00014D16088ADF800006946A06861DF052817
:10A3B00003D020B1FEF72CFF04E0012502E0D4E930
:10A3C00002018847002ED8D0002DD0D0F8BD000063
:10A3D0009C2C0020054940880A88904204D3498873
:10A3E000884201D80120704700207047302C00209F
:10A3F000800701D0002070470120704770B50546E6
:10A4000008680C464A6886682846314601F0C8FD4F
:10A410006068286104F10C00686170780221B1EB7A
:10A42000901F01D1241D2C6170BD00002DE9F04367
:10A43000264CA4F110092278D9F8048099F8035029
:10A44000404694F801C0D9F8086031E002EB4203BD
:10A450006168521C01EBC301A378D2B2934200D1D0
:10A4600000220B78022B02D0032B21D11DE00346E2
:10A470004F68194603E0B94203D00B46C969B9B128
:10A48000F9E7A9B18B4205D1C06918B9104E012571
:10A49000B56000260F68C969D96149B10B683B44B2
:10A4A0000B6005E00174C06900E000210028F9D1CB
:10A4B0009445CBD1C9E9010689F80350404502D043
:10A4C0000120BDE8F0830020FBE70000882C00207D
:10A4D000001001402DE9F0412A4F0446002607F103
:10A4E0001005D7F804803EE002D02046E4691DE064
:10A4F0002878696800EB4002401CC0B201EBC20141
:10A500002870AA78904200D12E700A784868012AF3
:10A510002BD1027C4ABB8A684260CA6882600A69A1
:10A52000C26049698161F97801B146604368BA68DF
:10A53000DFF854C0991A21F07F41614502D2826848
:10A54000114406E0D11A826821F07F418A4202D983
:10A55000511A016000E006604660012186600174C6
:10A56000C66102F019FB002CBED1287869788842B8
:10A57000BED17968414502D00120BDE8F0810020BC
:10A58000FBE70000782C0020FFFF7F0010B5FEF7EE
:10A590000BF900F09FF808B1FEF702FA4FF44050B3
:10A5A000806800F082F8002010BD70B514468288E3
:10A5B0000E4605462088111D0144921C994201D87F
:10A5C000FE2A01D90C2070BD521C32542088FF2174
:10A5D000401C80B2208031542088401C80B22080F2
:10A5E0008119288802F0C2FB2188084480B22080AB
:10A5F000AA8842B1A96841B13044FCF746FF2088DF
:10A60000A98808442080002070BD072070BDF8B5DF
:10A610000E46017814460546012901D1687830B10B
:10A620002088821C9A422DD8012902D006E00720FA
:10A63000F8BD69780144891C994223D8181A801EF4
:10A6400087B2ADF800702188B01C084469467DDFF0
:10A650000028EDD12878022805D1BDF80010B942B4
:10A6600001D809210AE00821012805D16878B842FB
:10A6700002D8ADF8000001E0ADF80070BDF80000B0
:10A68000FE2801D90C20F8BD2288401CB054208837
:10A69000401C80B2208031542088401C2080BDF8AE
:10A6A0000010084420800020F8BD10B5044600F0DA
:10A6B000BBFD00280DD14FF0E021401EC1F8800104
:10A6C000204613DF002804D12046BDE81040FCF7E7
:10A6D000A1BE10BD10B500F029FD10BD70B59CB035
:10A6E0001C4615460E46052802D006201CB070BD3B
:10A6F0006068202801D00920F8E7684602F0BCF81D
:10A700000028F3D12A463146684602F075F9002840
:10A71000ECD101226846216802F026F80028E5D134
:10A72000202060600020E1E730B4042802D0062039
:10A7300030BC70474868402802D15868402801D092
:10A740000920F5E71B68D2E9004508682A4621463A
:10A7500030BCFFF7ABBC000000283ED01F49204AA8
:10A76000096800BF00BF00BF00BF00BF00BF00BF3F
:10A7700000BF91422FD000BF00BF00BF00BF00BF8D
:10A7800000BF00BF00BF00BF00BF00BF00BF00BFD1
:10A7900000BF00BF00BF00BF00BF00BF00BF00BFC1
:10A7A00000BF00BF00BF00BF00BF00BF00BF00BFB1
:10A7B00000BF00BF00BF00BF00BF00BF00BF00BFA1
:10A7C00000BF00BF00BF00BF00BF00BF00BF00BF91
:10A7D00000BF00BF00BF401EC3D17047B02C002097
:10A7E0000024F40000283ED01F49204A096800BF19
:10A7F00000BF00BF00BF00BF00BF00BF00BF91424D
:10A800002FD000BF00BF00BF00BF00BF00BF00BF10
:10A8100000BF00BF00BF00BF00BF00BF00BF00BF40
:10A8200000BF00BF00BF00BF00BF00BF00BF00BF30
:10A8300000BF00BF00BF00BF00BF00BF00BF00BF20
:10A8400000BF00BF00BF00BF00BF00BF00BF00BF10
:10A8500000BF00BF00BF00BF00BF00BF00BF00BF00
:10A8600000BF401EC3D17047B02C00200024F4006C
:10A8700000283ED01F49204A096800BF00BF00BF22
:10A8800000BF00BF00BF00BF00BF91422FD000BF7C
:10A8900000BF00BF00BF00BF00BF00BF00BF00BFC0
:10A8A00000BF00BF00BF00BF00BF00BF00BF00BFB0
:10A8B00000BF00BF00BF00BF00BF00BF00BF00BFA0
:10A8C00000BF00BF00BF00BF00BF00BF00BF00BF90
:10A8D00000BF00BF00BF00BF00BF00BF00BF00BF80
:10A8E00000BF00BF00BF00BF00BF00BF00BF401ED1
:10A8F000C3D17047B02C00200024F40000283ED0C3
:10A900001F49204A096800BF00BF00BF00BF00BF49
:10A9100000BF00BF00BF91422FD000BF00BF00BFEB
:10A9200000BF00BF00BF00BF00BF00BF00BF00BF2F
:10A9300000BF00BF00BF00BF00BF00BF00BF00BF1F
:10A9400000BF00BF00BF00BF00BF00BF00BF00BF0F
:10A9500000BF00BF00BF00BF00BF00BF00BF00BFFF
:10A9600000BF00BF00BF00BF00BF00BF00BF00BFEF
:10A9700000BF00BF00BF00BF00BF401EC3D1704773
:10A98000B02C00200024F40000283ED01F49204AAB
:10A99000096800BF00BF00BF00BF00BF00BF00BF0D
:10A9A00000BF91422FD000BF00BF00BF00BF00BF5B
:10A9B00000BF00BF00BF00BF00BF00BF00BF00BF9F
:10A9C00000BF00BF00BF00BF00BF00BF00BF00BF8F
:10A9D00000BF00BF00BF00BF00BF00BF00BF00BF7F
:10A9E00000BF00BF00BF00BF00BF00BF00BF00BF6F
:10A9F00000BF00BF00BF00BF00BF00BF00BF00BF5F
:10AA000000BF00BF00BF401EC3D17047B02C002064
:10AA10000024F4002DE9F14F284C4FF440594FF435
:10AA20008058206B666AD9F80820371A02EB000BB1
:10AA30004546AF4200D83D4600220121584600F06D
:10AA4000CDFA002837D100232A465846009900F055
:10AA500027FB00282FD12A465846009900F0B8FB62
:10AA6000002828D100220121009800F0B7FA5FEAFF
:10AA7000000A20D1206B28442063002000F024FD30
:10AA80000098AB44284400907F1BD1D1002231466E
:10AA9000D9F80800FFF79CF8A16A814203D101218F
:10AAA000A661C4E907010548243000F085FB0020B9
:10AAB00000F00AFD5046BDE8F88F0000A4360020E3
:10AAC00010B50A4C206A01280BD1E06958B14FF447
:10AAD0004050A16980680022FFF77AF8E16981425D
:10AAE00001D0002010BD012010BD0000A4360020C0
:10AAF0002DE9F0410E460A680C49496B551A0F18AA
:10AB00002A4639460A4800F063FB040007D029466C
:10AB1000384600F06BFB04462046BDE8F081304625
:10AB200000F04AFB002000F0CFFCF5E7A43600203F
:10AB3000007007002DE9F0413E4C91F800C00E4630
:10AB400015460127D4E90E103B023B4ABCF1070F22
:10AB50006DD2DFE80CF06C041C37186C6600B0682E
:10AB600020B1984204D90420BDE8F0810320FBE71E
:10AB700030480025957020213830FCF79FFC256374
:10AB8000B068A06354E06860206CA86050E0B268D0
:10AB900013188B4203D96860206CA860E6E7254B48
:10ABA00071685C331844FCF770FCE06BB168214AB3
:10ABB0000844E063D6E901014032FFF709F8206458
:10ABC000E06BE0E7884201D00820CDE7907814469A
:10ABD00008B10120C8E7FFF729F901281FD117485C
:10ABE00090F87410B9B100F28C5190F87A20783056
:10ABF000012A01D0052006E00F4A1C320CCAFFF7DB
:10AC00003FF9012801D0074612E0002000F05CFC6B
:10AC10000120A0700CE0007808B10A2708E00520A8
:10AC2000A2E7206CA860E06BC5E9003000E00227D5
:10AC3000384699E7A4360020002C0020C42C0020C0
:10AC400030B40B4B02464FF440501C69816803F14D
:10AC50001800012C08D05C6934B19B690C3003F6F4
:10AC6000FF736FF30B03194430BC00F003B800000E
:10AC7000A43600202DE9F0410D46014616468A68AB
:10AC80000020012A0CD00127A52A12D0AA2A20D000
:10AC9000AC2A1CD10C46284600F0A8FBB0B91DE038
:10ACA00011494969012912D12846BDE8F041FFF751
:10ACB000B1BE28460D4600F099FB040006D1284697
:10ACC00000F07AFA002000F0FFFB20463760BDE874
:10ACD000F0812846BDE8F041FFF70ABF214628462B
:10ACE000FFF706FFF2E70000A43600202DE9F05F31
:10ACF00015460C004FF0010B58D0924F904E94F82F
:10AD000000C0D7E91410B278BB6C4FF4805A4FF0F2
:10AD10000009BCF1070F7DD2DFE80CF07C0436EBB4
:10AD2000E77CF100A16871B3854B0D051B6902D06A
:10AD300045189D423AD151452FD8002A6BD0014485
:10AD4000994268D8F96CB964A16838657964386348
:10AD50007178491C01F003017170A6F80490B16884
:10AD6000491CB160A168F26801F6FF711044090B3B
:10AD7000754A00F033F900287ED0B068401EB060FC
:10AD80000520BDE8F09F11E06960B86CA860002A5A
:10AD9000D4D0A168B1F5807F01D90420F1E7386DE6
:10ADA0007A6D0844801A7A6C904201D90320E8E752
:10ADB000644A60684832FEF70BFFB864386DA268D9
:10ADC000DFF888A1104438656860B86CA860B08866
:10ADD000A268B8461118FF2905D8777861680AEB90
:10ADE000072318443FE0C0F5807173788FB20AEBF7
:10ADF000032210443A466168FCF747FBB0883844A8
:10AE000081B2B180A068C01BA0606068384447462A
:10AE1000606001E091E070E0D8F83000F268C91C91
:10AE20001044B268521CB26073788A080AEB03219E
:10AE3000454B00F035F9E8B3B068401EB060F86CDF
:10AE4000B864786D38656860F86CA8607078401CEC
:10AE500000F003007070A6F80490A268002A6AD07F
:10AE60000AEB00206168FCF710FB2089B1880844D8
:10AE70000104B080090C00E02CE05CD0D8F854202C
:10AE8000D8F83000D8F84430821A0A4444469A422E
:10AE900051D3F268C91C1044B268521CB260737876
:10AEA0008A080AEB0321284B00F0FAF8C0B1B06819
:10AEB000401E00E00FE0B060E06CA064606D2065B3
:10AEC0006860E06CA8607078401C00F0030070704F
:10AED000A6F804902FE0B188386B08443863B5E7D2
:10AEE000B188206B08442063EDE76960B86CA86006
:10AEF00021E07A6C081A904202D0082041E716E05F
:10AF0000C7F84490FB640020796500F0DDFA386DE5
:10AF10003169884202D00EE000F03EFBB0680028A4
:10AF2000FAD10A48B03800F08BF9834603E0AB60F1
:10AF3000386DC5E900A0584623E70220F5E7000078
:10AF4000002C0020A43600201D9E0700F02D0020BC
:10AF5000064810B5816D012901D0002010BD0021E7
:10AF60008165084600F0B0FA012010BDA43600202B
:10AF7000F0B54FF010235C694FF440539B68E71A1B
:10AF8000A7F57047874219D3134C1360A4F1180337
:10AF900000251E6A012E06D01D615D616560A560F9
:10AFA00020600020F0BD266806F6FF766FF30B06E2
:10AFB000A7EB060C0127604505D909B10420F0BDB7
:10AFC000C3E90475EAE7C3E904571168024C314448
:10AFD0000C341160E2E70000BC3600202DE9FF418F
:10AFE0000E462149044615460868002742071BD52E
:10AFF000820703D50A2004B0BDE8F08140F00100CB
:10B0000008608846B2B22B4621461848FFF794F8EC
:10B01000D8F80010070002D021F0010101E041F052
:10B020000101C8F800101DE0200501D00620E2E76C
:10B03000C4F30F38204600F045FB04F58054761E1B
:10B04000F8D17DB10A480168D0E90220CDE902209B
:10B05000CDE90015200BADF80880ADF80A000021FD
:10B060006846A8473846C6E7502C0020B42C00207C
:10B0700010D1070010B50100074C4FF0000009D0B7
:10B08000FFF7A8F818B9054801F036FD08B1082007
:10B0900010BD0421216010BD502C00207DA20700AE
:10B0A0002DE9FF4116461F4A05461C461068002739
:10B0B000430719D5830703D50A2004B0BDE8F08102
:10B0C00040F00100106090460A46B3B22946164887
:10B0D0000094FFF793F80700EFD1D8F8001041F083
:10B0E0000101C8F8001019E031B12DB141EA0500A5
:10B0F000800703D00620E0E70320DEE786B1324672
:10B10000284600F0F7FA4CB10020CDE90250CDE915
:10B1100000040146ADF80C606846A0473846CCE70D
:10B120000420CAE7502C0020B42C002038B50020A1
:10B13000009000F0A3F96846FFF782FD012400B1FA
:10B140000094FFF705FF00B10094FDF79DFD009806
:10B1500070B9FFF7B5FC58B1FDF746FBFFF7B0FC3F
:10B1600020B14FF440508068FFF79FFA002038BDAF
:10B170000F4B104A05210020FEF7FCF808B1FEF73E
:10B1800047F80C4A142178320820FEF7B3F808B1CA
:10B19000FEF73EF8FDF716FC00F0E8F90028E6D1CE
:10B1A00000F0D2F8FEF786F8FDF71EFBFAE7000084
:10B1B0005D930700803300200021016041608160C1
:10B1C000024801634163016141617047A436002078
:10B1D0001FB5054B01AC92081B6A009384E8070079
:10B1E000684618DF04B010BD20D107001FB58908DC
:10B1F000002201AB009283E80700684618DF04B024
:10B2000010BD00001FB59208930502D0092004B0BC
:10B2100010BD044B1B6800930392CDE901106846F2
:10B2200018DFF4E720D107001FB5044B0FCB8DE8E2
:10B230000F00684618DF04B010BD000030D10700D1
:10B240002DE9F041044690F83D000125DFF8E48047
:10B25000032808D00A25384E7069E0B101281DD0B6
:10B260000A20BDE8F081334E34481C363346306046
:10B2700020207060D8E903120520FFF72FFA00B1F3
:10B280000A25202204F13F013068FCF729F9002843
:10B29000E1D00525DFE72848183001E026482430B2
:10B2A0000027012D10D087604760076022482021C9
:10B2B0003830FCF703F92048FF22B2215C30FCF75C
:10B2C000F6F81F4C37632DE094F8251071B1012971
:10B2D0000ED002290ED003290FD00A2594F825108C
:10B2E00081B1022911D0032911D10EE0012102E020
:10B2F000A52103E0AA218160F0E7AC218160A16A69
:10B300007163EBE76168B16001E06168F160B16CA5
:10B310004160D8F810100160C8E72046FFF71CFA1A
:10B3200000F03AF9074800F0CFF81128F5D0284688
:10B3300097E70000002C0020A4360020F031002008
:10B34000A086010005B9070070B50120FFF792FE45
:10B3500000281BD10E4D0F4CA860A06BA8B1FEF7C2
:10B3600065FD90B1206A50B9A06940B1084A00213A
:10B370000C322861FFF7FCFD0120A87005E0E06AAF
:10B3800018B9A06908B1606AF0E7002070BD00003C
:10B39000002C0020A436002070B50C460B78124912
:10B3A000012B01D0062B07D12379012B03D0022BCF
:10B3B00001D0072070BD0B700978012904D0022943
:10B3C00007D00525284670BD2146FFF7B3FB05468B
:10B3D000F8E72146FFF78AFC054620780228F1D1DC
:10B3E000FDF78EFBEEE70000002C00202DE9F04772
:10B3F00003461D4840F6FF75066B426B3146541AF2
:10B4000004F6FF746FF30B0405EB940506EB0308D9
:10B410006FF30B0506F5805622B1914202D1002050
:10B42000BDE8F08781462A4641463046FFF7EAFEEE
:10B430000028F5D12A4641463046FFF7C9FE0700ED
:10B44000EED12E44A844A54201D9002400E0641B9B
:10B45000D9F834100020091BC9F8301000F034F876
:10B46000002CE0D13846DBE7A4360020002258212A
:10B470000148FEF7ADBB0000A836002070B50F49AB
:10B4800000204FF4AE7508702A460D490D48FBF7B1
:10B49000FCFF0C4C2068401C04D0FFF7E7FF21683C
:10B4A00081420AD029460748FCF708F8012060606D
:10B4B000BDE87040002000F007B870BD542C00209B
:10B4C00000F00700A436002070B50546174C01E0D7
:10B4D000FEF758FC20780028FAD101202070656022
:10B4E00001F00DFD002201211148FFF777FD07282B
:10B4F000F6D00025B0B9FFF7B9FF0E494FF4AE7290
:10B500000860A1F5AE70FBF7C0FF00BF01F0F7FCCB
:10B51000094B572209490648FFF7C2FD0728F5D015
:10B52000002801D02570112070BD0000542C00208F
:10B5300000F00700A436002095A007004835002041
:10B5400070B50848084D401BC6080020044606E0B8
:10B5500005EBC40040688047002802D1641CB44257
:10B56000F6D370BD68D3070060D3070070B50848F4
:10B57000084D401BC6080020044605E055F834007D
:10B580008047002802D1641CB442F7D370BD00008C
:10B5900068D3070060D30700FDF78CBE4907090E8A
:10B5A000002806DA00F00F0202F1E02282F8141DF2
:10B5B00003E000F1E02282F8001400F01F020121F4
:10B5C00091404009800000F1E020C0F88012C0F8EE
:10B5D0000011704738B5044600208DF80000684619
:10B5E000FDF754FF0A48816808290AD221704A1CD5
:10B5F00082600848026801238B401A4302600024DD
:10B6000000E004249DF80000FDF764FF204638BDEB
:10B610005C2C002008050140044A034902EB80002D
:10B62000C0F80016704700003546526E0000014019
:10B6300004490120C1F8040308600349022008708E
:10B6400070470000000001405C2C00200E4A10B53D
:10B650005160117809B1082010BD0121117000B9A5
:10B660000A480B4A0178116041684FF47A72C903A5
:10B67000B1FBF2F1064A083A1160017A1020FFF797
:10B680008DFF002010BD00005C2C002060D1070061
:10B690000C0501400321800000F1A040C0F8001714
:10B6A000704700000121814001480160704700009F
:10B6B0000C050050012181400148016070470000E5
:10B6C00008050050094A0221116009490B68002B46
:10B6D000FCD0064B1B1D186008680028FCD0002019
:10B6E000106008680028FCD07047000004E50140A5
:10B6F00000E4014070B50C4D01232B600B4C236816
:10B70000002BFCD0002307E051F8236040F82360B1
:10B710002668002EFCD05B1C9342F5D300202860E5
:10B7200020680028FCD070BD04E5014000E4014021
:10B7300070B5344D044600882E88502857D017DC49
:10B74000112829D00ADC022837D0102805D1A0887A
:10B750002880E86820F00200E86070BD132826D039
:10B760001428FAD10023A0881A46194686DF0DE076
:10B77000512826D0522834D055283ED05628ECD116
:10B78000A0790028E9D11321304676DF0028E4D0E3
:10B79000BDE87040FDF73CBDFDF77EF9FDF7EAFC22
:10B7A00008B1FDF735FD4FF6FF70288070BD00230E
:10B7B0001A46852130467FDFE8E70021304667DF03
:10B7C000E4E7A0790028F1D021460F4800F0D8F82E
:10B7D0000028EBD004F10801BDE870400A4800F0F1
:10B7E00015B80023A0881A461946A9DFCEE72146DE
:10B7F000BDE87040044800F00DB9A0881721ADDF06
:10B80000C4E70000402C00205C33002010B586B057
:10B81000044600200090019002900390049005904F
:10B820000B7B3748072B67D2DFE803F06604293526
:10B830001E6649004A89062A01D0032212E0428886
:10B840008280487B04904A7CD1F80E0003A962F301
:10B850001F60059001208DF80C006A460020FFF75C
:10B860009BFD024601213DE003208DF80C006A4655
:10B8700003A90020FFF790FD0246042132E04A8927
:10B88000032A01D0032204E0B1F80D104180818029
:10B890000122022126E004208DF80C006A4603A94B
:10B8A0000020FFF779FD0246012801D0032119E0AD
:10B8B000DDE90112204600F079FD06B010BD48898F
:10B8C000022801D003220CE0487B049006208DF86A
:10B8D0000C006A4603A90020FFF75EFD024601281E
:10B8E00004D00621204600F0C7FDE6E79DE80E00E3
:10B8F000204600F08BFDE0E703221946F2E7000046
:10B90000402C0020FFF71CFEBFF34F8F0548016855
:10B91000054A01F4E06111430160BFF34F8F00BF9E
:10B92000FDE700000CED00E00400FA05134A10B535
:10B9300000215170017A012912D002291DD181897B
:10B94000491C8181C189491C89B2C181028A914205
:10B9500013D1002100F08AFEBDE8104000F07CBC4D
:10B96000838AC28A4FF480619C1A8C4200DAA1B2A9
:10B97000114489B2C1829942EBD010BD982C0020AD
:10B9800030B587B0002401940294039404948A1D76
:10B990008B790831022B35D153888589AB4231D15F
:10B9A000127A042A2ED0062A2CD0052A2AD0022266
:10B9B00001238DF804208DF80A300B89ADF80C3086
:10B9C0004B890C31CDE90414ADF81420104DADF8BD
:10B9D0000E30CDF818D0018A05AA2888A5DF18B93D
:10B9E0006846FEF708F830B1ADF8084001A928888C
:10B9F000A8DF50B106E040F2FD10ADF8080001A943
:10BA00002888A8DF002007B030BD0120FBE7000038
:10BA1000402C002030B50546C888AA8887B09042DF
:10BA200023D1002005900390049000900290022002
:10BA30008DF8000001F112000190088A029003AA1B
:10BA400069460020FFF7A8FC094C608800280CD04C
:10BA5000A088401E0004000CA08006D1DDE904127D
:10BA6000284600F0A3FC6088A08007B030BD00002D
:10BA7000402C0020F8B50D4614460646694600F0F5
:10BA800057FA00280ED0009BFF2B0AD8581C83427F
:10BA900007D869780222B2EB911F02D0297981423E
:10BAA00001D20020F8BD2370611C3046009A00F0DE
:10BAB00069FBF8BD114600F0D6B8114600F0E3B8B6
:10BAC000F8B50C4615460646694600F031FA0028DE
:10BAD0000CD0009A501C904207D361780223B3EB3C
:10BAE000911F02D02179814201D20020F8BD294660
:10BAF000304600F047FB009A0021A954F8BD2DE91B
:10BB0000FF410C468E6817460546694600F00CFB5F
:10BB100000280ED0A06800280BD060783A46C0F309
:10BB2000011002283146684606D000F0DBF8019982
:10BB3000696004B0BDE8F08100F086F8F7E77CB5F5
:10BB40000D461446694600F090F9002820D0287967
:10BB5000082806D0042809D002280AD001280CD0D1
:10BB600015E0DDE90001C4E900010AE00098206069
:10BB700006E0009800B2208002E0009840B22070F9
:10BB8000C117DDE9002350405940084301D000208F
:10BB90007CBD01207CBD7CB50D461446694600F095
:10BBA000A2F9002820D02879082807D000210428ED
:10BBB00009D002280AD001280CD014E0DDE90001E8
:10BBC000C4E9000109E00098206006E0009880B216
:10BBD000208002E00098C0B22070DDE900235040D0
:10BBE0005940084301D000207CBD01207CBD7CB5BC
:10BBF0000D461446694600F076F9002821D02979CF
:10BC0000082908D00098C21704290BD002290DD0AA
:10BC100001290ED014E0DDE90002C4E9000201466A
:10BC2000134609E0C3170146206005E001B22180F8
:10BC300001E041B22170CB1741405340194301D07C
:10BC400000207CBD01207CBD70B50D460646144623
:10BC50001146284600F083FA224629463046BDE8C0
:10BC6000704000F03FB838B50C460422694600F039
:10BC700089FA002806D09DF80310009861F31F6030
:10BC80002060012038BD1CB50C460822694600F032
:10BC900079FA002824D09DF801109DF800209DF825
:10BCA0000230080E42EA012242EA034240EA13400F
:10BCB0009DF803309DF8041040EA132008439DF8D6
:10BCC000051042EA036240EA01209DF8061040EAAE
:10BCD00001409DF8071040EA0160C4E900200120FE
:10BCE0001CBD00002DE9F04F04469DB000200090DF
:10BCF000064601904FF0FF3A0AA800F051F94FF0C4
:10BD0000010BE94682E012AB05AA06A9204600F025
:10BD1000C9F850B10AA8059900F053F960B10B9821
:10BD2000407810F0300F53D060E09DF848000028B4
:10BD300070D11DB0BDE8F08F0598B04242D30B9D85
:10BD40000AAE0B98407800F00F00082812D0304659
:10BD500000F04EF90B98A842F3D156460599B1422E
:10BD600030D3D4F8088009919DF8181008910E99E5
:10BD70000D6820E00B980678F0E729680F682FB16E
:10BD8000DDE9083229462046B84711E01194896858
:10BD9000DDE90872097891420CD1294617A8FEF70F
:10BDA0002DFB85F80CB017AA39461198FDF76DFFE9
:10BDB0000028BED0AD6815B1A1684145DDD0A168AD
:10BDC000414523D19DF81810204600F017FA1BE0DA
:10BDD0000C9840280AD200F01F010BFA01F00C99D0
:10BDE0004A0959F82230034349F82230E5682DB159
:10BDF0000AAB9DF8182020460599A8470AAA9DF885
:10BE000018102046FDF741FF002892D0A0680028B6
:10BE10007FF479AFDDE90B0445780AA800F0E8F873
:10BE20000028F7D115F0300F03D10B98007800B13E
:10BE3000641CC4B10020494605E000BF51F8202031
:10BE4000521C0ED1401CB0EB541FF7D3600959F8B7
:10BE5000201004F01F00C0F120022AFA02F08142F3
:10BE600001D0002065E7012063E71CB50C46694658
:10BE700000F039F8002814D0DDE90002C10709D02C
:10BE800051084FEA30006FEA00026FEA0100C4E98E
:10BE9000002004E051084FEA3000C4E900014FF0EF
:10BEA00001001CBDF8B507460020187008700E464A
:10BEB00010601C4615466946384600F039F8010006
:10BEC0004FF0010009D0009959B1C80828600098C6
:10BED00000F0070030700120F8BDB96809B10020FA
:10BEE000F8BD2070FBE72DE9F8430026884681461F
:10BEF0003446354604E0402E02D30020BDE8F883E6
:10BF00006946484600F06AF90028F7D09DF80070AD
:10BF1000324607F07F00C10FFBF7A8FA294304431C
:10BF2000F61D0D463806E6D4C8E900410120E5E7D4
:10BF3000F8B50E460746694600F050F900280AD0C9
:10BF40009DF80040200616D5072504F07F0403E085
:10BF5000202D01D30020F8BD6946384600F03EF997
:10BF60000028F8D09DF8001001F07F00A84004439D
:10BF7000ED1D0806ECD401203460F8BD5968064A6E
:10BF80008968914206D1D0E90110044A401E491C3B
:10BF9000C2E900107047000038CF07001C2C0020B9
:10BFA000C26000230160C0E901138B781A4402616A
:10BFB00091F903301A4442610878002800D001202A
:10BFC000704770B545680E46044660680178B14216
:10BFD00006D1407800F00F00082801D0012070BD84
:10BFE000204600F005F86068A842EED1002070BD40
:10BFF00030B541680A785AB101F10C0343600A7BFD
:10C0000042B14C780A79C4F30115032D07D00BE037
:10C01000002030BDC2680168FFF7C2FFF8E75D7815
:10C02000C5F30115032D07D00225B5EB141F09D167
:10C030004C7914FB02F209E08D7804690022641B3C
:10C04000046103E0B5EB941F00D10422497811F09C
:10C05000300F02D18168491C81609C7801692144BC
:10C060001144016193F9032011444161012030BD65
:10C0700030B54168002487B0497801F00F02082AE2
:10C0800011D08A091ED00222B2EB911F09D1026998
:10C09000C1F301110229146001D0032901D14069C3
:10C0A000047007B030BD0069056808E02C732946AC
:10C0B0006846FEF7A3F96846FFF7DAFFAD68002D82
:10C0C000F4D1EEE7C1F30111012912D00229E6D023
:10C0D0000329E4D04268517801F00F0107290BD001
:10C0E000916881B11279006907B0BDE83040FBF773
:10C0F000CCB941690C70EDE70169906807B0BDE803
:10C10000304000F02CB81179006907B0BDE830402C
:10C11000FBF7D4B910B5034B002408C080E8160023
:10C1200010BD0000FF99070038B50D46044669466A
:10C13000FFF7FEFE00280BD0D4E90002D4E9021379
:10C14000C5E90002C5E902130098814201D200202E
:10C1500038BDA860A168081AA060012038BD00B5EC
:10C160000A4687B001466846FFF71AFF002807D045
:10C170006846FFF77DFF6846FFF73AFF0028F7D1D2
:10C1800007B000BD7FB514460546A9B9124A286814
:10C19000904208D110E0102269462846FFF7F2FFCE
:10C1A000002807D0103C102CF5D8224669462846B6
:10C1B000FFF7E8FF04B070BDA868A04201D20020DC
:10C1C000F8E72B682246284698470028F2D0A8684E
:10C1D000001BA8600120EDE7FF99070010B5044699
:10C1E0008068002809D0236801222046984700284B
:10C1F00003D0A068401EA060012010BD38B5002407
:10C2000039B1012912D0022912D005291DD00020F0
:10C2100038BD0546012269462846FFF7B3FF90B1B5
:10C220009DF800000006F5D4012038BD08220DE07D
:10C2300005466946FFF77CFE28B100212846009A92
:10C24000FFF7A0FF38BD204638BD0422BDE83840C6
:10C250000021FFF797BF00000848416E491E416664
:10C2600004D107490A7822F002020A70016E491CC3
:10C270000166042901D10021016670470C380020B5
:10C28000982C002070B50C490446486E042811D043
:10C290000A6E0244042A00D3121F401C486602EBB7
:10C2A000420001EBC00005461821FBF707F9012009
:10C2B000256070BD002070BD0C380020194830B4D6
:10C2C000016E01EB410100EBC104406E002827D054
:10C2D000207A012802D0022816D10FE0A18AE08A34
:10C2E0004FF48062091A914200DA8AB2E168236948
:10C2F00001EB800103EB800029DF01E0A08928DF4A
:10C30000112806D000280BD0204630BC092100F0AF
:10C31000ADB90549087820F0020040F0040008702B
:10C3200030BC70470C380020982C00200549087854
:10C3300010F0060F04D140F002000870FFF7BEBFF6
:10C3400070470000982C00202DE9F0411E681C4623
:10C350001546074621B1012918D0052923D119E036
:10C3600000202060401C2060B0421CD801222946D9
:10C370003846FFF707FF002806D015F8010B000626
:10C3800001D52068EEE70120BDE8F08108200246D3
:10C39000186002E004200246186029463846BDE8CD
:10C3A000F041FFF7EFBE0020EEE700002DE9F0417D
:10C3B00090460A4606001FD0124D2888A0F57F41FE
:10C3C000FF391CD0287BC00719D00F4C60200121F9
:10C3D000207003206070A170E11C104600F0CBFCBF
:10C3E000C71CE119404600F0C6FCC219B189288873
:10C3F000BDE8F04100F060B90E20BDE8F0810820F2
:10C40000FBE70000402C0020703300202DE9F047AE
:10C41000904699460A46060024D0154D2888A0F576
:10C420007F41FF3921D0287BC0071ED0114C6020EE
:10C430000621207061700120A070E11C104600F000
:10C440009AFCC71CE119404600F095FC0744E1192D
:10C45000484600F090FCC219B1892888BDE8F04731
:10C4600000F02AB90E20BDE8F0870820FBE70000A5
:10C47000402C00207033002030B498B10C4B1C8845
:10C48000A4F57F45FF3D10D01B7BDB070DD0094B8A
:10C4900060251D7059709A708189204630BC032236
:10C4A00000F00AB90E2030BC70470820FBE70000FE
:10C4B000402C00207033002070B5012670044FF02E
:10C4C000E0210025C1F88001084C4010C4F8480361
:10C4D000C4F8080366602F20FEF756FAA660044CE5
:10C4E0002F20A560FEF750FAA57070BD0010014026
:10C4F000782C002030B53DA2054693B007CA07ABA3
:10C50000002483E817009DF828001C2120F00F006C
:10C51000401C20F0F00010308DF828009DF8290014
:10C5200020F00F00401C20F0F00010308DF82900A2
:10C530009DF82A0020F00600801C8DF82A0068462D
:10C54000FAF7BCFF9DF8000040F010008DF80000E5
:10C5500007A80190FAF7BDFFADF80A0007A8FAF79F
:10C56000B8FFADF808000AA8CDE90440039406948A
:10C5700028788DF846000220ADF8440010949DF80C
:10C580004000142120F00F00401C20F0F00010307B
:10C590008DF840009DF8410020F00F00401C20F075
:10C5A000F00010308DF841009DF8420020F00600A8
:10C5B000801C20F0180040F001008DF842000BA80C
:10C5C000FAF77CFF11A80B9010A80C900120ADF891
:10C5D00034001420ADF83640ADF83800688805F115
:10C5E0000C030BAA6946A2DF13B030BD42415420B0
:10C5F000444154410000000010B50446FCF7E6FC3D
:10C6000040B1002C09DA04F00F0000F1E02090F8AE
:10C61000140D06E042F2010010BD04F1E02090F894
:10C6200000044109082914D299B1012911D0042923
:10C630000FD005290DD00C498B6804F01F02012092
:10C640009040620943B151F82230034341F822304F
:10C6500007E042F2020010BD910001F1E021C1F8B3
:10C660000001002010BD0000003800201FB500228E
:10C670000092019202920392037A012B02D0022BC4
:10C6800013D107E08DF8002002690292828AADF88A
:10C690000C200AE001228DF800208289C389D21A79
:10C6A000ADF808208289ADF80A204268019200683E
:10C6B0008268684690471FBD07B584B0002200928B
:10C6C000ADF8001001218DF8021006A9029103496E
:10C6D000039101926946A6DF07B000BD70330020C8
:10C6E0002DE9F0410746806A14468846C8B3002504
:10C6F00031E000BFB96A05EB450001EB8006B08868
:10C70000801CFE2802D90C20BDE8F0812288401C44
:10C7100008F8020020881622401C80B2208008F809
:10C7200000202088401C80B2208000EB0801308867
:10C7300000F01CFB2188084480B22080B28842B1FE
:10C74000B16871B14044FAF7A0FE2088B18808446E
:10C7500020806D1CEDB297F82C00A842CAD80020AA
:10C76000D2E7FFE70720CFE770B516460D46040075
:10C7700007D035B1206C802200213828225403D301
:10C7800007E00E2070BD2154401C3828FBD30BE07D
:10C790002154401C4028FBD32146084600F096F85F
:10C7A00038212046FAF78AFE216CD4E912304A0F6C
:10C7B000C900383459185041C4E90410227CE27190
:10C7C0000A0A42EA0062A2710A0C42EA004262715D
:10C7D000020242EA116020716069E070010AA170F2
:10C7E000010C6170000E04F838092146084600F07B
:10C7F0006DF84FF00002EEB1E06ED100C840A854D1
:10C80000A36ECB40A8180371636ECB400372236EF6
:10C81000CB400373E36DCB400374A36DCB40037532
:10C82000636DCB400376236DCB40521C0377042A03
:10C83000E2D31FE018235042216D03EBC000C1403A
:10C84000A954666DC640A9180E71A66DC6400E7239
:10C85000E66DC6400E73266EC6400E74666EC64008
:10C860000E75A66EC6400E76E66EC640521C0E775A
:10C87000042AE0D3002070BDA8B100210164C0E902
:10C8800012110A4901650A4941650A4981650A4947
:10C89000C1650A4901660A4941660A4981660A4931
:10C8A000C166002070470E207047000067E6096AE5
:10C8B00085AE67BB72F36E3C3AF54FA57F520E51C1
:10C8C0008C68059BABD9831F19CDE05B2DE9F04F38
:10C8D000C8B0002213466F46CC181B1D2568E478AB
:10C8E0002DBA25F0FF05254347F82250521C102A87
:10C8F000F2D31BE007EB820151F8083C4FEA734486
:10C9000084EAF34484EA932451F83C3C4FEAF3155B
:10C9100085EAB34585EAD303234451F81C4C51F80A
:10C92000401C2144194447F82210521C402AE1D3EC
:10C93000036D4793416D4691846D4594C26D449259
:10C940009246026E4392456E4295A946856E419588
:10C95000C66E4096B34600264FEAB21787EAF22722
:10C9600087EA726C02EA090725EA020887EA0807E3
:10C97000BC44204F57F8268008EB0B07BC445DF8F9
:10C980002670AB460CEB070E4FEAB30787EA733706
:10C9900087EAB35C81EA04074D4601EA0408914640
:10C9A0001F400AEB0E02A24687EA08070C46BC4469
:10C9B0001946761C0EEB0C03402ECDD3479E334414
:10C9C0000365469B19444165459921448165449915
:10C9D0005144C165439911440166429949444166F5
:10C9E00041992944816640995944C16648B0BDE8DF
:10C9F000F08F00006CD107002DE9F04116460F467C
:10CA0000040004D006B317B10025A8461AE00E2092
:10CA1000BDE8F081216C785D6054206C401C20647E
:10CA200040280ED121460846FFF750FFD4E91201F5
:10CA30004FF40072801841F10001C4F84080C4E94D
:10CA400012016D1CB542E5D30020E1E718B103499E
:10CA5000C860002070470E20704700009C2C00200A
:10CA60001CB5034901910091694660DF1CBD0000BF
:10CA7000002C002070B50E46054614461C211046B9
:10CA8000FAF71CFD062020800020A0612075267288
:10CA900065720DB10120A072002070BD10B511B1FA
:10CAA0000020FCF7B5FBBDE81040FDF755BC0000C9
:10CAB0000021024A0846FCF7ADBB00009DCA0700F2
:10CAC000FCF7A4BB30B409B18C0702D0072030BCFE
:10CAD0007047074C0125A16062800649636010DF42
:10CAE0000028F4D1257030BC1620FFF785BD00006A
:10CAF0009C2C0020C1CA070018B10349086100201E
:10CB000070470E20704700009C2C00202DE9F84F44
:10CB1000204C00256846D4E901B6FDF7EDFA8046C1
:10CB2000FDF784FC0746A946B8F1000F25D0002385
:10CB3000009ACC46606819E007680146974202D91E
:10CB4000BA1A026014E0C1F800C0D1F80C80D21B00
:10CB5000C8693B448A46B8F1000F07D0F71827F0A0
:10CB60007F47C1E90178CAF81C500D460028E3D17F
:10CB700060602846FDF7AEFC04E02846FDF7AAFCFD
:10CB800000B917B15846FCF759FF84F80390BDE887
:10CB9000F88F0000782C00200D4B10B5596831B18A
:10CBA00002680C68A24204D8A21A0A60C1615860E7
:10CBB00010BD0B4603E00B46C969121B21B10C687E
:10CBC0009442F8D3A41A0C600260C161D86110BD10
:10CBD000782C00207CB5064600240D468DF80040D8
:10CBE0006846FCF753FC01A800F0FEF870B1057030
:10CBF000094946609DF8040048709DF80000FCF764
:10CC000069FC1420FBF7B0FE20467CBD04249DF88F
:10CC10000000FCF75FFCF7E7882C00202DE9F041CD
:10CC20001D4D6C68002C35D01C4800270068A96891
:10CC3000B846401A20F07F462068B04215D82246F8
:10CC4000361A0744E469107C68B182F81080EB68FA
:10CC500033B1D2E90501984728B1FCF7D9FA02E0CF
:10CC6000D2E905108847002CE6D1297868788142FE
:10CC700006D1401CC0B26870022801D185F801803D
:10CC800005486978183040F82170BDE8F04114205B
:10CC9000FBF76ABEBDE8F081782C00200415014046
:10CCA00030B52FA2054691B007CA07AB83E807004D
:10CCB0001C216846FAF702FC9DF8000040F00C00C9
:10CCC0008DF8000007A80190FAF703FCADF80A0000
:10CCD00007A8FAF7FEFB0024ADF8080003940494BB
:10CCE0000594069428788DF842000320ADF84000A2
:10CCF0000F949DF83C00142120F00F00401C20F000
:10CD0000F00010308DF83C009DF83D0020F00F0041
:10CD1000401C20F0F00010308DF83D009DF83E00E2
:10CD200020F00600801C20F0180040F001008DF873
:10CD30003E000AA8FAF7C2FB10A80A900FA80B90B1
:10CD40000120ADF830001420ADF83240ADF83400C9
:10CD500068882B1D0AAA6946A2DF11B030BD000009
:10CD600042415420434F4E46000000000870000A24
:10CD70004870022070470870020A4A70020C8A70DC
:10CD8000000EC8700420704738B515494888A0F5D2
:10CD90007F42FF3A23D04A78124C521CD2B24A70DA
:10CDA000237B93420AD3091D75DF002817D0A169A0
:10CDB000002914D001B0BDE83040084700254D706F
